{
	"data": {
		"bytecode": {
			"linkReferences": {},
			"object": "608060405234801561001057600080fd5b50610271806100206000396000f3fe608060405234801561001057600080fd5b50600436106100365760003560e01c80630b4745ec1461003b57806369bd01c414610057575b600080fd5b61005560048036038101906100509190610186565b610075565b005b61005f610142565b60405161006c91906101c2565b60405180910390f35b806000819055506000600367ffffffffffffffff811115610099576100986101dd565b5b6040519080825280602002602001820160405280156100c75781602001602082028036833780820191505090505b509050600a816001815181106100e0576100df61020c565b5b602002602001018181525050600180806001815401808255809150506001900390600052602060002001600090919091909150556001600b90806001815401808255809150506001900390600052602060002001600090919091909150555050565b60008054905090565b600080fd5b6000819050919050565b61016381610150565b811461016e57600080fd5b50565b6000813590506101808161015a565b92915050565b60006020828403121561019c5761019b61014b565b5b60006101aa84828501610171565b91505092915050565b6101bc81610150565b82525050565b60006020820190506101d760008301846101b3565b92915050565b7f4e487b7100000000000000000000000000000000000000000000000000000000600052604160045260246000fd5b7f4e487b7100000000000000000000000000000000000000000000000000000000600052603260045260246000fdfea2646970667358221220fbc6dc3a3b796016a6e99dbc30289251395f7e2e70e3c6c94f43bdeeacb3271a64736f6c63430008100033",
			"opcodes": "PUSH1 0x80 PUSH1 0x40 MSTORE CALLVALUE DUP1 ISZERO PUSH2 0x10 JUMPI PUSH1 0x0 DUP1 REVERT JUMPDEST POP PUSH2 0x271 DUP1 PUSH2 0x20 PUSH1 0x0 CODECOPY PUSH1 0x0 RETURN INVALID PUSH1 0x80 PUSH1 0x40 MSTORE CALLVALUE DUP1 ISZERO PUSH2 0x10 JUMPI PUSH1 0x0 DUP1 REVERT JUMPDEST POP PUSH1 0x4 CALLDATASIZE LT PUSH2 0x36 JUMPI PUSH1 0x0 CALLDATALOAD PUSH1 0xE0 SHR DUP1 PUSH4 0xB4745EC EQ PUSH2 0x3B JUMPI DUP1 PUSH4 0x69BD01C4 EQ PUSH2 0x57 JUMPI JUMPDEST PUSH1 0x0 DUP1 REVERT JUMPDEST PUSH2 0x55 PUSH1 0x4 DUP1 CALLDATASIZE SUB DUP2 ADD SWAP1 PUSH2 0x50 SWAP2 SWAP1 PUSH2 0x186 JUMP JUMPDEST PUSH2 0x75 JUMP JUMPDEST STOP JUMPDEST PUSH2 0x5F PUSH2 0x142 JUMP JUMPDEST PUSH1 0x40 MLOAD PUSH2 0x6C SWAP2 SWAP1 PUSH2 0x1C2 JUMP JUMPDEST PUSH1 0x40 MLOAD DUP1 SWAP2 SUB SWAP1 RETURN JUMPDEST DUP1 PUSH1 0x0 DUP2 SWAP1 SSTORE POP PUSH1 0x0 PUSH1 0x3 PUSH8 0xFFFFFFFFFFFFFFFF DUP2 GT ISZERO PUSH2 0x99 JUMPI PUSH2 0x98 PUSH2 0x1DD JUMP JUMPDEST JUMPDEST PUSH1 0x40 MLOAD SWAP1 DUP1 DUP3 MSTORE DUP1 PUSH1 0x20 MUL PUSH1 0x20 ADD DUP3 ADD PUSH1 0x40 MSTORE DUP1 ISZERO PUSH2 0xC7 JUMPI DUP2 PUSH1 0x20 ADD PUSH1 0x20 DUP3 MUL DUP1 CALLDATASIZE DUP4 CALLDATACOPY DUP1 DUP3 ADD SWAP2 POP POP SWAP1 POP JUMPDEST POP SWAP1 POP PUSH1 0xA DUP2 PUSH1 0x1 DUP2 MLOAD DUP2 LT PUSH2 0xE0 JUMPI PUSH2 0xDF PUSH2 0x20C JUMP JUMPDEST JUMPDEST PUSH1 0x20 MUL PUSH1 0x20 ADD ADD DUP2 DUP2 MSTORE POP POP PUSH1 0x1 DUP1 DUP1 PUSH1 0x1 DUP2 SLOAD ADD DUP1 DUP3 SSTORE DUP1 SWAP2 POP POP PUSH1 0x1 SWAP1 SUB SWAP1 PUSH1 0x0 MSTORE PUSH1 0x20 PUSH1 0x0 KECCAK256 ADD PUSH1 0x0 SWAP1 SWAP2 SWAP1 SWAP2 SWAP1 SWAP2 POP SSTORE PUSH1 0x1 PUSH1 0xB SWAP1 DUP1 PUSH1 0x1 DUP2 SLOAD ADD DUP1 DUP3 SSTORE DUP1 SWAP2 POP POP PUSH1 0x1 SWAP1 SUB SWAP1 PUSH1 0x0 MSTORE PUSH1 0x20 PUSH1 0x0 KECCAK256 ADD PUSH1 0x0 SWAP1 SWAP2 SWAP1 SWAP2 SWAP1 SWAP2 POP SSTORE POP POP JUMP JUMPDEST PUSH1 0x0 DUP1 SLOAD SWAP1 POP SWAP1 JUMP JUMPDEST PUSH1 0x0 DUP1 REVERT JUMPDEST PUSH1 0x0 DUP2 SWAP1 POP SWAP2 SWAP1 POP JUMP JUMPDEST PUSH2 0x163 DUP2 PUSH2 0x150 JUMP JUMPDEST DUP2 EQ PUSH2 0x16E JUMPI PUSH1 0x0 DUP1 REVERT JUMPDEST POP JUMP JUMPDEST PUSH1 0x0 DUP2 CALLDATALOAD SWAP1 POP PUSH2 0x180 DUP2 PUSH2 0x15A JUMP JUMPDEST SWAP3 SWAP2 POP POP JUMP JUMPDEST PUSH1 0x0 PUSH1 0x20 DUP3 DUP5 SUB SLT ISZERO PUSH2 0x19C JUMPI PUSH2 0x19B PUSH2 0x14B JUMP JUMPDEST JUMPDEST PUSH1 0x0 PUSH2 0x1AA DUP5 DUP3 DUP6 ADD PUSH2 0x171 JUMP JUMPDEST SWAP2 POP POP SWAP3 SWAP2 POP POP JUMP JUMPDEST PUSH2 0x1BC DUP2 PUSH2 0x150 JUMP JUMPDEST DUP3 MSTORE POP POP JUMP JUMPDEST PUSH1 0x0 PUSH1 0x20 DUP3 ADD SWAP1 POP PUSH2 0x1D7 PUSH1 0x0 DUP4 ADD DUP5 PUSH2 0x1B3 JUMP JUMPDEST SWAP3 SWAP2 POP POP JUMP JUMPDEST PUSH32 0x4E487B7100000000000000000000000000000000000000000000000000000000 PUSH1 0x0 MSTORE PUSH1 0x41 PUSH1 0x4 MSTORE PUSH1 0x24 PUSH1 0x0 REVERT JUMPDEST PUSH32 0x4E487B7100000000000000000000000000000000000000000000000000000000 PUSH1 0x0 MSTORE PUSH1 0x32 PUSH1 0x4 MSTORE PUSH1 0x24 PUSH1 0x0 REVERT INVALID LOG2 PUSH5 0x6970667358 0x22 SLT KECCAK256 0xFB 0xC6 0xDC GASPRICE EXTCODESIZE PUSH26 0x6016A6E99DBC30289251395F7E2E70E3C6C94F43BDEEACB3271A PUSH5 0x736F6C6343 STOP ADDMOD LT STOP CALLER "
		},
		"gasEstimates": {
			"creation": {
				"codeDepositCost": "125000",
				"executionCost": "171",
				"totalCost": "125171"
			},
			"external": {
				"getvalue()": "2437",
				"setvalue(uint256)": "115590"
			}
		},
		"methodIdentifiers": {
			"getvalue()": "69bd01c4",
			"setvalue(uint256)": "0b4745ec"
		}
	},
	"abi": [
		{
			"inputs": [],
			"name": "getvalue",
			"outputs": [
				{
					"internalType": "uint256",
					"name": "",
					"type": "uint256"
				}
			],
			"stateMutability": "view",
			"type": "function"
		},
		{
			"inputs": [
				{
					"internalType": "uint256",
					"name": "_value",
					"type": "uint256"
				}
			],
			"name": "setvalue",
			"outputs": [],
			"stateMutability": "nonpayable",
			"type": "function"
		}
	]
}