{
	"data": {
		"bytecode": {
			"linkReferences": {},
			"object": "608060405234801561001057600080fd5b50610e91806100206000396000f3fe608060405234801561001057600080fd5b506004361061004c5760003560e01c80631dda65411461005157806364591bf11461005b578063c5f19c201461008b578063caec2a5a146100bb575b600080fd5b6100596100d7565b005b6100756004803603810190610070919061035e565b61016a565b604051610082919061040a565b60405180910390f35b6100a560048036038101906100a0919061035e565b6101a9565b6040516100b29190610434565b60405180910390f35b6100d560048036038101906100d0919061044f565b610264565b005b60006040516100e590610316565b604051809103906000f080158015610101573d6000803e3d6000fd5b5090506000819080600181540180825580915050600190039060005260206000200160009091909190916101000a81548173ffffffffffffffffffffffffffffffffffffffff021916908373ffffffffffffffffffffffffffffffffffffffff16021790555050565b6000818154811061017a57600080fd5b906000526020600020016000915054906101000a900473ffffffffffffffffffffffffffffffffffffffff1681565b600080600083815481106101c0576101bf61048f565b5b9060005260206000200160009054906101000a900473ffffffffffffffffffffffffffffffffffffffff1690508073ffffffffffffffffffffffffffffffffffffffff16632e64cec16040518163ffffffff1660e01b8152600401602060405180830381865afa158015610238573d6000803e3d6000fd5b505050506040513d601f19601f8201168201806040525081019061025c91906104d3565b915050919050565b60008083815481106102795761027861048f565b5b9060005260206000200160009054906101000a900473ffffffffffffffffffffffffffffffffffffffff1690508073ffffffffffffffffffffffffffffffffffffffff16636057361d836040518263ffffffff1660e01b81526004016102df9190610434565b600060405180830381600087803b1580156102f957600080fd5b505af115801561030d573d6000803e3d6000fd5b50505050505050565b61095b8061050183390190565b600080fd5b6000819050919050565b61033b81610328565b811461034657600080fd5b50565b60008135905061035881610332565b92915050565b60006020828403121561037457610373610323565b5b600061038284828501610349565b91505092915050565b600073ffffffffffffffffffffffffffffffffffffffff82169050919050565b6000819050919050565b60006103d06103cb6103c68461038b565b6103ab565b61038b565b9050919050565b60006103e2826103b5565b9050919050565b60006103f4826103d7565b9050919050565b610404816103e9565b82525050565b600060208201905061041f60008301846103fb565b92915050565b61042e81610328565b82525050565b60006020820190506104496000830184610425565b92915050565b6000806040838503121561046657610465610323565b5b600061047485828601610349565b925050602061048585828601610349565b9150509250929050565b7f4e487b7100000000000000000000000000000000000000000000000000000000600052603260045260246000fd5b6000815190506104cd81610332565b92915050565b6000602082840312156104e9576104e8610323565b5b60006104f7848285016104be565b9150509291505056fe608060405234801561001057600080fd5b5061093b806100206000396000f3fe608060405234801561001057600080fd5b50600436106100575760003560e01c80632e64cec11461005c5780636057361d1461007a5780636f760f41146100965780638bab8dd5146100b25780639e7a13ad146100e2575b600080fd5b610064610113565b60405161007191906102b2565b60405180910390f35b610094600480360381019061008f919061030d565b61011c565b005b6100b060048036038101906100ab9190610480565b610126565b005b6100cc60048036038101906100c791906104dc565b6101af565b6040516100d991906102b2565b60405180910390f35b6100fc60048036038101906100f7919061030d565b6101dd565b60405161010a9291906105a4565b60405180910390f35b60008054905090565b8060008190555050565b6001604051806040016040528083815260200184815250908060018154018082558091505060019003906000526020600020906002020160009091909190915060008201518160000155602082015181600101908161018591906107e0565b5050508060028360405161019991906108ee565b9081526020016040518091039020819055505050565b6002818051602081018201805184825260208301602085012081835280955050505050506000915090505481565b600181815481106101ed57600080fd5b906000526020600020906002020160009150905080600001549080600101805461021690610603565b80601f016020809104026020016040519081016040528092919081815260200182805461024290610603565b801561028f5780601f106102645761010080835404028352916020019161028f565b820191906000526020600020905b81548152906001019060200180831161027257829003601f168201915b5050505050905082565b6000819050919050565b6102ac81610299565b82525050565b60006020820190506102c760008301846102a3565b92915050565b6000604051905090565b600080fd5b600080fd5b6102ea81610299565b81146102f557600080fd5b50565b600081359050610307816102e1565b92915050565b600060208284031215610323576103226102d7565b5b6000610331848285016102f8565b91505092915050565b600080fd5b600080fd5b6000601f19601f8301169050919050565b7f4e487b7100000000000000000000000000000000000000000000000000000000600052604160045260246000fd5b61038d82610344565b810181811067ffffffffffffffff821117156103ac576103ab610355565b5b80604052505050565b60006103bf6102cd565b90506103cb8282610384565b919050565b600067ffffffffffffffff8211156103eb576103ea610355565b5b6103f482610344565b9050602081019050919050565b82818337600083830152505050565b600061042361041e846103d0565b6103b5565b90508281526020810184848401111561043f5761043e61033f565b5b61044a848285610401565b509392505050565b600082601f8301126104675761046661033a565b5b8135610477848260208601610410565b91505092915050565b60008060408385031215610497576104966102d7565b5b600083013567ffffffffffffffff8111156104b5576104b46102dc565b5b6104c185828601610452565b92505060206104d2858286016102f8565b9150509250929050565b6000602082840312156104f2576104f16102d7565b5b600082013567ffffffffffffffff8111156105105761050f6102dc565b5b61051c84828501610452565b91505092915050565b600081519050919050565b600082825260208201905092915050565b60005b8381101561055f578082015181840152602081019050610544565b60008484015250505050565b600061057682610525565b6105808185610530565b9350610590818560208601610541565b61059981610344565b840191505092915050565b60006040820190506105b960008301856102a3565b81810360208301526105cb818461056b565b90509392505050565b7f4e487b7100000000000000000000000000000000000000000000000000000000600052602260045260246000fd5b6000600282049050600182168061061b57607f821691505b60208210810361062e5761062d6105d4565b5b50919050565b60008190508160005260206000209050919050565b60006020601f8301049050919050565b600082821b905092915050565b6000600883026106967fffffffffffffffffffffffffffffffffffffffffffffffffffffffffffffffff82610659565b6106a08683610659565b95508019841693508086168417925050509392505050565b6000819050919050565b60006106dd6106d86106d384610299565b6106b8565b610299565b9050919050565b6000819050919050565b6106f7836106c2565b61070b610703826106e4565b848454610666565b825550505050565b600090565b610720610713565b61072b8184846106ee565b505050565b5b8181101561074f57610744600082610718565b600181019050610731565b5050565b601f8211156107945761076581610634565b61076e84610649565b8101602085101561077d578190505b61079161078985610649565b830182610730565b50505b505050565b600082821c905092915050565b60006107b760001984600802610799565b1980831691505092915050565b60006107d083836107a6565b9150826002028217905092915050565b6107e982610525565b67ffffffffffffffff81111561080257610801610355565b5b61080c8254610603565b610817828285610753565b600060209050601f83116001811461084a5760008415610838578287015190505b61084285826107c4565b8655506108aa565b601f19841661085886610634565b60005b828110156108805784890151825560018201915060208501945060208101905061085b565b8683101561089d5784890151610899601f8916826107a6565b8355505b6001600288020188555050505b505050505050565b600081905092915050565b60006108c882610525565b6108d281856108b2565b93506108e2818560208601610541565b80840191505092915050565b60006108fa82846108bd565b91508190509291505056fea26469706673582212209d476d238e100ac82dd5c173ee2418f8398727d58df59d3a9abf88eb9b0b5e6d64736f6c63430008100033a26469706673582212204be9c6cee7d7d295025b272877c8f6694f9939cb27ccc3ea7c48cc13f513663264736f6c63430008100033",
			"opcodes": "PUSH1 0x80 PUSH1 0x40 MSTORE CALLVALUE DUP1 ISZERO PUSH2 0x10 JUMPI PUSH1 0x0 DUP1 REVERT JUMPDEST POP PUSH2 0xE91 DUP1 PUSH2 0x20 PUSH1 0x0 CODECOPY PUSH1 0x0 RETURN INVALID PUSH1 0x80 PUSH1 0x40 MSTORE CALLVALUE DUP1 ISZERO PUSH2 0x10 JUMPI PUSH1 0x0 DUP1 REVERT JUMPDEST POP PUSH1 0x4 CALLDATASIZE LT PUSH2 0x4C JUMPI PUSH1 0x0 CALLDATALOAD PUSH1 0xE0 SHR DUP1 PUSH4 0x1DDA6541 EQ PUSH2 0x51 JUMPI DUP1 PUSH4 0x64591BF1 EQ PUSH2 0x5B JUMPI DUP1 PUSH4 0xC5F19C20 EQ PUSH2 0x8B JUMPI DUP1 PUSH4 0xCAEC2A5A EQ PUSH2 0xBB JUMPI JUMPDEST PUSH1 0x0 DUP1 REVERT JUMPDEST PUSH2 0x59 PUSH2 0xD7 JUMP JUMPDEST STOP JUMPDEST PUSH2 0x75 PUSH1 0x4 DUP1 CALLDATASIZE SUB DUP2 ADD SWAP1 PUSH2 0x70 SWAP2 SWAP1 PUSH2 0x35E JUMP JUMPDEST PUSH2 0x16A JUMP JUMPDEST PUSH1 0x40 MLOAD PUSH2 0x82 SWAP2 SWAP1 PUSH2 0x40A JUMP JUMPDEST PUSH1 0x40 MLOAD DUP1 SWAP2 SUB SWAP1 RETURN JUMPDEST PUSH2 0xA5 PUSH1 0x4 DUP1 CALLDATASIZE SUB DUP2 ADD SWAP1 PUSH2 0xA0 SWAP2 SWAP1 PUSH2 0x35E JUMP JUMPDEST PUSH2 0x1A9 JUMP JUMPDEST PUSH1 0x40 MLOAD PUSH2 0xB2 SWAP2 SWAP1 PUSH2 0x434 JUMP JUMPDEST PUSH1 0x40 MLOAD DUP1 SWAP2 SUB SWAP1 RETURN JUMPDEST PUSH2 0xD5 PUSH1 0x4 DUP1 CALLDATASIZE SUB DUP2 ADD SWAP1 PUSH2 0xD0 SWAP2 SWAP1 PUSH2 0x44F JUMP JUMPDEST PUSH2 0x264 JUMP JUMPDEST STOP JUMPDEST PUSH1 0x0 PUSH1 0x40 MLOAD PUSH2 0xE5 SWAP1 PUSH2 0x316 JUMP JUMPDEST PUSH1 0x40 MLOAD DUP1 SWAP2 SUB SWAP1 PUSH1 0x0 CREATE DUP1 ISZERO DUP1 ISZERO PUSH2 0x101 JUMPI RETURNDATASIZE PUSH1 0x0 DUP1 RETURNDATACOPY RETURNDATASIZE PUSH1 0x0 REVERT JUMPDEST POP SWAP1 POP PUSH1 0x0 DUP2 SWAP1 DUP1 PUSH1 0x1 DUP2 SLOAD ADD DUP1 DUP3 SSTORE DUP1 SWAP2 POP POP PUSH1 0x1 SWAP1 SUB SWAP1 PUSH1 0x0 MSTORE PUSH1 0x20 PUSH1 0x0 KECCAK256 ADD PUSH1 0x0 SWAP1 SWAP2 SWAP1 SWAP2 SWAP1 SWAP2 PUSH2 0x100 EXP DUP2 SLOAD DUP2 PUSH20 0xFFFFFFFFFFFFFFFFFFFFFFFFFFFFFFFFFFFFFFFF MUL NOT AND SWAP1 DUP4 PUSH20 0xFFFFFFFFFFFFFFFFFFFFFFFFFFFFFFFFFFFFFFFF AND MUL OR SWAP1 SSTORE POP POP JUMP JUMPDEST PUSH1 0x0 DUP2 DUP2 SLOAD DUP2 LT PUSH2 0x17A JUMPI PUSH1 0x0 DUP1 REVERT JUMPDEST SWAP1 PUSH1 0x0 MSTORE PUSH1 0x20 PUSH1 0x0 KECCAK256 ADD PUSH1 0x0 SWAP2 POP SLOAD SWAP1 PUSH2 0x100 EXP SWAP1 DIV PUSH20 0xFFFFFFFFFFFFFFFFFFFFFFFFFFFFFFFFFFFFFFFF AND DUP2 JUMP JUMPDEST PUSH1 0x0 DUP1 PUSH1 0x0 DUP4 DUP2 SLOAD DUP2 LT PUSH2 0x1C0 JUMPI PUSH2 0x1BF PUSH2 0x48F JUMP JUMPDEST JUMPDEST SWAP1 PUSH1 0x0 MSTORE PUSH1 0x20 PUSH1 0x0 KECCAK256 ADD PUSH1 0x0 SWAP1 SLOAD SWAP1 PUSH2 0x100 EXP SWAP1 DIV PUSH20 0xFFFFFFFFFFFFFFFFFFFFFFFFFFFFFFFFFFFFFFFF AND SWAP1 POP DUP1 PUSH20 0xFFFFFFFFFFFFFFFFFFFFFFFFFFFFFFFFFFFFFFFF AND PUSH4 0x2E64CEC1 PUSH1 0x40 MLOAD DUP2 PUSH4 0xFFFFFFFF AND PUSH1 0xE0 SHL DUP2 MSTORE PUSH1 0x4 ADD PUSH1 0x20 PUSH1 0x40 MLOAD DUP1 DUP4 SUB DUP2 DUP7 GAS STATICCALL ISZERO DUP1 ISZERO PUSH2 0x238 JUMPI RETURNDATASIZE PUSH1 0x0 DUP1 RETURNDATACOPY RETURNDATASIZE PUSH1 0x0 REVERT JUMPDEST POP POP POP POP PUSH1 0x40 MLOAD RETURNDATASIZE PUSH1 0x1F NOT PUSH1 0x1F DUP3 ADD AND DUP3 ADD DUP1 PUSH1 0x40 MSTORE POP DUP2 ADD SWAP1 PUSH2 0x25C SWAP2 SWAP1 PUSH2 0x4D3 JUMP JUMPDEST SWAP2 POP POP SWAP2 SWAP1 POP JUMP JUMPDEST PUSH1 0x0 DUP1 DUP4 DUP2 SLOAD DUP2 LT PUSH2 0x279 JUMPI PUSH2 0x278 PUSH2 0x48F JUMP JUMPDEST JUMPDEST SWAP1 PUSH1 0x0 MSTORE PUSH1 0x20 PUSH1 0x0 KECCAK256 ADD PUSH1 0x0 SWAP1 SLOAD SWAP1 PUSH2 0x100 EXP SWAP1 DIV PUSH20 0xFFFFFFFFFFFFFFFFFFFFFFFFFFFFFFFFFFFFFFFF AND SWAP1 POP DUP1 PUSH20 0xFFFFFFFFFFFFFFFFFFFFFFFFFFFFFFFFFFFFFFFF AND PUSH4 0x6057361D DUP4 PUSH1 0x40 MLOAD DUP3 PUSH4 0xFFFFFFFF AND PUSH1 0xE0 SHL DUP2 MSTORE PUSH1 0x4 ADD PUSH2 0x2DF SWAP2 SWAP1 PUSH2 0x434 JUMP JUMPDEST PUSH1 0x0 PUSH1 0x40 MLOAD DUP1 DUP4 SUB DUP2 PUSH1 0x0 DUP8 DUP1 EXTCODESIZE ISZERO DUP1 ISZERO PUSH2 0x2F9 JUMPI PUSH1 0x0 DUP1 REVERT JUMPDEST POP GAS CALL ISZERO DUP1 ISZERO PUSH2 0x30D JUMPI RETURNDATASIZE PUSH1 0x0 DUP1 RETURNDATACOPY RETURNDATASIZE PUSH1 0x0 REVERT JUMPDEST POP POP POP POP POP POP POP JUMP JUMPDEST PUSH2 0x95B DUP1 PUSH2 0x501 DUP4 CODECOPY ADD SWAP1 JUMP JUMPDEST PUSH1 0x0 DUP1 REVERT JUMPDEST PUSH1 0x0 DUP2 SWAP1 POP SWAP2 SWAP1 POP JUMP JUMPDEST PUSH2 0x33B DUP2 PUSH2 0x328 JUMP JUMPDEST DUP2 EQ PUSH2 0x346 JUMPI PUSH1 0x0 DUP1 REVERT JUMPDEST POP JUMP JUMPDEST PUSH1 0x0 DUP2 CALLDATALOAD SWAP1 POP PUSH2 0x358 DUP2 PUSH2 0x332 JUMP JUMPDEST SWAP3 SWAP2 POP POP JUMP JUMPDEST PUSH1 0x0 PUSH1 0x20 DUP3 DUP5 SUB SLT ISZERO PUSH2 0x374 JUMPI PUSH2 0x373 PUSH2 0x323 JUMP JUMPDEST JUMPDEST PUSH1 0x0 PUSH2 0x382 DUP5 DUP3 DUP6 ADD PUSH2 0x349 JUMP JUMPDEST SWAP2 POP POP SWAP3 SWAP2 POP POP JUMP JUMPDEST PUSH1 0x0 PUSH20 0xFFFFFFFFFFFFFFFFFFFFFFFFFFFFFFFFFFFFFFFF DUP3 AND SWAP1 POP SWAP2 SWAP1 POP JUMP JUMPDEST PUSH1 0x0 DUP2 SWAP1 POP SWAP2 SWAP1 POP JUMP JUMPDEST PUSH1 0x0 PUSH2 0x3D0 PUSH2 0x3CB PUSH2 0x3C6 DUP5 PUSH2 0x38B JUMP JUMPDEST PUSH2 0x3AB JUMP JUMPDEST PUSH2 0x38B JUMP JUMPDEST SWAP1 POP SWAP2 SWAP1 POP JUMP JUMPDEST PUSH1 0x0 PUSH2 0x3E2 DUP3 PUSH2 0x3B5 JUMP JUMPDEST SWAP1 POP SWAP2 SWAP1 POP JUMP JUMPDEST PUSH1 0x0 PUSH2 0x3F4 DUP3 PUSH2 0x3D7 JUMP JUMPDEST SWAP1 POP SWAP2 SWAP1 POP JUMP JUMPDEST PUSH2 0x404 DUP2 PUSH2 0x3E9 JUMP JUMPDEST DUP3 MSTORE POP POP JUMP JUMPDEST PUSH1 0x0 PUSH1 0x20 DUP3 ADD SWAP1 POP PUSH2 0x41F PUSH1 0x0 DUP4 ADD DUP5 PUSH2 0x3FB JUMP JUMPDEST SWAP3 SWAP2 POP POP JUMP JUMPDEST PUSH2 0x42E DUP2 PUSH2 0x328 JUMP JUMPDEST DUP3 MSTORE POP POP JUMP JUMPDEST PUSH1 0x0 PUSH1 0x20 DUP3 ADD SWAP1 POP PUSH2 0x449 PUSH1 0x0 DUP4 ADD DUP5 PUSH2 0x425 JUMP JUMPDEST SWAP3 SWAP2 POP POP JUMP JUMPDEST PUSH1 0x0 DUP1 PUSH1 0x40 DUP4 DUP6 SUB SLT ISZERO PUSH2 0x466 JUMPI PUSH2 0x465 PUSH2 0x323 JUMP JUMPDEST JUMPDEST PUSH1 0x0 PUSH2 0x474 DUP6 DUP3 DUP7 ADD PUSH2 0x349 JUMP JUMPDEST SWAP3 POP POP PUSH1 0x20 PUSH2 0x485 DUP6 DUP3 DUP7 ADD PUSH2 0x349 JUMP JUMPDEST SWAP2 POP POP SWAP3 POP SWAP3 SWAP1 POP JUMP JUMPDEST PUSH32 0x4E487B7100000000000000000000000000000000000000000000000000000000 PUSH1 0x0 MSTORE PUSH1 0x32 PUSH1 0x4 MSTORE PUSH1 0x24 PUSH1 0x0 REVERT JUMPDEST PUSH1 0x0 DUP2 MLOAD SWAP1 POP PUSH2 0x4CD DUP2 PUSH2 0x332 JUMP JUMPDEST SWAP3 SWAP2 POP POP JUMP JUMPDEST PUSH1 0x0 PUSH1 0x20 DUP3 DUP5 SUB SLT ISZERO PUSH2 0x4E9 JUMPI PUSH2 0x4E8 PUSH2 0x323 JUMP JUMPDEST JUMPDEST PUSH1 0x0 PUSH2 0x4F7 DUP5 DUP3 DUP6 ADD PUSH2 0x4BE JUMP JUMPDEST SWAP2 POP POP SWAP3 SWAP2 POP POP JUMP INVALID PUSH1 0x80 PUSH1 0x40 MSTORE CALLVALUE DUP1 ISZERO PUSH2 0x10 JUMPI PUSH1 0x0 DUP1 REVERT JUMPDEST POP PUSH2 0x93B DUP1 PUSH2 0x20 PUSH1 0x0 CODECOPY PUSH1 0x0 RETURN INVALID PUSH1 0x80 PUSH1 0x40 MSTORE CALLVALUE DUP1 ISZERO PUSH2 0x10 JUMPI PUSH1 0x0 DUP1 REVERT JUMPDEST POP PUSH1 0x4 CALLDATASIZE LT PUSH2 0x57 JUMPI PUSH1 0x0 CALLDATALOAD PUSH1 0xE0 SHR DUP1 PUSH4 0x2E64CEC1 EQ PUSH2 0x5C JUMPI DUP1 PUSH4 0x6057361D EQ PUSH2 0x7A JUMPI DUP1 PUSH4 0x6F760F41 EQ PUSH2 0x96 JUMPI DUP1 PUSH4 0x8BAB8DD5 EQ PUSH2 0xB2 JUMPI DUP1 PUSH4 0x9E7A13AD EQ PUSH2 0xE2 JUMPI JUMPDEST PUSH1 0x0 DUP1 REVERT JUMPDEST PUSH2 0x64 PUSH2 0x113 JUMP JUMPDEST PUSH1 0x40 MLOAD PUSH2 0x71 SWAP2 SWAP1 PUSH2 0x2B2 JUMP JUMPDEST PUSH1 0x40 MLOAD DUP1 SWAP2 SUB SWAP1 RETURN JUMPDEST PUSH2 0x94 PUSH1 0x4 DUP1 CALLDATASIZE SUB DUP2 ADD SWAP1 PUSH2 0x8F SWAP2 SWAP1 PUSH2 0x30D JUMP JUMPDEST PUSH2 0x11C JUMP JUMPDEST STOP JUMPDEST PUSH2 0xB0 PUSH1 0x4 DUP1 CALLDATASIZE SUB DUP2 ADD SWAP1 PUSH2 0xAB SWAP2 SWAP1 PUSH2 0x480 JUMP JUMPDEST PUSH2 0x126 JUMP JUMPDEST STOP JUMPDEST PUSH2 0xCC PUSH1 0x4 DUP1 CALLDATASIZE SUB DUP2 ADD SWAP1 PUSH2 0xC7 SWAP2 SWAP1 PUSH2 0x4DC JUMP JUMPDEST PUSH2 0x1AF JUMP JUMPDEST PUSH1 0x40 MLOAD PUSH2 0xD9 SWAP2 SWAP1 PUSH2 0x2B2 JUMP JUMPDEST PUSH1 0x40 MLOAD DUP1 SWAP2 SUB SWAP1 RETURN JUMPDEST PUSH2 0xFC PUSH1 0x4 DUP1 CALLDATASIZE SUB DUP2 ADD SWAP1 PUSH2 0xF7 SWAP2 SWAP1 PUSH2 0x30D JUMP JUMPDEST PUSH2 0x1DD JUMP JUMPDEST PUSH1 0x40 MLOAD PUSH2 0x10A SWAP3 SWAP2 SWAP1 PUSH2 0x5A4 JUMP JUMPDEST PUSH1 0x40 MLOAD DUP1 SWAP2 SUB SWAP1 RETURN JUMPDEST PUSH1 0x0 DUP1 SLOAD SWAP1 POP SWAP1 JUMP JUMPDEST DUP1 PUSH1 0x0 DUP2 SWAP1 SSTORE POP POP JUMP JUMPDEST PUSH1 0x1 PUSH1 0x40 MLOAD DUP1 PUSH1 0x40 ADD PUSH1 0x40 MSTORE DUP1 DUP4 DUP2 MSTORE PUSH1 0x20 ADD DUP5 DUP2 MSTORE POP SWAP1 DUP1 PUSH1 0x1 DUP2 SLOAD ADD DUP1 DUP3 SSTORE DUP1 SWAP2 POP POP PUSH1 0x1 SWAP1 SUB SWAP1 PUSH1 0x0 MSTORE PUSH1 0x20 PUSH1 0x0 KECCAK256 SWAP1 PUSH1 0x2 MUL ADD PUSH1 0x0 SWAP1 SWAP2 SWAP1 SWAP2 SWAP1 SWAP2 POP PUSH1 0x0 DUP3 ADD MLOAD DUP2 PUSH1 0x0 ADD SSTORE PUSH1 0x20 DUP3 ADD MLOAD DUP2 PUSH1 0x1 ADD SWAP1 DUP2 PUSH2 0x185 SWAP2 SWAP1 PUSH2 0x7E0 JUMP JUMPDEST POP POP POP DUP1 PUSH1 0x2 DUP4 PUSH1 0x40 MLOAD PUSH2 0x199 SWAP2 SWAP1 PUSH2 0x8EE JUMP JUMPDEST SWAP1 DUP2 MSTORE PUSH1 0x20 ADD PUSH1 0x40 MLOAD DUP1 SWAP2 SUB SWAP1 KECCAK256 DUP2 SWAP1 SSTORE POP POP POP JUMP JUMPDEST PUSH1 0x2 DUP2 DUP1 MLOAD PUSH1 0x20 DUP2 ADD DUP3 ADD DUP1 MLOAD DUP5 DUP3 MSTORE PUSH1 0x20 DUP4 ADD PUSH1 0x20 DUP6 ADD KECCAK256 DUP2 DUP4 MSTORE DUP1 SWAP6 POP POP POP POP POP POP PUSH1 0x0 SWAP2 POP SWAP1 POP SLOAD DUP2 JUMP JUMPDEST PUSH1 0x1 DUP2 DUP2 SLOAD DUP2 LT PUSH2 0x1ED JUMPI PUSH1 0x0 DUP1 REVERT JUMPDEST SWAP1 PUSH1 0x0 MSTORE PUSH1 0x20 PUSH1 0x0 KECCAK256 SWAP1 PUSH1 0x2 MUL ADD PUSH1 0x0 SWAP2 POP SWAP1 POP DUP1 PUSH1 0x0 ADD SLOAD SWAP1 DUP1 PUSH1 0x1 ADD DUP1 SLOAD PUSH2 0x216 SWAP1 PUSH2 0x603 JUMP JUMPDEST DUP1 PUSH1 0x1F ADD PUSH1 0x20 DUP1 SWAP2 DIV MUL PUSH1 0x20 ADD PUSH1 0x40 MLOAD SWAP1 DUP2 ADD PUSH1 0x40 MSTORE DUP1 SWAP3 SWAP2 SWAP1 DUP2 DUP2 MSTORE PUSH1 0x20 ADD DUP3 DUP1 SLOAD PUSH2 0x242 SWAP1 PUSH2 0x603 JUMP JUMPDEST DUP1 ISZERO PUSH2 0x28F JUMPI DUP1 PUSH1 0x1F LT PUSH2 0x264 JUMPI PUSH2 0x100 DUP1 DUP4 SLOAD DIV MUL DUP4 MSTORE SWAP2 PUSH1 0x20 ADD SWAP2 PUSH2 0x28F JUMP JUMPDEST DUP3 ADD SWAP2 SWAP1 PUSH1 0x0 MSTORE PUSH1 0x20 PUSH1 0x0 KECCAK256 SWAP1 JUMPDEST DUP2 SLOAD DUP2 MSTORE SWAP1 PUSH1 0x1 ADD SWAP1 PUSH1 0x20 ADD DUP1 DUP4 GT PUSH2 0x272 JUMPI DUP3 SWAP1 SUB PUSH1 0x1F AND DUP3 ADD SWAP2 JUMPDEST POP POP POP POP POP SWAP1 POP DUP3 JUMP JUMPDEST PUSH1 0x0 DUP2 SWAP1 POP SWAP2 SWAP1 POP JUMP JUMPDEST PUSH2 0x2AC DUP2 PUSH2 0x299 JUMP JUMPDEST DUP3 MSTORE POP POP JUMP JUMPDEST PUSH1 0x0 PUSH1 0x20 DUP3 ADD SWAP1 POP PUSH2 0x2C7 PUSH1 0x0 DUP4 ADD DUP5 PUSH2 0x2A3 JUMP JUMPDEST SWAP3 SWAP2 POP POP JUMP JUMPDEST PUSH1 0x0 PUSH1 0x40 MLOAD SWAP1 POP SWAP1 JUMP JUMPDEST PUSH1 0x0 DUP1 REVERT JUMPDEST PUSH1 0x0 DUP1 REVERT JUMPDEST PUSH2 0x2EA DUP2 PUSH2 0x299 JUMP JUMPDEST DUP2 EQ PUSH2 0x2F5 JUMPI PUSH1 0x0 DUP1 REVERT JUMPDEST POP JUMP JUMPDEST PUSH1 0x0 DUP2 CALLDATALOAD SWAP1 POP PUSH2 0x307 DUP2 PUSH2 0x2E1 JUMP JUMPDEST SWAP3 SWAP2 POP POP JUMP JUMPDEST PUSH1 0x0 PUSH1 0x20 DUP3 DUP5 SUB SLT ISZERO PUSH2 0x323 JUMPI PUSH2 0x322 PUSH2 0x2D7 JUMP JUMPDEST JUMPDEST PUSH1 0x0 PUSH2 0x331 DUP5 DUP3 DUP6 ADD PUSH2 0x2F8 JUMP JUMPDEST SWAP2 POP POP SWAP3 SWAP2 POP POP JUMP JUMPDEST PUSH1 0x0 DUP1 REVERT JUMPDEST PUSH1 0x0 DUP1 REVERT JUMPDEST PUSH1 0x0 PUSH1 0x1F NOT PUSH1 0x1F DUP4 ADD AND SWAP1 POP SWAP2 SWAP1 POP JUMP JUMPDEST PUSH32 0x4E487B7100000000000000000000000000000000000000000000000000000000 PUSH1 0x0 MSTORE PUSH1 0x41 PUSH1 0x4 MSTORE PUSH1 0x24 PUSH1 0x0 REVERT JUMPDEST PUSH2 0x38D DUP3 PUSH2 0x344 JUMP JUMPDEST DUP2 ADD DUP2 DUP2 LT PUSH8 0xFFFFFFFFFFFFFFFF DUP3 GT OR ISZERO PUSH2 0x3AC JUMPI PUSH2 0x3AB PUSH2 0x355 JUMP JUMPDEST JUMPDEST DUP1 PUSH1 0x40 MSTORE POP POP POP JUMP JUMPDEST PUSH1 0x0 PUSH2 0x3BF PUSH2 0x2CD JUMP JUMPDEST SWAP1 POP PUSH2 0x3CB DUP3 DUP3 PUSH2 0x384 JUMP JUMPDEST SWAP2 SWAP1 POP JUMP JUMPDEST PUSH1 0x0 PUSH8 0xFFFFFFFFFFFFFFFF DUP3 GT ISZERO PUSH2 0x3EB JUMPI PUSH2 0x3EA PUSH2 0x355 JUMP JUMPDEST JUMPDEST PUSH2 0x3F4 DUP3 PUSH2 0x344 JUMP JUMPDEST SWAP1 POP PUSH1 0x20 DUP2 ADD SWAP1 POP SWAP2 SWAP1 POP JUMP JUMPDEST DUP3 DUP2 DUP4 CALLDATACOPY PUSH1 0x0 DUP4 DUP4 ADD MSTORE POP POP POP JUMP JUMPDEST PUSH1 0x0 PUSH2 0x423 PUSH2 0x41E DUP5 PUSH2 0x3D0 JUMP JUMPDEST PUSH2 0x3B5 JUMP JUMPDEST SWAP1 POP DUP3 DUP2 MSTORE PUSH1 0x20 DUP2 ADD DUP5 DUP5 DUP5 ADD GT ISZERO PUSH2 0x43F JUMPI PUSH2 0x43E PUSH2 0x33F JUMP JUMPDEST JUMPDEST PUSH2 0x44A DUP5 DUP3 DUP6 PUSH2 0x401 JUMP JUMPDEST POP SWAP4 SWAP3 POP POP POP JUMP JUMPDEST PUSH1 0x0 DUP3 PUSH1 0x1F DUP4 ADD SLT PUSH2 0x467 JUMPI PUSH2 0x466 PUSH2 0x33A JUMP JUMPDEST JUMPDEST DUP2 CALLDATALOAD PUSH2 0x477 DUP5 DUP3 PUSH1 0x20 DUP7 ADD PUSH2 0x410 JUMP JUMPDEST SWAP2 POP POP SWAP3 SWAP2 POP POP JUMP JUMPDEST PUSH1 0x0 DUP1 PUSH1 0x40 DUP4 DUP6 SUB SLT ISZERO PUSH2 0x497 JUMPI PUSH2 0x496 PUSH2 0x2D7 JUMP JUMPDEST JUMPDEST PUSH1 0x0 DUP4 ADD CALLDATALOAD PUSH8 0xFFFFFFFFFFFFFFFF DUP2 GT ISZERO PUSH2 0x4B5 JUMPI PUSH2 0x4B4 PUSH2 0x2DC JUMP JUMPDEST JUMPDEST PUSH2 0x4C1 DUP6 DUP3 DUP7 ADD PUSH2 0x452 JUMP JUMPDEST SWAP3 POP POP PUSH1 0x20 PUSH2 0x4D2 DUP6 DUP3 DUP7 ADD PUSH2 0x2F8 JUMP JUMPDEST SWAP2 POP POP SWAP3 POP SWAP3 SWAP1 POP JUMP JUMPDEST PUSH1 0x0 PUSH1 0x20 DUP3 DUP5 SUB SLT ISZERO PUSH2 0x4F2 JUMPI PUSH2 0x4F1 PUSH2 0x2D7 JUMP JUMPDEST JUMPDEST PUSH1 0x0 DUP3 ADD CALLDATALOAD PUSH8 0xFFFFFFFFFFFFFFFF DUP2 GT ISZERO PUSH2 0x510 JUMPI PUSH2 0x50F PUSH2 0x2DC JUMP JUMPDEST JUMPDEST PUSH2 0x51C DUP5 DUP3 DUP6 ADD PUSH2 0x452 JUMP JUMPDEST SWAP2 POP POP SWAP3 SWAP2 POP POP JUMP JUMPDEST PUSH1 0x0 DUP2 MLOAD SWAP1 POP SWAP2 SWAP1 POP JUMP JUMPDEST PUSH1 0x0 DUP3 DUP3 MSTORE PUSH1 0x20 DUP3 ADD SWAP1 POP SWAP3 SWAP2 POP POP JUMP JUMPDEST PUSH1 0x0 JUMPDEST DUP4 DUP2 LT ISZERO PUSH2 0x55F JUMPI DUP1 DUP3 ADD MLOAD DUP2 DUP5 ADD MSTORE PUSH1 0x20 DUP2 ADD SWAP1 POP PUSH2 0x544 JUMP JUMPDEST PUSH1 0x0 DUP5 DUP5 ADD MSTORE POP POP POP POP JUMP JUMPDEST PUSH1 0x0 PUSH2 0x576 DUP3 PUSH2 0x525 JUMP JUMPDEST PUSH2 0x580 DUP2 DUP6 PUSH2 0x530 JUMP JUMPDEST SWAP4 POP PUSH2 0x590 DUP2 DUP6 PUSH1 0x20 DUP7 ADD PUSH2 0x541 JUMP JUMPDEST PUSH2 0x599 DUP2 PUSH2 0x344 JUMP JUMPDEST DUP5 ADD SWAP2 POP POP SWAP3 SWAP2 POP POP JUMP JUMPDEST PUSH1 0x0 PUSH1 0x40 DUP3 ADD SWAP1 POP PUSH2 0x5B9 PUSH1 0x0 DUP4 ADD DUP6 PUSH2 0x2A3 JUMP JUMPDEST DUP2 DUP2 SUB PUSH1 0x20 DUP4 ADD MSTORE PUSH2 0x5CB DUP2 DUP5 PUSH2 0x56B JUMP JUMPDEST SWAP1 POP SWAP4 SWAP3 POP POP POP JUMP JUMPDEST PUSH32 0x4E487B7100000000000000000000000000000000000000000000000000000000 PUSH1 0x0 MSTORE PUSH1 0x22 PUSH1 0x4 MSTORE PUSH1 0x24 PUSH1 0x0 REVERT JUMPDEST PUSH1 0x0 PUSH1 0x2 DUP3 DIV SWAP1 POP PUSH1 0x1 DUP3 AND DUP1 PUSH2 0x61B JUMPI PUSH1 0x7F DUP3 AND SWAP2 POP JUMPDEST PUSH1 0x20 DUP3 LT DUP2 SUB PUSH2 0x62E JUMPI PUSH2 0x62D PUSH2 0x5D4 JUMP JUMPDEST JUMPDEST POP SWAP2 SWAP1 POP JUMP JUMPDEST PUSH1 0x0 DUP2 SWAP1 POP DUP2 PUSH1 0x0 MSTORE PUSH1 0x20 PUSH1 0x0 KECCAK256 SWAP1 POP SWAP2 SWAP1 POP JUMP JUMPDEST PUSH1 0x0 PUSH1 0x20 PUSH1 0x1F DUP4 ADD DIV SWAP1 POP SWAP2 SWAP1 POP JUMP JUMPDEST PUSH1 0x0 DUP3 DUP3 SHL SWAP1 POP SWAP3 SWAP2 POP POP JUMP JUMPDEST PUSH1 0x0 PUSH1 0x8 DUP4 MUL PUSH2 0x696 PUSH32 0xFFFFFFFFFFFFFFFFFFFFFFFFFFFFFFFFFFFFFFFFFFFFFFFFFFFFFFFFFFFFFFFF DUP3 PUSH2 0x659 JUMP JUMPDEST PUSH2 0x6A0 DUP7 DUP4 PUSH2 0x659 JUMP JUMPDEST SWAP6 POP DUP1 NOT DUP5 AND SWAP4 POP DUP1 DUP7 AND DUP5 OR SWAP3 POP POP POP SWAP4 SWAP3 POP POP POP JUMP JUMPDEST PUSH1 0x0 DUP2 SWAP1 POP SWAP2 SWAP1 POP JUMP JUMPDEST PUSH1 0x0 PUSH2 0x6DD PUSH2 0x6D8 PUSH2 0x6D3 DUP5 PUSH2 0x299 JUMP JUMPDEST PUSH2 0x6B8 JUMP JUMPDEST PUSH2 0x299 JUMP JUMPDEST SWAP1 POP SWAP2 SWAP1 POP JUMP JUMPDEST PUSH1 0x0 DUP2 SWAP1 POP SWAP2 SWAP1 POP JUMP JUMPDEST PUSH2 0x6F7 DUP4 PUSH2 0x6C2 JUMP JUMPDEST PUSH2 0x70B PUSH2 0x703 DUP3 PUSH2 0x6E4 JUMP JUMPDEST DUP5 DUP5 SLOAD PUSH2 0x666 JUMP JUMPDEST DUP3 SSTORE POP POP POP POP JUMP JUMPDEST PUSH1 0x0 SWAP1 JUMP JUMPDEST PUSH2 0x720 PUSH2 0x713 JUMP JUMPDEST PUSH2 0x72B DUP2 DUP5 DUP5 PUSH2 0x6EE JUMP JUMPDEST POP POP POP JUMP JUMPDEST JUMPDEST DUP2 DUP2 LT ISZERO PUSH2 0x74F JUMPI PUSH2 0x744 PUSH1 0x0 DUP3 PUSH2 0x718 JUMP JUMPDEST PUSH1 0x1 DUP2 ADD SWAP1 POP PUSH2 0x731 JUMP JUMPDEST POP POP JUMP JUMPDEST PUSH1 0x1F DUP3 GT ISZERO PUSH2 0x794 JUMPI PUSH2 0x765 DUP2 PUSH2 0x634 JUMP JUMPDEST PUSH2 0x76E DUP5 PUSH2 0x649 JUMP JUMPDEST DUP2 ADD PUSH1 0x20 DUP6 LT ISZERO PUSH2 0x77D JUMPI DUP2 SWAP1 POP JUMPDEST PUSH2 0x791 PUSH2 0x789 DUP6 PUSH2 0x649 JUMP JUMPDEST DUP4 ADD DUP3 PUSH2 0x730 JUMP JUMPDEST POP POP JUMPDEST POP POP POP JUMP JUMPDEST PUSH1 0x0 DUP3 DUP3 SHR SWAP1 POP SWAP3 SWAP2 POP POP JUMP JUMPDEST PUSH1 0x0 PUSH2 0x7B7 PUSH1 0x0 NOT DUP5 PUSH1 0x8 MUL PUSH2 0x799 JUMP JUMPDEST NOT DUP1 DUP4 AND SWAP2 POP POP SWAP3 SWAP2 POP POP JUMP JUMPDEST PUSH1 0x0 PUSH2 0x7D0 DUP4 DUP4 PUSH2 0x7A6 JUMP JUMPDEST SWAP2 POP DUP3 PUSH1 0x2 MUL DUP3 OR SWAP1 POP SWAP3 SWAP2 POP POP JUMP JUMPDEST PUSH2 0x7E9 DUP3 PUSH2 0x525 JUMP JUMPDEST PUSH8 0xFFFFFFFFFFFFFFFF DUP2 GT ISZERO PUSH2 0x802 JUMPI PUSH2 0x801 PUSH2 0x355 JUMP JUMPDEST JUMPDEST PUSH2 0x80C DUP3 SLOAD PUSH2 0x603 JUMP JUMPDEST PUSH2 0x817 DUP3 DUP3 DUP6 PUSH2 0x753 JUMP JUMPDEST PUSH1 0x0 PUSH1 0x20 SWAP1 POP PUSH1 0x1F DUP4 GT PUSH1 0x1 DUP2 EQ PUSH2 0x84A JUMPI PUSH1 0x0 DUP5 ISZERO PUSH2 0x838 JUMPI DUP3 DUP8 ADD MLOAD SWAP1 POP JUMPDEST PUSH2 0x842 DUP6 DUP3 PUSH2 0x7C4 JUMP JUMPDEST DUP7 SSTORE POP PUSH2 0x8AA JUMP JUMPDEST PUSH1 0x1F NOT DUP5 AND PUSH2 0x858 DUP7 PUSH2 0x634 JUMP JUMPDEST PUSH1 0x0 JUMPDEST DUP3 DUP2 LT ISZERO PUSH2 0x880 JUMPI DUP5 DUP10 ADD MLOAD DUP3 SSTORE PUSH1 0x1 DUP3 ADD SWAP2 POP PUSH1 0x20 DUP6 ADD SWAP5 POP PUSH1 0x20 DUP2 ADD SWAP1 POP PUSH2 0x85B JUMP JUMPDEST DUP7 DUP4 LT ISZERO PUSH2 0x89D JUMPI DUP5 DUP10 ADD MLOAD PUSH2 0x899 PUSH1 0x1F DUP10 AND DUP3 PUSH2 0x7A6 JUMP JUMPDEST DUP4 SSTORE POP JUMPDEST PUSH1 0x1 PUSH1 0x2 DUP9 MUL ADD DUP9 SSTORE POP POP POP JUMPDEST POP POP POP POP POP POP JUMP JUMPDEST PUSH1 0x0 DUP2 SWAP1 POP SWAP3 SWAP2 POP POP JUMP JUMPDEST PUSH1 0x0 PUSH2 0x8C8 DUP3 PUSH2 0x525 JUMP JUMPDEST PUSH2 0x8D2 DUP2 DUP6 PUSH2 0x8B2 JUMP JUMPDEST SWAP4 POP PUSH2 0x8E2 DUP2 DUP6 PUSH1 0x20 DUP7 ADD PUSH2 0x541 JUMP JUMPDEST DUP1 DUP5 ADD SWAP2 POP POP SWAP3 SWAP2 POP POP JUMP JUMPDEST PUSH1 0x0 PUSH2 0x8FA DUP3 DUP5 PUSH2 0x8BD JUMP JUMPDEST SWAP2 POP DUP2 SWAP1 POP SWAP3 SWAP2 POP POP JUMP INVALID LOG2 PUSH5 0x6970667358 0x22 SLT KECCAK256 SWAP14 SELFBALANCE PUSH14 0x238E100AC82DD5C173EE2418F839 DUP8 0x27 0xD5 DUP14 CREATE2 SWAP14 GASPRICE SWAP11 0xBF DUP9 0xEB SWAP12 SIGNEXTEND 0x5E PUSH14 0x64736F6C63430008100033A26469 PUSH17 0x6673582212204BE9C6CEE7D7D295025B27 0x28 PUSH24 0xC8F6694F9939CB27CCC3EA7C48CC13F513663264736F6C63 NUMBER STOP ADDMOD LT STOP CALLER "
		},
		"gasEstimates": {
			"creation": {
				"codeDepositCost": "745800",
				"executionCost": "779",
				"totalCost": "746579"
			},
			"external": {
				"createSimpleStorageContract()": "infinite",
				"sfGet(uint256)": "infinite",
				"sfstore(uint256,uint256)": "infinite",
				"simpleStorageArray(uint256)": "infinite"
			}
		},
		"methodIdentifiers": {
			"createSimpleStorageContract()": "1dda6541",
			"sfGet(uint256)": "c5f19c20",
			"sfstore(uint256,uint256)": "caec2a5a",
			"simpleStorageArray(uint256)": "64591bf1"
		}
	},
	"abi": [
		{
			"inputs": [],
			"name": "createSimpleStorageContract",
			"outputs": [],
			"stateMutability": "nonpayable",
			"type": "function"
		},
		{
			"inputs": [
				{
					"internalType": "uint256",
					"name": "_simpleStorageIndex",
					"type": "uint256"
				}
			],
			"name": "sfGet",
			"outputs": [
				{
					"internalType": "uint256",
					"name": "",
					"type": "uint256"
				}
			],
			"stateMutability": "view",
			"type": "function"
		},
		{
			"inputs": [
				{
					"internalType": "uint256",
					"name": "_simpleStorageIndex",
					"type": "uint256"
				},
				{
					"internalType": "uint256",
					"name": "_simpleStorageNumber",
					"type": "uint256"
				}
			],
			"name": "sfstore",
			"outputs": [],
			"stateMutability": "nonpayable",
			"type": "function"
		},
		{
			"inputs": [
				{
					"internalType": "uint256",
					"name": "",
					"type": "uint256"
				}
			],
			"name": "simpleStorageArray",
			"outputs": [
				{
					"internalType": "contract SimpleStorage",
					"name": "",
					"type": "address"
				}
			],
			"stateMutability": "view",
			"type": "function"
		}
	]
}