{
	"project_0x00/mycontract.sol": {
		"mycontract": {
			"abi": [
				{
					"inputs": [
						{
							"internalType": "uint256[]",
							"name": "ta",
							"type": "uint256[]"
						}
					],
					"name": "foo",
					"outputs": [],
					"stateMutability": "pure",
					"type": "function"
				},
				{
					"inputs": [],
					"name": "getvalue",
					"outputs": [
						{
							"internalType": "uint256",
							"name": "",
							"type": "uint256"
						}
					],
					"stateMutability": "view",
					"type": "function"
				},
				{
					"inputs": [
						{
							"internalType": "uint256",
							"name": "_value",
							"type": "uint256"
						}
					],
					"name": "setvalue",
					"outputs": [],
					"stateMutability": "nonpayable",
					"type": "function"
				}
			],
			"devdoc": {
				"kind": "dev",
				"methods": {},
				"version": 1
			},
			"evm": {
				"assembly": "    /* \"project_0x00/mycontract.sol\":61:636  contract mycontract {... */\n  mstore(0x40, 0x80)\n  callvalue\n  dup1\n  iszero\n  tag_1\n  jumpi\n  0x00\n  dup1\n  revert\ntag_1:\n  pop\n  dataSize(sub_0)\n  dup1\n  dataOffset(sub_0)\n  0x00\n  codecopy\n  0x00\n  return\nstop\n\nsub_0: assembly {\n        /* \"project_0x00/mycontract.sol\":61:636  contract mycontract {... */\n      mstore(0x40, 0x80)\n      callvalue\n      dup1\n      iszero\n      tag_1\n      jumpi\n      0x00\n      dup1\n      revert\n    tag_1:\n      pop\n      jumpi(tag_2, lt(calldatasize, 0x04))\n      shr(0xe0, calldataload(0x00))\n      dup1\n      0x0b4745ec\n      eq\n      tag_3\n      jumpi\n      dup1\n      0x69bd01c4\n      eq\n      tag_4\n      jumpi\n      dup1\n      0x8b44cef1\n      eq\n      tag_5\n      jumpi\n    tag_2:\n      0x00\n      dup1\n      revert\n        /* \"project_0x00/mycontract.sol\":345:575  function setvalue(uint _value) external { //no return required from this fn... */\n    tag_3:\n      tag_6\n      0x04\n      dup1\n      calldatasize\n      sub\n      dup2\n      add\n      swap1\n      tag_7\n      swap2\n      swap1\n      tag_8\n      jump\t// in\n    tag_7:\n      tag_9\n      jump\t// in\n    tag_6:\n      stop\n        /* \"project_0x00/mycontract.sol\":143:264  function getvalue() external view returns(uint) { // 'view' keyword makes this fn read only... */\n    tag_4:\n      tag_10\n      tag_11\n      jump\t// in\n    tag_10:\n      mload(0x40)\n      tag_12\n      swap2\n      swap1\n      tag_13\n      jump\t// in\n    tag_12:\n      mload(0x40)\n      dup1\n      swap2\n      sub\n      swap1\n      return\n        /* \"project_0x00/mycontract.sol\":583:631  function foo(uint[] calldata ta) external pure{} */\n    tag_5:\n      tag_14\n      0x04\n      dup1\n      calldatasize\n      sub\n      dup2\n      add\n      swap1\n      tag_15\n      swap2\n      swap1\n      tag_16\n      jump\t// in\n    tag_15:\n      tag_17\n      jump\t// in\n    tag_14:\n      stop\n        /* \"project_0x00/mycontract.sol\":345:575  function setvalue(uint _value) external { //no return required from this fn... */\n    tag_9:\n        /* \"project_0x00/mycontract.sol\":438:444  _value */\n      dup1\n        /* \"project_0x00/mycontract.sol\":430:435  value */\n      0x00\n        /* \"project_0x00/mycontract.sol\":430:444  value = _value */\n      dup2\n      swap1\n      sstore\n      pop\n        /* \"project_0x00/mycontract.sol\":455:472  uint[] memory tax */\n      0x00\n        /* \"project_0x00/mycontract.sol\":486:487  3 */\n      0x03\n        /* \"project_0x00/mycontract.sol\":475:488  new uint[](3) */\n      0xffffffffffffffff\n      dup2\n      gt\n      iszero\n      tag_19\n      jumpi\n      tag_20\n      tag_21\n      jump\t// in\n    tag_20:\n    tag_19:\n      mload(0x40)\n      swap1\n      dup1\n      dup3\n      mstore\n      dup1\n      0x20\n      mul\n      0x20\n      add\n      dup3\n      add\n      0x40\n      mstore\n      dup1\n      iszero\n      tag_22\n      jumpi\n      dup2\n      0x20\n      add\n      0x20\n      dup3\n      mul\n      dup1\n      calldatasize\n      dup4\n      calldatacopy\n      dup1\n      dup3\n      add\n      swap2\n      pop\n      pop\n      swap1\n      pop\n    tag_22:\n      pop\n        /* \"project_0x00/mycontract.sol\":455:488  uint[] memory tax = new uint[](3) */\n      swap1\n      pop\n        /* \"project_0x00/mycontract.sol\":510:512  10 */\n      0x0a\n        /* \"project_0x00/mycontract.sol\":501:504  tax */\n      dup2\n        /* \"project_0x00/mycontract.sol\":505:506  1 */\n      0x01\n        /* \"project_0x00/mycontract.sol\":501:507  tax[1] */\n      dup2\n      mload\n      dup2\n      lt\n      tag_23\n      jumpi\n      tag_24\n      tag_25\n      jump\t// in\n    tag_24:\n    tag_23:\n      0x20\n      mul\n      0x20\n      add\n      add\n        /* \"project_0x00/mycontract.sol\":501:512  tax[1] = 10 */\n      dup2\n      dup2\n      mstore\n      pop\n      pop\n        /* \"project_0x00/mycontract.sol\":523:528  array */\n      0x01\n        /* \"project_0x00/mycontract.sol\":534:535  1 */\n      dup1\n        /* \"project_0x00/mycontract.sol\":523:536  array.push(1) */\n      dup1\n      0x01\n      dup2\n      sload\n      add\n      dup1\n      dup3\n      sstore\n      dup1\n      swap2\n      pop\n      pop\n      0x01\n      swap1\n      sub\n      swap1\n      0x00\n      mstore\n      keccak256(0x00, 0x20)\n      add\n      0x00\n      swap1\n      swap2\n      swap1\n      swap2\n      swap1\n      swap2\n      pop\n      sstore\n        /* \"project_0x00/mycontract.sol\":547:552  array */\n      0x01\n        /* \"project_0x00/mycontract.sol\":558:560  11 */\n      0x0b\n        /* \"project_0x00/mycontract.sol\":547:561  array.push(11) */\n      swap1\n      dup1\n      0x01\n      dup2\n      sload\n      add\n      dup1\n      dup3\n      sstore\n      dup1\n      swap2\n      pop\n      pop\n      0x01\n      swap1\n      sub\n      swap1\n      0x00\n      mstore\n      keccak256(0x00, 0x20)\n      add\n      0x00\n      swap1\n      swap2\n      swap1\n      swap2\n      swap1\n      swap2\n      pop\n      sstore\n        /* \"project_0x00/mycontract.sol\":385:575  { //no return required from this fn... */\n      pop\n        /* \"project_0x00/mycontract.sol\":345:575  function setvalue(uint _value) external { //no return required from this fn... */\n      pop\n      jump\t// out\n        /* \"project_0x00/mycontract.sol\":143:264  function getvalue() external view returns(uint) { // 'view' keyword makes this fn read only... */\n    tag_11:\n        /* \"project_0x00/mycontract.sol\":185:189  uint */\n      0x00\n        /* \"project_0x00/mycontract.sol\":251:256  value */\n      dup1\n      sload\n        /* \"project_0x00/mycontract.sol\":244:256  return value */\n      swap1\n      pop\n        /* \"project_0x00/mycontract.sol\":143:264  function getvalue() external view returns(uint) { // 'view' keyword makes this fn read only... */\n      swap1\n      jump\t// out\n        /* \"project_0x00/mycontract.sol\":583:631  function foo(uint[] calldata ta) external pure{} */\n    tag_17:\n      pop\n      pop\n      jump\t// out\n        /* \"#utility.yul\":88:205   */\n    tag_31:\n        /* \"#utility.yul\":197:198   */\n      0x00\n        /* \"#utility.yul\":194:195   */\n      dup1\n        /* \"#utility.yul\":187:199   */\n      revert\n        /* \"#utility.yul\":211:328   */\n    tag_32:\n        /* \"#utility.yul\":320:321   */\n      0x00\n        /* \"#utility.yul\":317:318   */\n      dup1\n        /* \"#utility.yul\":310:322   */\n      revert\n        /* \"#utility.yul\":334:411   */\n    tag_33:\n        /* \"#utility.yul\":371:378   */\n      0x00\n        /* \"#utility.yul\":400:405   */\n      dup2\n        /* \"#utility.yul\":389:405   */\n      swap1\n      pop\n        /* \"#utility.yul\":334:411   */\n      swap2\n      swap1\n      pop\n      jump\t// out\n        /* \"#utility.yul\":417:539   */\n    tag_34:\n        /* \"#utility.yul\":490:514   */\n      tag_47\n        /* \"#utility.yul\":508:513   */\n      dup2\n        /* \"#utility.yul\":490:514   */\n      tag_33\n      jump\t// in\n    tag_47:\n        /* \"#utility.yul\":483:488   */\n      dup2\n        /* \"#utility.yul\":480:515   */\n      eq\n        /* \"#utility.yul\":470:533   */\n      tag_48\n      jumpi\n        /* \"#utility.yul\":529:530   */\n      0x00\n        /* \"#utility.yul\":526:527   */\n      dup1\n        /* \"#utility.yul\":519:531   */\n      revert\n        /* \"#utility.yul\":470:533   */\n    tag_48:\n        /* \"#utility.yul\":417:539   */\n      pop\n      jump\t// out\n        /* \"#utility.yul\":545:684   */\n    tag_35:\n        /* \"#utility.yul\":591:596   */\n      0x00\n        /* \"#utility.yul\":629:635   */\n      dup2\n        /* \"#utility.yul\":616:636   */\n      calldataload\n        /* \"#utility.yul\":607:636   */\n      swap1\n      pop\n        /* \"#utility.yul\":645:678   */\n      tag_50\n        /* \"#utility.yul\":672:677   */\n      dup2\n        /* \"#utility.yul\":645:678   */\n      tag_34\n      jump\t// in\n    tag_50:\n        /* \"#utility.yul\":545:684   */\n      swap3\n      swap2\n      pop\n      pop\n      jump\t// out\n        /* \"#utility.yul\":690:1019   */\n    tag_8:\n        /* \"#utility.yul\":749:755   */\n      0x00\n        /* \"#utility.yul\":798:800   */\n      0x20\n        /* \"#utility.yul\":786:795   */\n      dup3\n        /* \"#utility.yul\":777:784   */\n      dup5\n        /* \"#utility.yul\":773:796   */\n      sub\n        /* \"#utility.yul\":769:801   */\n      slt\n        /* \"#utility.yul\":766:885   */\n      iszero\n      tag_52\n      jumpi\n        /* \"#utility.yul\":804:883   */\n      tag_53\n      tag_31\n      jump\t// in\n    tag_53:\n        /* \"#utility.yul\":766:885   */\n    tag_52:\n        /* \"#utility.yul\":924:925   */\n      0x00\n        /* \"#utility.yul\":949:1002   */\n      tag_54\n        /* \"#utility.yul\":994:1001   */\n      dup5\n        /* \"#utility.yul\":985:991   */\n      dup3\n        /* \"#utility.yul\":974:983   */\n      dup6\n        /* \"#utility.yul\":970:992   */\n      add\n        /* \"#utility.yul\":949:1002   */\n      tag_35\n      jump\t// in\n    tag_54:\n        /* \"#utility.yul\":939:1002   */\n      swap2\n      pop\n        /* \"#utility.yul\":895:1012   */\n      pop\n        /* \"#utility.yul\":690:1019   */\n      swap3\n      swap2\n      pop\n      pop\n      jump\t// out\n        /* \"#utility.yul\":1025:1143   */\n    tag_36:\n        /* \"#utility.yul\":1112:1136   */\n      tag_56\n        /* \"#utility.yul\":1130:1135   */\n      dup2\n        /* \"#utility.yul\":1112:1136   */\n      tag_33\n      jump\t// in\n    tag_56:\n        /* \"#utility.yul\":1107:1110   */\n      dup3\n        /* \"#utility.yul\":1100:1137   */\n      mstore\n        /* \"#utility.yul\":1025:1143   */\n      pop\n      pop\n      jump\t// out\n        /* \"#utility.yul\":1149:1371   */\n    tag_13:\n        /* \"#utility.yul\":1242:1246   */\n      0x00\n        /* \"#utility.yul\":1280:1282   */\n      0x20\n        /* \"#utility.yul\":1269:1278   */\n      dup3\n        /* \"#utility.yul\":1265:1283   */\n      add\n        /* \"#utility.yul\":1257:1283   */\n      swap1\n      pop\n        /* \"#utility.yul\":1293:1364   */\n      tag_58\n        /* \"#utility.yul\":1361:1362   */\n      0x00\n        /* \"#utility.yul\":1350:1359   */\n      dup4\n        /* \"#utility.yul\":1346:1363   */\n      add\n        /* \"#utility.yul\":1337:1343   */\n      dup5\n        /* \"#utility.yul\":1293:1364   */\n      tag_36\n      jump\t// in\n    tag_58:\n        /* \"#utility.yul\":1149:1371   */\n      swap3\n      swap2\n      pop\n      pop\n      jump\t// out\n        /* \"#utility.yul\":1377:1494   */\n    tag_37:\n        /* \"#utility.yul\":1486:1487   */\n      0x00\n        /* \"#utility.yul\":1483:1484   */\n      dup1\n        /* \"#utility.yul\":1476:1488   */\n      revert\n        /* \"#utility.yul\":1500:1617   */\n    tag_38:\n        /* \"#utility.yul\":1609:1610   */\n      0x00\n        /* \"#utility.yul\":1606:1607   */\n      dup1\n        /* \"#utility.yul\":1599:1611   */\n      revert\n        /* \"#utility.yul\":1623:1740   */\n    tag_39:\n        /* \"#utility.yul\":1732:1733   */\n      0x00\n        /* \"#utility.yul\":1729:1730   */\n      dup1\n        /* \"#utility.yul\":1722:1734   */\n      revert\n        /* \"#utility.yul\":1763:2331   */\n    tag_40:\n        /* \"#utility.yul\":1836:1844   */\n      0x00\n        /* \"#utility.yul\":1846:1852   */\n      dup1\n        /* \"#utility.yul\":1896:1899   */\n      dup4\n        /* \"#utility.yul\":1889:1893   */\n      0x1f\n        /* \"#utility.yul\":1881:1887   */\n      dup5\n        /* \"#utility.yul\":1877:1894   */\n      add\n        /* \"#utility.yul\":1873:1900   */\n      slt\n        /* \"#utility.yul\":1863:1985   */\n      tag_63\n      jumpi\n        /* \"#utility.yul\":1904:1983   */\n      tag_64\n      tag_37\n      jump\t// in\n    tag_64:\n        /* \"#utility.yul\":1863:1985   */\n    tag_63:\n        /* \"#utility.yul\":2017:2023   */\n      dup3\n        /* \"#utility.yul\":2004:2024   */\n      calldataload\n        /* \"#utility.yul\":1994:2024   */\n      swap1\n      pop\n        /* \"#utility.yul\":2047:2065   */\n      0xffffffffffffffff\n        /* \"#utility.yul\":2039:2045   */\n      dup2\n        /* \"#utility.yul\":2036:2066   */\n      gt\n        /* \"#utility.yul\":2033:2150   */\n      iszero\n      tag_65\n      jumpi\n        /* \"#utility.yul\":2069:2148   */\n      tag_66\n      tag_38\n      jump\t// in\n    tag_66:\n        /* \"#utility.yul\":2033:2150   */\n    tag_65:\n        /* \"#utility.yul\":2183:2187   */\n      0x20\n        /* \"#utility.yul\":2175:2181   */\n      dup4\n        /* \"#utility.yul\":2171:2188   */\n      add\n        /* \"#utility.yul\":2159:2188   */\n      swap2\n      pop\n        /* \"#utility.yul\":2237:2240   */\n      dup4\n        /* \"#utility.yul\":2229:2233   */\n      0x20\n        /* \"#utility.yul\":2221:2227   */\n      dup3\n        /* \"#utility.yul\":2217:2234   */\n      mul\n        /* \"#utility.yul\":2207:2215   */\n      dup4\n        /* \"#utility.yul\":2203:2235   */\n      add\n        /* \"#utility.yul\":2200:2241   */\n      gt\n        /* \"#utility.yul\":2197:2325   */\n      iszero\n      tag_67\n      jumpi\n        /* \"#utility.yul\":2244:2323   */\n      tag_68\n      tag_39\n      jump\t// in\n    tag_68:\n        /* \"#utility.yul\":2197:2325   */\n    tag_67:\n        /* \"#utility.yul\":1763:2331   */\n      swap3\n      pop\n      swap3\n      swap1\n      pop\n      jump\t// out\n        /* \"#utility.yul\":2337:2896   */\n    tag_16:\n        /* \"#utility.yul\":2423:2429   */\n      0x00\n        /* \"#utility.yul\":2431:2437   */\n      dup1\n        /* \"#utility.yul\":2480:2482   */\n      0x20\n        /* \"#utility.yul\":2468:2477   */\n      dup4\n        /* \"#utility.yul\":2459:2466   */\n      dup6\n        /* \"#utility.yul\":2455:2478   */\n      sub\n        /* \"#utility.yul\":2451:2483   */\n      slt\n        /* \"#utility.yul\":2448:2567   */\n      iszero\n      tag_70\n      jumpi\n        /* \"#utility.yul\":2486:2565   */\n      tag_71\n      tag_31\n      jump\t// in\n    tag_71:\n        /* \"#utility.yul\":2448:2567   */\n    tag_70:\n        /* \"#utility.yul\":2634:2635   */\n      0x00\n        /* \"#utility.yul\":2623:2632   */\n      dup4\n        /* \"#utility.yul\":2619:2636   */\n      add\n        /* \"#utility.yul\":2606:2637   */\n      calldataload\n        /* \"#utility.yul\":2664:2682   */\n      0xffffffffffffffff\n        /* \"#utility.yul\":2656:2662   */\n      dup2\n        /* \"#utility.yul\":2653:2683   */\n      gt\n        /* \"#utility.yul\":2650:2767   */\n      iszero\n      tag_72\n      jumpi\n        /* \"#utility.yul\":2686:2765   */\n      tag_73\n      tag_32\n      jump\t// in\n    tag_73:\n        /* \"#utility.yul\":2650:2767   */\n    tag_72:\n        /* \"#utility.yul\":2799:2879   */\n      tag_74\n        /* \"#utility.yul\":2871:2878   */\n      dup6\n        /* \"#utility.yul\":2862:2868   */\n      dup3\n        /* \"#utility.yul\":2851:2860   */\n      dup7\n        /* \"#utility.yul\":2847:2869   */\n      add\n        /* \"#utility.yul\":2799:2879   */\n      tag_40\n      jump\t// in\n    tag_74:\n        /* \"#utility.yul\":2781:2879   */\n      swap3\n      pop\n      swap3\n      pop\n        /* \"#utility.yul\":2577:2889   */\n      pop\n        /* \"#utility.yul\":2337:2896   */\n      swap3\n      pop\n      swap3\n      swap1\n      pop\n      jump\t// out\n        /* \"#utility.yul\":2902:3082   */\n    tag_21:\n        /* \"#utility.yul\":2950:3027   */\n      0x4e487b7100000000000000000000000000000000000000000000000000000000\n        /* \"#utility.yul\":2947:2948   */\n      0x00\n        /* \"#utility.yul\":2940:3028   */\n      mstore\n        /* \"#utility.yul\":3047:3051   */\n      0x41\n        /* \"#utility.yul\":3044:3045   */\n      0x04\n        /* \"#utility.yul\":3037:3052   */\n      mstore\n        /* \"#utility.yul\":3071:3075   */\n      0x24\n        /* \"#utility.yul\":3068:3069   */\n      0x00\n        /* \"#utility.yul\":3061:3076   */\n      revert\n        /* \"#utility.yul\":3088:3268   */\n    tag_25:\n        /* \"#utility.yul\":3136:3213   */\n      0x4e487b7100000000000000000000000000000000000000000000000000000000\n        /* \"#utility.yul\":3133:3134   */\n      0x00\n        /* \"#utility.yul\":3126:3214   */\n      mstore\n        /* \"#utility.yul\":3233:3237   */\n      0x32\n        /* \"#utility.yul\":3230:3231   */\n      0x04\n        /* \"#utility.yul\":3223:3238   */\n      mstore\n        /* \"#utility.yul\":3257:3261   */\n      0x24\n        /* \"#utility.yul\":3254:3255   */\n      0x00\n        /* \"#utility.yul\":3247:3262   */\n      revert\n\n    auxdata: 0xa2646970667358221220616ba7985d67455d3a45ee7d9f1496f369d205d3d60d750e0589e65b16df194c64736f6c63430008100033\n}\n",
				"bytecode": {
					"linkReferences": {},
					"object": "608060405234801561001057600080fd5b50610353806100206000396000f3fe608060405234801561001057600080fd5b50600436106100415760003560e01c80630b4745ec1461004657806369bd01c4146100625780638b44cef114610080575b600080fd5b610060600480360381019061005b91906101b6565b61009c565b005b61006a610169565b60405161007791906101f2565b60405180910390f35b61009a60048036038101906100959190610272565b610172565b005b806000819055506000600367ffffffffffffffff8111156100c0576100bf6102bf565b5b6040519080825280602002602001820160405280156100ee5781602001602082028036833780820191505090505b509050600a81600181518110610107576101066102ee565b5b602002602001018181525050600180806001815401808255809150506001900390600052602060002001600090919091909150556001600b90806001815401808255809150506001900390600052602060002001600090919091909150555050565b60008054905090565b5050565b600080fd5b600080fd5b6000819050919050565b61019381610180565b811461019e57600080fd5b50565b6000813590506101b08161018a565b92915050565b6000602082840312156101cc576101cb610176565b5b60006101da848285016101a1565b91505092915050565b6101ec81610180565b82525050565b600060208201905061020760008301846101e3565b92915050565b600080fd5b600080fd5b600080fd5b60008083601f8401126102325761023161020d565b5b8235905067ffffffffffffffff81111561024f5761024e610212565b5b60208301915083602082028301111561026b5761026a610217565b5b9250929050565b6000806020838503121561028957610288610176565b5b600083013567ffffffffffffffff8111156102a7576102a661017b565b5b6102b38582860161021c565b92509250509250929050565b7f4e487b7100000000000000000000000000000000000000000000000000000000600052604160045260246000fd5b7f4e487b7100000000000000000000000000000000000000000000000000000000600052603260045260246000fdfea2646970667358221220616ba7985d67455d3a45ee7d9f1496f369d205d3d60d750e0589e65b16df194c64736f6c63430008100033",
					"opcodes": "PUSH1 0x80 PUSH1 0x40 MSTORE CALLVALUE DUP1 ISZERO PUSH2 0x10 JUMPI PUSH1 0x0 DUP1 REVERT JUMPDEST POP PUSH2 0x353 DUP1 PUSH2 0x20 PUSH1 0x0 CODECOPY PUSH1 0x0 RETURN INVALID PUSH1 0x80 PUSH1 0x40 MSTORE CALLVALUE DUP1 ISZERO PUSH2 0x10 JUMPI PUSH1 0x0 DUP1 REVERT JUMPDEST POP PUSH1 0x4 CALLDATASIZE LT PUSH2 0x41 JUMPI PUSH1 0x0 CALLDATALOAD PUSH1 0xE0 SHR DUP1 PUSH4 0xB4745EC EQ PUSH2 0x46 JUMPI DUP1 PUSH4 0x69BD01C4 EQ PUSH2 0x62 JUMPI DUP1 PUSH4 0x8B44CEF1 EQ PUSH2 0x80 JUMPI JUMPDEST PUSH1 0x0 DUP1 REVERT JUMPDEST PUSH2 0x60 PUSH1 0x4 DUP1 CALLDATASIZE SUB DUP2 ADD SWAP1 PUSH2 0x5B SWAP2 SWAP1 PUSH2 0x1B6 JUMP JUMPDEST PUSH2 0x9C JUMP JUMPDEST STOP JUMPDEST PUSH2 0x6A PUSH2 0x169 JUMP JUMPDEST PUSH1 0x40 MLOAD PUSH2 0x77 SWAP2 SWAP1 PUSH2 0x1F2 JUMP JUMPDEST PUSH1 0x40 MLOAD DUP1 SWAP2 SUB SWAP1 RETURN JUMPDEST PUSH2 0x9A PUSH1 0x4 DUP1 CALLDATASIZE SUB DUP2 ADD SWAP1 PUSH2 0x95 SWAP2 SWAP1 PUSH2 0x272 JUMP JUMPDEST PUSH2 0x172 JUMP JUMPDEST STOP JUMPDEST DUP1 PUSH1 0x0 DUP2 SWAP1 SSTORE POP PUSH1 0x0 PUSH1 0x3 PUSH8 0xFFFFFFFFFFFFFFFF DUP2 GT ISZERO PUSH2 0xC0 JUMPI PUSH2 0xBF PUSH2 0x2BF JUMP JUMPDEST JUMPDEST PUSH1 0x40 MLOAD SWAP1 DUP1 DUP3 MSTORE DUP1 PUSH1 0x20 MUL PUSH1 0x20 ADD DUP3 ADD PUSH1 0x40 MSTORE DUP1 ISZERO PUSH2 0xEE JUMPI DUP2 PUSH1 0x20 ADD PUSH1 0x20 DUP3 MUL DUP1 CALLDATASIZE DUP4 CALLDATACOPY DUP1 DUP3 ADD SWAP2 POP POP SWAP1 POP JUMPDEST POP SWAP1 POP PUSH1 0xA DUP2 PUSH1 0x1 DUP2 MLOAD DUP2 LT PUSH2 0x107 JUMPI PUSH2 0x106 PUSH2 0x2EE JUMP JUMPDEST JUMPDEST PUSH1 0x20 MUL PUSH1 0x20 ADD ADD DUP2 DUP2 MSTORE POP POP PUSH1 0x1 DUP1 DUP1 PUSH1 0x1 DUP2 SLOAD ADD DUP1 DUP3 SSTORE DUP1 SWAP2 POP POP PUSH1 0x1 SWAP1 SUB SWAP1 PUSH1 0x0 MSTORE PUSH1 0x20 PUSH1 0x0 KECCAK256 ADD PUSH1 0x0 SWAP1 SWAP2 SWAP1 SWAP2 SWAP1 SWAP2 POP SSTORE PUSH1 0x1 PUSH1 0xB SWAP1 DUP1 PUSH1 0x1 DUP2 SLOAD ADD DUP1 DUP3 SSTORE DUP1 SWAP2 POP POP PUSH1 0x1 SWAP1 SUB SWAP1 PUSH1 0x0 MSTORE PUSH1 0x20 PUSH1 0x0 KECCAK256 ADD PUSH1 0x0 SWAP1 SWAP2 SWAP1 SWAP2 SWAP1 SWAP2 POP SSTORE POP POP JUMP JUMPDEST PUSH1 0x0 DUP1 SLOAD SWAP1 POP SWAP1 JUMP JUMPDEST POP POP JUMP JUMPDEST PUSH1 0x0 DUP1 REVERT JUMPDEST PUSH1 0x0 DUP1 REVERT JUMPDEST PUSH1 0x0 DUP2 SWAP1 POP SWAP2 SWAP1 POP JUMP JUMPDEST PUSH2 0x193 DUP2 PUSH2 0x180 JUMP JUMPDEST DUP2 EQ PUSH2 0x19E JUMPI PUSH1 0x0 DUP1 REVERT JUMPDEST POP JUMP JUMPDEST PUSH1 0x0 DUP2 CALLDATALOAD SWAP1 POP PUSH2 0x1B0 DUP2 PUSH2 0x18A JUMP JUMPDEST SWAP3 SWAP2 POP POP JUMP JUMPDEST PUSH1 0x0 PUSH1 0x20 DUP3 DUP5 SUB SLT ISZERO PUSH2 0x1CC JUMPI PUSH2 0x1CB PUSH2 0x176 JUMP JUMPDEST JUMPDEST PUSH1 0x0 PUSH2 0x1DA DUP5 DUP3 DUP6 ADD PUSH2 0x1A1 JUMP JUMPDEST SWAP2 POP POP SWAP3 SWAP2 POP POP JUMP JUMPDEST PUSH2 0x1EC DUP2 PUSH2 0x180 JUMP JUMPDEST DUP3 MSTORE POP POP JUMP JUMPDEST PUSH1 0x0 PUSH1 0x20 DUP3 ADD SWAP1 POP PUSH2 0x207 PUSH1 0x0 DUP4 ADD DUP5 PUSH2 0x1E3 JUMP JUMPDEST SWAP3 SWAP2 POP POP JUMP JUMPDEST PUSH1 0x0 DUP1 REVERT JUMPDEST PUSH1 0x0 DUP1 REVERT JUMPDEST PUSH1 0x0 DUP1 REVERT JUMPDEST PUSH1 0x0 DUP1 DUP4 PUSH1 0x1F DUP5 ADD SLT PUSH2 0x232 JUMPI PUSH2 0x231 PUSH2 0x20D JUMP JUMPDEST JUMPDEST DUP3 CALLDATALOAD SWAP1 POP PUSH8 0xFFFFFFFFFFFFFFFF DUP2 GT ISZERO PUSH2 0x24F JUMPI PUSH2 0x24E PUSH2 0x212 JUMP JUMPDEST JUMPDEST PUSH1 0x20 DUP4 ADD SWAP2 POP DUP4 PUSH1 0x20 DUP3 MUL DUP4 ADD GT ISZERO PUSH2 0x26B JUMPI PUSH2 0x26A PUSH2 0x217 JUMP JUMPDEST JUMPDEST SWAP3 POP SWAP3 SWAP1 POP JUMP JUMPDEST PUSH1 0x0 DUP1 PUSH1 0x20 DUP4 DUP6 SUB SLT ISZERO PUSH2 0x289 JUMPI PUSH2 0x288 PUSH2 0x176 JUMP JUMPDEST JUMPDEST PUSH1 0x0 DUP4 ADD CALLDATALOAD PUSH8 0xFFFFFFFFFFFFFFFF DUP2 GT ISZERO PUSH2 0x2A7 JUMPI PUSH2 0x2A6 PUSH2 0x17B JUMP JUMPDEST JUMPDEST PUSH2 0x2B3 DUP6 DUP3 DUP7 ADD PUSH2 0x21C JUMP JUMPDEST SWAP3 POP SWAP3 POP POP SWAP3 POP SWAP3 SWAP1 POP JUMP JUMPDEST PUSH32 0x4E487B7100000000000000000000000000000000000000000000000000000000 PUSH1 0x0 MSTORE PUSH1 0x41 PUSH1 0x4 MSTORE PUSH1 0x24 PUSH1 0x0 REVERT JUMPDEST PUSH32 0x4E487B7100000000000000000000000000000000000000000000000000000000 PUSH1 0x0 MSTORE PUSH1 0x32 PUSH1 0x4 MSTORE PUSH1 0x24 PUSH1 0x0 REVERT INVALID LOG2 PUSH5 0x6970667358 0x22 SLT KECCAK256 PUSH2 0x6BA7 SWAP9 0x5D PUSH8 0x455D3A45EE7D9F14 SWAP7 RETURN PUSH10 0xD205D3D60D750E0589E6 JUMPDEST AND 0xDF NOT 0x4C PUSH5 0x736F6C6343 STOP ADDMOD LT STOP CALLER "
				},
				"gasEstimates": {
					"creation": {
						"codeDepositCost": "170200",
						"executionCost": "214",
						"totalCost": "170414"
					},
					"external": {
						"foo(uint256[])": "496",
						"getvalue()": "2437",
						"setvalue(uint256)": "115590"
					}
				},
				"methodIdentifiers": {
					"foo(uint256[])": "8b44cef1",
					"getvalue()": "69bd01c4",
					"setvalue(uint256)": "0b4745ec"
				}
			},
			"storageLayout": {
				"storage": [
					{
						"astId": 3,
						"contract": "project_0x00/mycontract.sol:mycontract",
						"label": "value",
						"offset": 0,
						"slot": "0",
						"type": "t_uint256"
					},
					{
						"astId": 6,
						"contract": "project_0x00/mycontract.sol:mycontract",
						"label": "array",
						"offset": 0,
						"slot": "1",
						"type": "t_array(t_uint256)dyn_storage"
					}
				],
				"types": {
					"t_array(t_uint256)dyn_storage": {
						"base": "t_uint256",
						"encoding": "dynamic_array",
						"label": "uint256[]",
						"numberOfBytes": "32"
					},
					"t_uint256": {
						"encoding": "inplace",
						"label": "uint256",
						"numberOfBytes": "32"
					}
				}
			},
			"userdoc": {
				"kind": "user",
				"methods": {},
				"version": 1
			}
		}
	}
}