{
	"project_0x00/mycontract3.sol": {
		"mycontract3": {
			"abi": [
				{
					"inputs": [],
					"name": "balance_check",
					"outputs": [
						{
							"internalType": "uint256",
							"name": "",
							"type": "uint256"
						}
					],
					"stateMutability": "view",
					"type": "function"
				},
				{
					"inputs": [],
					"name": "send_ether",
					"outputs": [],
					"stateMutability": "payable",
					"type": "function"
				}
			],
			"devdoc": {
				"kind": "dev",
				"methods": {},
				"version": 1
			},
			"evm": {
				"assembly": "    /* \"project_0x00/mycontract3.sol\":61:506  contract mycontract3{... */\n  mstore(0x40, 0x80)\n  callvalue\n  dup1\n  iszero\n  tag_1\n  jumpi\n  0x00\n  dup1\n  revert\ntag_1:\n  pop\n  dataSize(sub_0)\n  dup1\n  dataOffset(sub_0)\n  0x00\n  codecopy\n  0x00\n  return\nstop\n\nsub_0: assembly {\n        /* \"project_0x00/mycontract3.sol\":61:506  contract mycontract3{... */\n      mstore(0x40, 0x80)\n      jumpi(tag_1, lt(calldatasize, 0x04))\n      shr(0xe0, calldataload(0x00))\n      dup1\n      0x08ab2167\n      eq\n      tag_2\n      jumpi\n      dup1\n      0xd3af2e51\n      eq\n      tag_3\n      jumpi\n    tag_1:\n      0x00\n      dup1\n      revert\n        /* \"project_0x00/mycontract3.sol\":403:503  function balance_check() external view returns(uint) {... */\n    tag_2:\n      callvalue\n      dup1\n      iszero\n      tag_4\n      jumpi\n      0x00\n      dup1\n      revert\n    tag_4:\n      pop\n      tag_5\n      tag_6\n      jump\t// in\n    tag_5:\n      mload(0x40)\n      tag_7\n      swap2\n      swap1\n      tag_8\n      jump\t// in\n    tag_7:\n      mload(0x40)\n      dup1\n      swap2\n      sub\n      swap1\n      return\n        /* \"project_0x00/mycontract3.sol\":139:323  function send_ether() external payable {... */\n    tag_3:\n      tag_9\n      tag_10\n      jump\t// in\n    tag_9:\n      stop\n        /* \"project_0x00/mycontract3.sol\":403:503  function balance_check() external view returns(uint) {... */\n    tag_6:\n        /* \"project_0x00/mycontract3.sol\":450:454  uint */\n      0x00\n        /* \"project_0x00/mycontract3.sol\":474:495  address(this).balance */\n      selfbalance\n        /* \"project_0x00/mycontract3.sol\":467:495  return address(this).balance */\n      swap1\n      pop\n        /* \"project_0x00/mycontract3.sol\":403:503  function balance_check() external view returns(uint) {... */\n      swap1\n      jump\t// out\n        /* \"project_0x00/mycontract3.sol\":139:323  function send_ether() external payable {... */\n    tag_10:\n        /* \"project_0x00/mycontract3.sol\":276:280  1000 */\n      0x03e8\n        /* \"project_0x00/mycontract3.sol\":264:273  msg.value */\n      callvalue\n        /* \"project_0x00/mycontract3.sol\":264:280  msg.value < 1000 */\n      lt\n        /* \"project_0x00/mycontract3.sol\":261:316  if(msg.value < 1000){... */\n      iszero\n      tag_13\n      jumpi\n        /* \"project_0x00/mycontract3.sol\":296:304  revert() */\n      0x00\n      dup1\n      revert\n        /* \"project_0x00/mycontract3.sol\":261:316  if(msg.value < 1000){... */\n    tag_13:\n        /* \"project_0x00/mycontract3.sol\":139:323  function send_ether() external payable {... */\n      jump\t// out\n        /* \"#utility.yul\":7:84   */\n    tag_14:\n        /* \"#utility.yul\":44:51   */\n      0x00\n        /* \"#utility.yul\":73:78   */\n      dup2\n        /* \"#utility.yul\":62:78   */\n      swap1\n      pop\n        /* \"#utility.yul\":7:84   */\n      swap2\n      swap1\n      pop\n      jump\t// out\n        /* \"#utility.yul\":90:208   */\n    tag_15:\n        /* \"#utility.yul\":177:201   */\n      tag_19\n        /* \"#utility.yul\":195:200   */\n      dup2\n        /* \"#utility.yul\":177:201   */\n      tag_14\n      jump\t// in\n    tag_19:\n        /* \"#utility.yul\":172:175   */\n      dup3\n        /* \"#utility.yul\":165:202   */\n      mstore\n        /* \"#utility.yul\":90:208   */\n      pop\n      pop\n      jump\t// out\n        /* \"#utility.yul\":214:436   */\n    tag_8:\n        /* \"#utility.yul\":307:311   */\n      0x00\n        /* \"#utility.yul\":345:347   */\n      0x20\n        /* \"#utility.yul\":334:343   */\n      dup3\n        /* \"#utility.yul\":330:348   */\n      add\n        /* \"#utility.yul\":322:348   */\n      swap1\n      pop\n        /* \"#utility.yul\":358:429   */\n      tag_21\n        /* \"#utility.yul\":426:427   */\n      0x00\n        /* \"#utility.yul\":415:424   */\n      dup4\n        /* \"#utility.yul\":411:428   */\n      add\n        /* \"#utility.yul\":402:408   */\n      dup5\n        /* \"#utility.yul\":358:429   */\n      tag_15\n      jump\t// in\n    tag_21:\n        /* \"#utility.yul\":214:436   */\n      swap3\n      swap2\n      pop\n      pop\n      jump\t// out\n\n    auxdata: 0xa2646970667358221220afc12df9b2e95aa5dbb02636aae318d5790996240daf9bcc56db557757e002fc64736f6c63430008100033\n}\n",
				"bytecode": {
					"linkReferences": {},
					"object": "608060405234801561001057600080fd5b5060d78061001f6000396000f3fe60806040526004361060265760003560e01c806308ab216714602b578063d3af2e51146051575b600080fd5b348015603657600080fd5b50603d6059565b604051604891906088565b60405180910390f35b60576061565b005b600047905090565b6103e8341015606f57600080fd5b565b6000819050919050565b6082816071565b82525050565b6000602082019050609b6000830184607b565b9291505056fea2646970667358221220afc12df9b2e95aa5dbb02636aae318d5790996240daf9bcc56db557757e002fc64736f6c63430008100033",
					"opcodes": "PUSH1 0x80 PUSH1 0x40 MSTORE CALLVALUE DUP1 ISZERO PUSH2 0x10 JUMPI PUSH1 0x0 DUP1 REVERT JUMPDEST POP PUSH1 0xD7 DUP1 PUSH2 0x1F PUSH1 0x0 CODECOPY PUSH1 0x0 RETURN INVALID PUSH1 0x80 PUSH1 0x40 MSTORE PUSH1 0x4 CALLDATASIZE LT PUSH1 0x26 JUMPI PUSH1 0x0 CALLDATALOAD PUSH1 0xE0 SHR DUP1 PUSH4 0x8AB2167 EQ PUSH1 0x2B JUMPI DUP1 PUSH4 0xD3AF2E51 EQ PUSH1 0x51 JUMPI JUMPDEST PUSH1 0x0 DUP1 REVERT JUMPDEST CALLVALUE DUP1 ISZERO PUSH1 0x36 JUMPI PUSH1 0x0 DUP1 REVERT JUMPDEST POP PUSH1 0x3D PUSH1 0x59 JUMP JUMPDEST PUSH1 0x40 MLOAD PUSH1 0x48 SWAP2 SWAP1 PUSH1 0x88 JUMP JUMPDEST PUSH1 0x40 MLOAD DUP1 SWAP2 SUB SWAP1 RETURN JUMPDEST PUSH1 0x57 PUSH1 0x61 JUMP JUMPDEST STOP JUMPDEST PUSH1 0x0 SELFBALANCE SWAP1 POP SWAP1 JUMP JUMPDEST PUSH2 0x3E8 CALLVALUE LT ISZERO PUSH1 0x6F JUMPI PUSH1 0x0 DUP1 REVERT JUMPDEST JUMP JUMPDEST PUSH1 0x0 DUP2 SWAP1 POP SWAP2 SWAP1 POP JUMP JUMPDEST PUSH1 0x82 DUP2 PUSH1 0x71 JUMP JUMPDEST DUP3 MSTORE POP POP JUMP JUMPDEST PUSH1 0x0 PUSH1 0x20 DUP3 ADD SWAP1 POP PUSH1 0x9B PUSH1 0x0 DUP4 ADD DUP5 PUSH1 0x7B JUMP JUMPDEST SWAP3 SWAP2 POP POP JUMP INVALID LOG2 PUSH5 0x6970667358 0x22 SLT KECCAK256 0xAF 0xC1 0x2D 0xF9 0xB2 0xE9 GAS 0xA5 0xDB 0xB0 0x26 CALLDATASIZE 0xAA 0xE3 XOR 0xD5 PUSH26 0x996240DAF9BCC56DB557757E002FC64736F6C63430008100033 "
				},
				"gasEstimates": {
					"creation": {
						"codeDepositCost": "43000",
						"executionCost": "93",
						"totalCost": "43093"
					},
					"external": {
						"balance_check()": "317",
						"send_ether()": "145"
					}
				},
				"methodIdentifiers": {
					"balance_check()": "08ab2167",
					"send_ether()": "d3af2e51"
				}
			},
			"storageLayout": {
				"storage": [],
				"types": null
			},
			"userdoc": {
				"kind": "user",
				"methods": {},
				"version": 1
			}
		}
	}
}