{
	"project_0x00/mycontract3.sol": {
		"mycontract3": {
			"abi": [
				{
					"inputs": [],
					"name": "balance_check",
					"outputs": [
						{
							"internalType": "uint256",
							"name": "",
							"type": "uint256"
						}
					],
					"stateMutability": "view",
					"type": "function"
				},
				{
					"inputs": [],
					"name": "recieve_ether",
					"outputs": [],
					"stateMutability": "payable",
					"type": "function"
				}
			],
			"devdoc": {
				"kind": "dev",
				"methods": {},
				"version": 1
			},
			"evm": {
				"assembly": "    /* \"project_0x00/mycontract3.sol\":61:758  contract mycontract3{... */\n  mstore(0x40, 0x80)\n  callvalue\n  dup1\n  iszero\n  tag_1\n  jumpi\n  0x00\n  dup1\n  revert\ntag_1:\n  pop\n  dataSize(sub_0)\n  dup1\n  dataOffset(sub_0)\n  0x00\n  codecopy\n  0x00\n  return\nstop\n\nsub_0: assembly {\n        /* \"project_0x00/mycontract3.sol\":61:758  contract mycontract3{... */\n      mstore(0x40, 0x80)\n      jumpi(tag_1, lt(calldatasize, 0x04))\n      shr(0xe0, calldataload(0x00))\n      dup1\n      0x08ab2167\n      eq\n      tag_2\n      jumpi\n      dup1\n      0x7c0c5341\n      eq\n      tag_3\n      jumpi\n    tag_1:\n      0x00\n      dup1\n      revert\n        /* \"project_0x00/mycontract3.sol\":655:755  function balance_check() external view returns(uint) {... */\n    tag_2:\n      callvalue\n      dup1\n      iszero\n      tag_4\n      jumpi\n      0x00\n      dup1\n      revert\n    tag_4:\n      pop\n      tag_5\n      tag_6\n      jump\t// in\n    tag_5:\n      mload(0x40)\n      tag_7\n      swap2\n      swap1\n      tag_8\n      jump\t// in\n    tag_7:\n      mload(0x40)\n      dup1\n      swap2\n      sub\n      swap1\n      return\n        /* \"project_0x00/mycontract3.sol\":259:575  function recieve_ether() external payable {... */\n    tag_3:\n      tag_9\n      tag_10\n      jump\t// in\n    tag_9:\n      stop\n        /* \"project_0x00/mycontract3.sol\":655:755  function balance_check() external view returns(uint) {... */\n    tag_6:\n        /* \"project_0x00/mycontract3.sol\":702:706  uint */\n      0x00\n        /* \"project_0x00/mycontract3.sol\":726:747  address(this).balance */\n      selfbalance\n        /* \"project_0x00/mycontract3.sol\":719:747  return address(this).balance */\n      swap1\n      pop\n        /* \"project_0x00/mycontract3.sol\":655:755  function balance_check() external view returns(uint) {... */\n      swap1\n      jump\t// out\n        /* \"project_0x00/mycontract3.sol\":259:575  function recieve_ether() external payable {... */\n    tag_10:\n        /* \"project_0x00/mycontract3.sol\":399:403  1000 */\n      0x03e8\n        /* \"project_0x00/mycontract3.sol\":387:396  msg.value */\n      callvalue\n        /* \"project_0x00/mycontract3.sol\":387:403  msg.value < 1000 */\n      lt\n        /* \"project_0x00/mycontract3.sol\":384:524  if(msg.value < 1000){ //in place of 1000, we can use some built in transfer keyword like ether e.g 1 ether... */\n      iszero\n      tag_13\n      jumpi\n        /* \"project_0x00/mycontract3.sol\":504:512  revert() */\n      0x00\n      dup1\n      revert\n        /* \"project_0x00/mycontract3.sol\":384:524  if(msg.value < 1000){ //in place of 1000, we can use some built in transfer keyword like ether e.g 1 ether... */\n    tag_13:\n        /* \"project_0x00/mycontract3.sol\":558:567  msg.value */\n      callvalue\n        /* \"project_0x00/mycontract3.sol\":534:542  balances */\n      0x00\n        /* \"project_0x00/mycontract3.sol\":534:554  balances[msg.sender] */\n      dup1\n        /* \"project_0x00/mycontract3.sol\":543:553  msg.sender */\n      caller\n        /* \"project_0x00/mycontract3.sol\":534:554  balances[msg.sender] */\n      0xffffffffffffffffffffffffffffffffffffffff\n      and\n      0xffffffffffffffffffffffffffffffffffffffff\n      and\n      dup2\n      mstore\n      0x20\n      add\n      swap1\n      dup2\n      mstore\n      0x20\n      add\n      0x00\n      keccak256\n      pop\n        /* \"project_0x00/mycontract3.sol\":534:567  balances[msg.sender] == msg.value */\n      pop\n        /* \"project_0x00/mycontract3.sol\":259:575  function recieve_ether() external payable {... */\n      jump\t// out\n        /* \"#utility.yul\":7:84   */\n    tag_14:\n        /* \"#utility.yul\":44:51   */\n      0x00\n        /* \"#utility.yul\":73:78   */\n      dup2\n        /* \"#utility.yul\":62:78   */\n      swap1\n      pop\n        /* \"#utility.yul\":7:84   */\n      swap2\n      swap1\n      pop\n      jump\t// out\n        /* \"#utility.yul\":90:208   */\n    tag_15:\n        /* \"#utility.yul\":177:201   */\n      tag_19\n        /* \"#utility.yul\":195:200   */\n      dup2\n        /* \"#utility.yul\":177:201   */\n      tag_14\n      jump\t// in\n    tag_19:\n        /* \"#utility.yul\":172:175   */\n      dup3\n        /* \"#utility.yul\":165:202   */\n      mstore\n        /* \"#utility.yul\":90:208   */\n      pop\n      pop\n      jump\t// out\n        /* \"#utility.yul\":214:436   */\n    tag_8:\n        /* \"#utility.yul\":307:311   */\n      0x00\n        /* \"#utility.yul\":345:347   */\n      0x20\n        /* \"#utility.yul\":334:343   */\n      dup3\n        /* \"#utility.yul\":330:348   */\n      add\n        /* \"#utility.yul\":322:348   */\n      swap1\n      pop\n        /* \"#utility.yul\":358:429   */\n      tag_21\n        /* \"#utility.yul\":426:427   */\n      0x00\n        /* \"#utility.yul\":415:424   */\n      dup4\n        /* \"#utility.yul\":411:428   */\n      add\n        /* \"#utility.yul\":402:408   */\n      dup5\n        /* \"#utility.yul\":358:429   */\n      tag_15\n      jump\t// in\n    tag_21:\n        /* \"#utility.yul\":214:436   */\n      swap3\n      swap2\n      pop\n      pop\n      jump\t// out\n\n    auxdata: 0xa264697066735822122010a13f9fa907a5fd07fdf815166ef1c6f22611ac392ac79db2f9c4f3863ad23464736f6c63430008100033\n}\n",
				"bytecode": {
					"linkReferences": {},
					"object": "608060405234801561001057600080fd5b50610118806100206000396000f3fe60806040526004361060265760003560e01c806308ab216714602b5780637c0c5341146051575b600080fd5b348015603657600080fd5b50603d6059565b6040516048919060c9565b60405180910390f35b60576061565b005b600047905090565b6103e8341015606f57600080fd5b346000803373ffffffffffffffffffffffffffffffffffffffff1673ffffffffffffffffffffffffffffffffffffffff1681526020019081526020016000205050565b6000819050919050565b60c38160b2565b82525050565b600060208201905060dc600083018460bc565b9291505056fea264697066735822122010a13f9fa907a5fd07fdf815166ef1c6f22611ac392ac79db2f9c4f3863ad23464736f6c63430008100033",
					"opcodes": "PUSH1 0x80 PUSH1 0x40 MSTORE CALLVALUE DUP1 ISZERO PUSH2 0x10 JUMPI PUSH1 0x0 DUP1 REVERT JUMPDEST POP PUSH2 0x118 DUP1 PUSH2 0x20 PUSH1 0x0 CODECOPY PUSH1 0x0 RETURN INVALID PUSH1 0x80 PUSH1 0x40 MSTORE PUSH1 0x4 CALLDATASIZE LT PUSH1 0x26 JUMPI PUSH1 0x0 CALLDATALOAD PUSH1 0xE0 SHR DUP1 PUSH4 0x8AB2167 EQ PUSH1 0x2B JUMPI DUP1 PUSH4 0x7C0C5341 EQ PUSH1 0x51 JUMPI JUMPDEST PUSH1 0x0 DUP1 REVERT JUMPDEST CALLVALUE DUP1 ISZERO PUSH1 0x36 JUMPI PUSH1 0x0 DUP1 REVERT JUMPDEST POP PUSH1 0x3D PUSH1 0x59 JUMP JUMPDEST PUSH1 0x40 MLOAD PUSH1 0x48 SWAP2 SWAP1 PUSH1 0xC9 JUMP JUMPDEST PUSH1 0x40 MLOAD DUP1 SWAP2 SUB SWAP1 RETURN JUMPDEST PUSH1 0x57 PUSH1 0x61 JUMP JUMPDEST STOP JUMPDEST PUSH1 0x0 SELFBALANCE SWAP1 POP SWAP1 JUMP JUMPDEST PUSH2 0x3E8 CALLVALUE LT ISZERO PUSH1 0x6F JUMPI PUSH1 0x0 DUP1 REVERT JUMPDEST CALLVALUE PUSH1 0x0 DUP1 CALLER PUSH20 0xFFFFFFFFFFFFFFFFFFFFFFFFFFFFFFFFFFFFFFFF AND PUSH20 0xFFFFFFFFFFFFFFFFFFFFFFFFFFFFFFFFFFFFFFFF AND DUP2 MSTORE PUSH1 0x20 ADD SWAP1 DUP2 MSTORE PUSH1 0x20 ADD PUSH1 0x0 KECCAK256 POP POP JUMP JUMPDEST PUSH1 0x0 DUP2 SWAP1 POP SWAP2 SWAP1 POP JUMP JUMPDEST PUSH1 0xC3 DUP2 PUSH1 0xB2 JUMP JUMPDEST DUP3 MSTORE POP POP JUMP JUMPDEST PUSH1 0x0 PUSH1 0x20 DUP3 ADD SWAP1 POP PUSH1 0xDC PUSH1 0x0 DUP4 ADD DUP5 PUSH1 0xBC JUMP JUMPDEST SWAP3 SWAP2 POP POP JUMP INVALID LOG2 PUSH5 0x6970667358 0x22 SLT KECCAK256 LT LOG1 EXTCODEHASH SWAP16 0xA9 SMOD 0xA5 REVERT SMOD REVERT 0xF8 ISZERO AND PUSH15 0xF1C6F22611AC392AC79DB2F9C4F386 GASPRICE 0xD2 CALLVALUE PUSH5 0x736F6C6343 STOP ADDMOD LT STOP CALLER "
				},
				"gasEstimates": {
					"creation": {
						"codeDepositCost": "56000",
						"executionCost": "105",
						"totalCost": "56105"
					},
					"external": {
						"balance_check()": "317",
						"recieve_ether()": "243"
					}
				},
				"methodIdentifiers": {
					"balance_check()": "08ab2167",
					"recieve_ether()": "7c0c5341"
				}
			},
			"storageLayout": {
				"storage": [
					{
						"astId": 5,
						"contract": "project_0x00/mycontract3.sol:mycontract3",
						"label": "balances",
						"offset": 0,
						"slot": "0",
						"type": "t_mapping(t_address,t_uint256)"
					}
				],
				"types": {
					"t_address": {
						"encoding": "inplace",
						"label": "address",
						"numberOfBytes": "20"
					},
					"t_mapping(t_address,t_uint256)": {
						"encoding": "mapping",
						"key": "t_address",
						"label": "mapping(address => uint256)",
						"numberOfBytes": "32",
						"value": "t_uint256"
					},
					"t_uint256": {
						"encoding": "inplace",
						"label": "uint256",
						"numberOfBytes": "32"
					}
				}
			},
			"userdoc": {
				"kind": "user",
				"methods": {},
				"version": 1
			}
		}
	}
}