{
	"project_0x00/mycontract4.sol": {
		"mycontract4": {
			"abi": [
				{
					"inputs": [],
					"name": "callB",
					"outputs": [
						{
							"internalType": "string",
							"name": "",
							"type": "string"
						}
					],
					"stateMutability": "view",
					"type": "function"
				},
				{
					"inputs": [
						{
							"internalType": "address payable",
							"name": "_addB",
							"type": "address"
						}
					],
					"name": "setaddB",
					"outputs": [],
					"stateMutability": "nonpayable",
					"type": "function"
				}
			],
			"devdoc": {
				"kind": "dev",
				"methods": {},
				"version": 1
			},
			"evm": {
				"assembly": "    /* \"project_0x00/mycontract4.sol\":61:524  contract mycontract4{... */\n  mstore(0x40, 0x80)\n  callvalue\n  dup1\n  iszero\n  tag_1\n  jumpi\n  0x00\n  dup1\n  revert\ntag_1:\n  pop\n  dataSize(sub_0)\n  dup1\n  dataOffset(sub_0)\n  0x00\n  codecopy\n  0x00\n  return\nstop\n\nsub_0: assembly {\n        /* \"project_0x00/mycontract4.sol\":61:524  contract mycontract4{... */\n      mstore(0x40, 0x80)\n      callvalue\n      dup1\n      iszero\n      tag_1\n      jumpi\n      0x00\n      dup1\n      revert\n    tag_1:\n      pop\n      jumpi(tag_2, lt(calldatasize, 0x04))\n      shr(0xe0, calldataload(0x00))\n      dup1\n      0x0fbae26c\n      eq\n      tag_3\n      jumpi\n      dup1\n      0x44fd4fa0\n      eq\n      tag_4\n      jumpi\n    tag_2:\n      0x00\n      dup1\n      revert\n        /* \"project_0x00/mycontract4.sol\":180:261  function setaddB(address payable _addB) external {... */\n    tag_3:\n      tag_5\n      0x04\n      dup1\n      calldatasize\n      sub\n      dup2\n      add\n      swap1\n      tag_6\n      swap2\n      swap1\n      tag_7\n      jump\t// in\n    tag_6:\n      tag_8\n      jump\t// in\n    tag_5:\n      stop\n        /* \"project_0x00/mycontract4.sol\":306:521  function callB() external view returns(string memory){... */\n    tag_4:\n      tag_9\n      tag_10\n      jump\t// in\n    tag_9:\n      mload(0x40)\n      tag_11\n      swap2\n      swap1\n      tag_12\n      jump\t// in\n    tag_11:\n      mload(0x40)\n      dup1\n      swap2\n      sub\n      swap1\n      return\n        /* \"project_0x00/mycontract4.sol\":180:261  function setaddB(address payable _addB) external {... */\n    tag_8:\n        /* \"project_0x00/mycontract4.sol\":248:253  _addB */\n      dup1\n        /* \"project_0x00/mycontract4.sol\":240:245  addrB */\n      0x00\n      dup1\n        /* \"project_0x00/mycontract4.sol\":240:253  addrB = _addB */\n      0x0100\n      exp\n      dup2\n      sload\n      dup2\n      0xffffffffffffffffffffffffffffffffffffffff\n      mul\n      not\n      and\n      swap1\n      dup4\n      0xffffffffffffffffffffffffffffffffffffffff\n      and\n      mul\n      or\n      swap1\n      sstore\n      pop\n        /* \"project_0x00/mycontract4.sol\":180:261  function setaddB(address payable _addB) external {... */\n      pop\n      jump\t// out\n        /* \"project_0x00/mycontract4.sol\":306:521  function callB() external view returns(string memory){... */\n    tag_10:\n        /* \"project_0x00/mycontract4.sol\":345:358  string memory */\n      0x60\n        /* \"project_0x00/mycontract4.sol\":464:470  B pter */\n      0x00\n        /* \"project_0x00/mycontract4.sol\":475:480  addrB */\n      dup1\n      0x00\n      swap1\n      sload\n      swap1\n      0x0100\n      exp\n      swap1\n      div\n      0xffffffffffffffffffffffffffffffffffffffff\n      and\n        /* \"project_0x00/mycontract4.sol\":464:481  B pter = B(addrB) */\n      swap1\n      pop\n        /* \"project_0x00/mycontract4.sol\":499:503  pter */\n      dup1\n        /* \"project_0x00/mycontract4.sol\":499:511  pter.welcome */\n      0xffffffffffffffffffffffffffffffffffffffff\n      and\n      0xb627cf3b\n        /* \"project_0x00/mycontract4.sol\":499:513  pter.welcome() */\n      mload(0x40)\n      dup2\n      0xffffffff\n      and\n      0xe0\n      shl\n      dup2\n      mstore\n      0x04\n      add\n      0x00\n      mload(0x40)\n      dup1\n      dup4\n      sub\n      dup2\n      dup7\n      gas\n      staticcall\n      iszero\n      dup1\n      iszero\n      tag_16\n      jumpi\n      returndatasize\n      0x00\n      dup1\n      returndatacopy\n      revert(0x00, returndatasize)\n    tag_16:\n      pop\n      pop\n      pop\n      pop\n      mload(0x40)\n      returndatasize\n      0x00\n      dup3\n      returndatacopy\n      returndatasize\n      not(0x1f)\n      0x1f\n      dup3\n      add\n      and\n      dup3\n      add\n      dup1\n      0x40\n      mstore\n      pop\n      dup2\n      add\n      swap1\n      tag_17\n      swap2\n      swap1\n      tag_18\n      jump\t// in\n    tag_17:\n        /* \"project_0x00/mycontract4.sol\":492:513  return pter.welcome() */\n      swap2\n      pop\n      pop\n        /* \"project_0x00/mycontract4.sol\":306:521  function callB() external view returns(string memory){... */\n      swap1\n      jump\t// out\n        /* \"#utility.yul\":7:82   */\n    tag_19:\n        /* \"#utility.yul\":40:46   */\n      0x00\n        /* \"#utility.yul\":73:75   */\n      0x40\n        /* \"#utility.yul\":67:76   */\n      mload\n        /* \"#utility.yul\":57:76   */\n      swap1\n      pop\n        /* \"#utility.yul\":7:82   */\n      swap1\n      jump\t// out\n        /* \"#utility.yul\":88:205   */\n    tag_20:\n        /* \"#utility.yul\":197:198   */\n      0x00\n        /* \"#utility.yul\":194:195   */\n      dup1\n        /* \"#utility.yul\":187:199   */\n      revert\n        /* \"#utility.yul\":211:328   */\n    tag_21:\n        /* \"#utility.yul\":320:321   */\n      0x00\n        /* \"#utility.yul\":317:318   */\n      dup1\n        /* \"#utility.yul\":310:322   */\n      revert\n        /* \"#utility.yul\":334:460   */\n    tag_22:\n        /* \"#utility.yul\":371:378   */\n      0x00\n        /* \"#utility.yul\":411:453   */\n      0xffffffffffffffffffffffffffffffffffffffff\n        /* \"#utility.yul\":404:409   */\n      dup3\n        /* \"#utility.yul\":400:454   */\n      and\n        /* \"#utility.yul\":389:454   */\n      swap1\n      pop\n        /* \"#utility.yul\":334:460   */\n      swap2\n      swap1\n      pop\n      jump\t// out\n        /* \"#utility.yul\":466:570   */\n    tag_23:\n        /* \"#utility.yul\":511:518   */\n      0x00\n        /* \"#utility.yul\":540:564   */\n      tag_45\n        /* \"#utility.yul\":558:563   */\n      dup3\n        /* \"#utility.yul\":540:564   */\n      tag_22\n      jump\t// in\n    tag_45:\n        /* \"#utility.yul\":529:564   */\n      swap1\n      pop\n        /* \"#utility.yul\":466:570   */\n      swap2\n      swap1\n      pop\n      jump\t// out\n        /* \"#utility.yul\":576:714   */\n    tag_24:\n        /* \"#utility.yul\":657:689   */\n      tag_47\n        /* \"#utility.yul\":683:688   */\n      dup2\n        /* \"#utility.yul\":657:689   */\n      tag_23\n      jump\t// in\n    tag_47:\n        /* \"#utility.yul\":650:655   */\n      dup2\n        /* \"#utility.yul\":647:690   */\n      eq\n        /* \"#utility.yul\":637:708   */\n      tag_48\n      jumpi\n        /* \"#utility.yul\":704:705   */\n      0x00\n        /* \"#utility.yul\":701:702   */\n      dup1\n        /* \"#utility.yul\":694:706   */\n      revert\n        /* \"#utility.yul\":637:708   */\n    tag_48:\n        /* \"#utility.yul\":576:714   */\n      pop\n      jump\t// out\n        /* \"#utility.yul\":720:875   */\n    tag_25:\n        /* \"#utility.yul\":774:779   */\n      0x00\n        /* \"#utility.yul\":812:818   */\n      dup2\n        /* \"#utility.yul\":799:819   */\n      calldataload\n        /* \"#utility.yul\":790:819   */\n      swap1\n      pop\n        /* \"#utility.yul\":828:869   */\n      tag_50\n        /* \"#utility.yul\":863:868   */\n      dup2\n        /* \"#utility.yul\":828:869   */\n      tag_24\n      jump\t// in\n    tag_50:\n        /* \"#utility.yul\":720:875   */\n      swap3\n      swap2\n      pop\n      pop\n      jump\t// out\n        /* \"#utility.yul\":881:1226   */\n    tag_7:\n        /* \"#utility.yul\":948:954   */\n      0x00\n        /* \"#utility.yul\":997:999   */\n      0x20\n        /* \"#utility.yul\":985:994   */\n      dup3\n        /* \"#utility.yul\":976:983   */\n      dup5\n        /* \"#utility.yul\":972:995   */\n      sub\n        /* \"#utility.yul\":968:1000   */\n      slt\n        /* \"#utility.yul\":965:1084   */\n      iszero\n      tag_52\n      jumpi\n        /* \"#utility.yul\":1003:1082   */\n      tag_53\n      tag_20\n      jump\t// in\n    tag_53:\n        /* \"#utility.yul\":965:1084   */\n    tag_52:\n        /* \"#utility.yul\":1123:1124   */\n      0x00\n        /* \"#utility.yul\":1148:1209   */\n      tag_54\n        /* \"#utility.yul\":1201:1208   */\n      dup5\n        /* \"#utility.yul\":1192:1198   */\n      dup3\n        /* \"#utility.yul\":1181:1190   */\n      dup6\n        /* \"#utility.yul\":1177:1199   */\n      add\n        /* \"#utility.yul\":1148:1209   */\n      tag_25\n      jump\t// in\n    tag_54:\n        /* \"#utility.yul\":1138:1209   */\n      swap2\n      pop\n        /* \"#utility.yul\":1094:1219   */\n      pop\n        /* \"#utility.yul\":881:1226   */\n      swap3\n      swap2\n      pop\n      pop\n      jump\t// out\n        /* \"#utility.yul\":1232:1331   */\n    tag_26:\n        /* \"#utility.yul\":1284:1290   */\n      0x00\n        /* \"#utility.yul\":1318:1323   */\n      dup2\n        /* \"#utility.yul\":1312:1324   */\n      mload\n        /* \"#utility.yul\":1302:1324   */\n      swap1\n      pop\n        /* \"#utility.yul\":1232:1331   */\n      swap2\n      swap1\n      pop\n      jump\t// out\n        /* \"#utility.yul\":1337:1506   */\n    tag_27:\n        /* \"#utility.yul\":1421:1432   */\n      0x00\n        /* \"#utility.yul\":1455:1461   */\n      dup3\n        /* \"#utility.yul\":1450:1453   */\n      dup3\n        /* \"#utility.yul\":1443:1462   */\n      mstore\n        /* \"#utility.yul\":1495:1499   */\n      0x20\n        /* \"#utility.yul\":1490:1493   */\n      dup3\n        /* \"#utility.yul\":1486:1500   */\n      add\n        /* \"#utility.yul\":1471:1500   */\n      swap1\n      pop\n        /* \"#utility.yul\":1337:1506   */\n      swap3\n      swap2\n      pop\n      pop\n      jump\t// out\n        /* \"#utility.yul\":1512:1758   */\n    tag_28:\n        /* \"#utility.yul\":1593:1594   */\n      0x00\n        /* \"#utility.yul\":1603:1716   */\n    tag_58:\n        /* \"#utility.yul\":1617:1623   */\n      dup4\n        /* \"#utility.yul\":1614:1615   */\n      dup2\n        /* \"#utility.yul\":1611:1624   */\n      lt\n        /* \"#utility.yul\":1603:1716   */\n      iszero\n      tag_60\n      jumpi\n        /* \"#utility.yul\":1702:1703   */\n      dup1\n        /* \"#utility.yul\":1697:1700   */\n      dup3\n        /* \"#utility.yul\":1693:1704   */\n      add\n        /* \"#utility.yul\":1687:1705   */\n      mload\n        /* \"#utility.yul\":1683:1684   */\n      dup2\n        /* \"#utility.yul\":1678:1681   */\n      dup5\n        /* \"#utility.yul\":1674:1685   */\n      add\n        /* \"#utility.yul\":1667:1706   */\n      mstore\n        /* \"#utility.yul\":1639:1641   */\n      0x20\n        /* \"#utility.yul\":1636:1637   */\n      dup2\n        /* \"#utility.yul\":1632:1642   */\n      add\n        /* \"#utility.yul\":1627:1642   */\n      swap1\n      pop\n        /* \"#utility.yul\":1603:1716   */\n      jump(tag_58)\n    tag_60:\n        /* \"#utility.yul\":1750:1751   */\n      0x00\n        /* \"#utility.yul\":1741:1747   */\n      dup5\n        /* \"#utility.yul\":1736:1739   */\n      dup5\n        /* \"#utility.yul\":1732:1748   */\n      add\n        /* \"#utility.yul\":1725:1752   */\n      mstore\n        /* \"#utility.yul\":1574:1758   */\n      pop\n        /* \"#utility.yul\":1512:1758   */\n      pop\n      pop\n      pop\n      jump\t// out\n        /* \"#utility.yul\":1764:1866   */\n    tag_29:\n        /* \"#utility.yul\":1805:1811   */\n      0x00\n        /* \"#utility.yul\":1856:1858   */\n      0x1f\n        /* \"#utility.yul\":1852:1859   */\n      not\n        /* \"#utility.yul\":1847:1849   */\n      0x1f\n        /* \"#utility.yul\":1840:1845   */\n      dup4\n        /* \"#utility.yul\":1836:1850   */\n      add\n        /* \"#utility.yul\":1832:1860   */\n      and\n        /* \"#utility.yul\":1822:1860   */\n      swap1\n      pop\n        /* \"#utility.yul\":1764:1866   */\n      swap2\n      swap1\n      pop\n      jump\t// out\n        /* \"#utility.yul\":1872:2249   */\n    tag_30:\n        /* \"#utility.yul\":1960:1963   */\n      0x00\n        /* \"#utility.yul\":1988:2027   */\n      tag_63\n        /* \"#utility.yul\":2021:2026   */\n      dup3\n        /* \"#utility.yul\":1988:2027   */\n      tag_26\n      jump\t// in\n    tag_63:\n        /* \"#utility.yul\":2043:2114   */\n      tag_64\n        /* \"#utility.yul\":2107:2113   */\n      dup2\n        /* \"#utility.yul\":2102:2105   */\n      dup6\n        /* \"#utility.yul\":2043:2114   */\n      tag_27\n      jump\t// in\n    tag_64:\n        /* \"#utility.yul\":2036:2114   */\n      swap4\n      pop\n        /* \"#utility.yul\":2123:2188   */\n      tag_65\n        /* \"#utility.yul\":2181:2187   */\n      dup2\n        /* \"#utility.yul\":2176:2179   */\n      dup6\n        /* \"#utility.yul\":2169:2173   */\n      0x20\n        /* \"#utility.yul\":2162:2167   */\n      dup7\n        /* \"#utility.yul\":2158:2174   */\n      add\n        /* \"#utility.yul\":2123:2188   */\n      tag_28\n      jump\t// in\n    tag_65:\n        /* \"#utility.yul\":2213:2242   */\n      tag_66\n        /* \"#utility.yul\":2235:2241   */\n      dup2\n        /* \"#utility.yul\":2213:2242   */\n      tag_29\n      jump\t// in\n    tag_66:\n        /* \"#utility.yul\":2208:2211   */\n      dup5\n        /* \"#utility.yul\":2204:2243   */\n      add\n        /* \"#utility.yul\":2197:2243   */\n      swap2\n      pop\n        /* \"#utility.yul\":1964:2249   */\n      pop\n        /* \"#utility.yul\":1872:2249   */\n      swap3\n      swap2\n      pop\n      pop\n      jump\t// out\n        /* \"#utility.yul\":2255:2568   */\n    tag_12:\n        /* \"#utility.yul\":2368:2372   */\n      0x00\n        /* \"#utility.yul\":2406:2408   */\n      0x20\n        /* \"#utility.yul\":2395:2404   */\n      dup3\n        /* \"#utility.yul\":2391:2409   */\n      add\n        /* \"#utility.yul\":2383:2409   */\n      swap1\n      pop\n        /* \"#utility.yul\":2455:2464   */\n      dup2\n        /* \"#utility.yul\":2449:2453   */\n      dup2\n        /* \"#utility.yul\":2445:2465   */\n      sub\n        /* \"#utility.yul\":2441:2442   */\n      0x00\n        /* \"#utility.yul\":2430:2439   */\n      dup4\n        /* \"#utility.yul\":2426:2443   */\n      add\n        /* \"#utility.yul\":2419:2466   */\n      mstore\n        /* \"#utility.yul\":2483:2561   */\n      tag_68\n        /* \"#utility.yul\":2556:2560   */\n      dup2\n        /* \"#utility.yul\":2547:2553   */\n      dup5\n        /* \"#utility.yul\":2483:2561   */\n      tag_30\n      jump\t// in\n    tag_68:\n        /* \"#utility.yul\":2475:2561   */\n      swap1\n      pop\n        /* \"#utility.yul\":2255:2568   */\n      swap3\n      swap2\n      pop\n      pop\n      jump\t// out\n        /* \"#utility.yul\":2574:2691   */\n    tag_31:\n        /* \"#utility.yul\":2683:2684   */\n      0x00\n        /* \"#utility.yul\":2680:2681   */\n      dup1\n        /* \"#utility.yul\":2673:2685   */\n      revert\n        /* \"#utility.yul\":2697:2814   */\n    tag_32:\n        /* \"#utility.yul\":2806:2807   */\n      0x00\n        /* \"#utility.yul\":2803:2804   */\n      dup1\n        /* \"#utility.yul\":2796:2808   */\n      revert\n        /* \"#utility.yul\":2820:3000   */\n    tag_33:\n        /* \"#utility.yul\":2868:2945   */\n      0x4e487b7100000000000000000000000000000000000000000000000000000000\n        /* \"#utility.yul\":2865:2866   */\n      0x00\n        /* \"#utility.yul\":2858:2946   */\n      mstore\n        /* \"#utility.yul\":2965:2969   */\n      0x41\n        /* \"#utility.yul\":2962:2963   */\n      0x04\n        /* \"#utility.yul\":2955:2970   */\n      mstore\n        /* \"#utility.yul\":2989:2993   */\n      0x24\n        /* \"#utility.yul\":2986:2987   */\n      0x00\n        /* \"#utility.yul\":2979:2994   */\n      revert\n        /* \"#utility.yul\":3006:3287   */\n    tag_34:\n        /* \"#utility.yul\":3089:3116   */\n      tag_73\n        /* \"#utility.yul\":3111:3115   */\n      dup3\n        /* \"#utility.yul\":3089:3116   */\n      tag_29\n      jump\t// in\n    tag_73:\n        /* \"#utility.yul\":3081:3087   */\n      dup2\n        /* \"#utility.yul\":3077:3117   */\n      add\n        /* \"#utility.yul\":3219:3225   */\n      dup2\n        /* \"#utility.yul\":3207:3217   */\n      dup2\n        /* \"#utility.yul\":3204:3226   */\n      lt\n        /* \"#utility.yul\":3183:3201   */\n      0xffffffffffffffff\n        /* \"#utility.yul\":3171:3181   */\n      dup3\n        /* \"#utility.yul\":3168:3202   */\n      gt\n        /* \"#utility.yul\":3165:3227   */\n      or\n        /* \"#utility.yul\":3162:3250   */\n      iszero\n      tag_74\n      jumpi\n        /* \"#utility.yul\":3230:3248   */\n      tag_75\n      tag_33\n      jump\t// in\n    tag_75:\n        /* \"#utility.yul\":3162:3250   */\n    tag_74:\n        /* \"#utility.yul\":3270:3280   */\n      dup1\n        /* \"#utility.yul\":3266:3268   */\n      0x40\n        /* \"#utility.yul\":3259:3281   */\n      mstore\n        /* \"#utility.yul\":3049:3287   */\n      pop\n        /* \"#utility.yul\":3006:3287   */\n      pop\n      pop\n      jump\t// out\n        /* \"#utility.yul\":3293:3422   */\n    tag_35:\n        /* \"#utility.yul\":3327:3333   */\n      0x00\n        /* \"#utility.yul\":3354:3374   */\n      tag_77\n      tag_19\n      jump\t// in\n    tag_77:\n        /* \"#utility.yul\":3344:3374   */\n      swap1\n      pop\n        /* \"#utility.yul\":3383:3416   */\n      tag_78\n        /* \"#utility.yul\":3411:3415   */\n      dup3\n        /* \"#utility.yul\":3403:3409   */\n      dup3\n        /* \"#utility.yul\":3383:3416   */\n      tag_34\n      jump\t// in\n    tag_78:\n        /* \"#utility.yul\":3293:3422   */\n      swap2\n      swap1\n      pop\n      jump\t// out\n        /* \"#utility.yul\":3428:3736   */\n    tag_36:\n        /* \"#utility.yul\":3490:3494   */\n      0x00\n        /* \"#utility.yul\":3580:3598   */\n      0xffffffffffffffff\n        /* \"#utility.yul\":3572:3578   */\n      dup3\n        /* \"#utility.yul\":3569:3599   */\n      gt\n        /* \"#utility.yul\":3566:3622   */\n      iszero\n      tag_80\n      jumpi\n        /* \"#utility.yul\":3602:3620   */\n      tag_81\n      tag_33\n      jump\t// in\n    tag_81:\n        /* \"#utility.yul\":3566:3622   */\n    tag_80:\n        /* \"#utility.yul\":3640:3669   */\n      tag_82\n        /* \"#utility.yul\":3662:3668   */\n      dup3\n        /* \"#utility.yul\":3640:3669   */\n      tag_29\n      jump\t// in\n    tag_82:\n        /* \"#utility.yul\":3632:3669   */\n      swap1\n      pop\n        /* \"#utility.yul\":3724:3728   */\n      0x20\n        /* \"#utility.yul\":3718:3722   */\n      dup2\n        /* \"#utility.yul\":3714:3729   */\n      add\n        /* \"#utility.yul\":3706:3729   */\n      swap1\n      pop\n        /* \"#utility.yul\":3428:3736   */\n      swap2\n      swap1\n      pop\n      jump\t// out\n        /* \"#utility.yul\":3742:4176   */\n    tag_37:\n        /* \"#utility.yul\":3831:3836   */\n      0x00\n        /* \"#utility.yul\":3856:3922   */\n      tag_84\n        /* \"#utility.yul\":3872:3921   */\n      tag_85\n        /* \"#utility.yul\":3914:3920   */\n      dup5\n        /* \"#utility.yul\":3872:3921   */\n      tag_36\n      jump\t// in\n    tag_85:\n        /* \"#utility.yul\":3856:3922   */\n      tag_35\n      jump\t// in\n    tag_84:\n        /* \"#utility.yul\":3847:3922   */\n      swap1\n      pop\n        /* \"#utility.yul\":3945:3951   */\n      dup3\n        /* \"#utility.yul\":3938:3943   */\n      dup2\n        /* \"#utility.yul\":3931:3952   */\n      mstore\n        /* \"#utility.yul\":3983:3987   */\n      0x20\n        /* \"#utility.yul\":3976:3981   */\n      dup2\n        /* \"#utility.yul\":3972:3988   */\n      add\n        /* \"#utility.yul\":4021:4024   */\n      dup5\n        /* \"#utility.yul\":4012:4018   */\n      dup5\n        /* \"#utility.yul\":4007:4010   */\n      dup5\n        /* \"#utility.yul\":4003:4019   */\n      add\n        /* \"#utility.yul\":4000:4025   */\n      gt\n        /* \"#utility.yul\":3997:4109   */\n      iszero\n      tag_86\n      jumpi\n        /* \"#utility.yul\":4028:4107   */\n      tag_87\n      tag_32\n      jump\t// in\n    tag_87:\n        /* \"#utility.yul\":3997:4109   */\n    tag_86:\n        /* \"#utility.yul\":4118:4170   */\n      tag_88\n        /* \"#utility.yul\":4163:4169   */\n      dup5\n        /* \"#utility.yul\":4158:4161   */\n      dup3\n        /* \"#utility.yul\":4153:4156   */\n      dup6\n        /* \"#utility.yul\":4118:4170   */\n      tag_28\n      jump\t// in\n    tag_88:\n        /* \"#utility.yul\":3837:4176   */\n      pop\n        /* \"#utility.yul\":3742:4176   */\n      swap4\n      swap3\n      pop\n      pop\n      pop\n      jump\t// out\n        /* \"#utility.yul\":4196:4551   */\n    tag_38:\n        /* \"#utility.yul\":4263:4268   */\n      0x00\n        /* \"#utility.yul\":4312:4315   */\n      dup3\n        /* \"#utility.yul\":4305:4309   */\n      0x1f\n        /* \"#utility.yul\":4297:4303   */\n      dup4\n        /* \"#utility.yul\":4293:4310   */\n      add\n        /* \"#utility.yul\":4289:4316   */\n      slt\n        /* \"#utility.yul\":4279:4401   */\n      tag_90\n      jumpi\n        /* \"#utility.yul\":4320:4399   */\n      tag_91\n      tag_31\n      jump\t// in\n    tag_91:\n        /* \"#utility.yul\":4279:4401   */\n    tag_90:\n        /* \"#utility.yul\":4430:4436   */\n      dup2\n        /* \"#utility.yul\":4424:4437   */\n      mload\n        /* \"#utility.yul\":4455:4545   */\n      tag_92\n        /* \"#utility.yul\":4541:4544   */\n      dup5\n        /* \"#utility.yul\":4533:4539   */\n      dup3\n        /* \"#utility.yul\":4526:4530   */\n      0x20\n        /* \"#utility.yul\":4518:4524   */\n      dup7\n        /* \"#utility.yul\":4514:4531   */\n      add\n        /* \"#utility.yul\":4455:4545   */\n      tag_37\n      jump\t// in\n    tag_92:\n        /* \"#utility.yul\":4446:4545   */\n      swap2\n      pop\n        /* \"#utility.yul\":4269:4551   */\n      pop\n        /* \"#utility.yul\":4196:4551   */\n      swap3\n      swap2\n      pop\n      pop\n      jump\t// out\n        /* \"#utility.yul\":4557:5081   */\n    tag_18:\n        /* \"#utility.yul\":4637:4643   */\n      0x00\n        /* \"#utility.yul\":4686:4688   */\n      0x20\n        /* \"#utility.yul\":4674:4683   */\n      dup3\n        /* \"#utility.yul\":4665:4672   */\n      dup5\n        /* \"#utility.yul\":4661:4684   */\n      sub\n        /* \"#utility.yul\":4657:4689   */\n      slt\n        /* \"#utility.yul\":4654:4773   */\n      iszero\n      tag_94\n      jumpi\n        /* \"#utility.yul\":4692:4771   */\n      tag_95\n      tag_20\n      jump\t// in\n    tag_95:\n        /* \"#utility.yul\":4654:4773   */\n    tag_94:\n        /* \"#utility.yul\":4833:4834   */\n      0x00\n        /* \"#utility.yul\":4822:4831   */\n      dup3\n        /* \"#utility.yul\":4818:4835   */\n      add\n        /* \"#utility.yul\":4812:4836   */\n      mload\n        /* \"#utility.yul\":4863:4881   */\n      0xffffffffffffffff\n        /* \"#utility.yul\":4855:4861   */\n      dup2\n        /* \"#utility.yul\":4852:4882   */\n      gt\n        /* \"#utility.yul\":4849:4966   */\n      iszero\n      tag_96\n      jumpi\n        /* \"#utility.yul\":4885:4964   */\n      tag_97\n      tag_21\n      jump\t// in\n    tag_97:\n        /* \"#utility.yul\":4849:4966   */\n    tag_96:\n        /* \"#utility.yul\":4990:5064   */\n      tag_98\n        /* \"#utility.yul\":5056:5063   */\n      dup5\n        /* \"#utility.yul\":5047:5053   */\n      dup3\n        /* \"#utility.yul\":5036:5045   */\n      dup6\n        /* \"#utility.yul\":5032:5054   */\n      add\n        /* \"#utility.yul\":4990:5064   */\n      tag_38\n      jump\t// in\n    tag_98:\n        /* \"#utility.yul\":4980:5064   */\n      swap2\n      pop\n        /* \"#utility.yul\":4783:5074   */\n      pop\n        /* \"#utility.yul\":4557:5081   */\n      swap3\n      swap2\n      pop\n      pop\n      jump\t// out\n\n    auxdata: 0xa264697066735822122095caa96c793ca3cc8cecc0283f139f2e3a0a362c12ffed0f363784916c60d75564736f6c63430008100033\n}\n",
				"bytecode": {
					"linkReferences": {},
					"object": "608060405234801561001057600080fd5b50610450806100206000396000f3fe608060405234801561001057600080fd5b50600436106100365760003560e01c80630fbae26c1461003b57806344fd4fa014610057575b600080fd5b610055600480360381019061005091906101cc565b610075565b005b61005f6100b8565b60405161006c9190610289565b60405180910390f35b806000806101000a81548173ffffffffffffffffffffffffffffffffffffffff021916908373ffffffffffffffffffffffffffffffffffffffff16021790555050565b606060008060009054906101000a900473ffffffffffffffffffffffffffffffffffffffff1690508073ffffffffffffffffffffffffffffffffffffffff1663b627cf3b6040518163ffffffff1660e01b8152600401600060405180830381865afa15801561012b573d6000803e3d6000fd5b505050506040513d6000823e3d601f19601f8201168201806040525081019061015491906103d1565b91505090565b6000604051905090565b600080fd5b600080fd5b600073ffffffffffffffffffffffffffffffffffffffff82169050919050565b60006101998261016e565b9050919050565b6101a98161018e565b81146101b457600080fd5b50565b6000813590506101c6816101a0565b92915050565b6000602082840312156101e2576101e1610164565b5b60006101f0848285016101b7565b91505092915050565b600081519050919050565b600082825260208201905092915050565b60005b83811015610233578082015181840152602081019050610218565b60008484015250505050565b6000601f19601f8301169050919050565b600061025b826101f9565b6102658185610204565b9350610275818560208601610215565b61027e8161023f565b840191505092915050565b600060208201905081810360008301526102a38184610250565b905092915050565b600080fd5b600080fd5b7f4e487b7100000000000000000000000000000000000000000000000000000000600052604160045260246000fd5b6102ed8261023f565b810181811067ffffffffffffffff8211171561030c5761030b6102b5565b5b80604052505050565b600061031f61015a565b905061032b82826102e4565b919050565b600067ffffffffffffffff82111561034b5761034a6102b5565b5b6103548261023f565b9050602081019050919050565b600061037461036f84610330565b610315565b9050828152602081018484840111156103905761038f6102b0565b5b61039b848285610215565b509392505050565b600082601f8301126103b8576103b76102ab565b5b81516103c8848260208601610361565b91505092915050565b6000602082840312156103e7576103e6610164565b5b600082015167ffffffffffffffff81111561040557610404610169565b5b610411848285016103a3565b9150509291505056fea264697066735822122095caa96c793ca3cc8cecc0283f139f2e3a0a362c12ffed0f363784916c60d75564736f6c63430008100033",
					"opcodes": "PUSH1 0x80 PUSH1 0x40 MSTORE CALLVALUE DUP1 ISZERO PUSH2 0x10 JUMPI PUSH1 0x0 DUP1 REVERT JUMPDEST POP PUSH2 0x450 DUP1 PUSH2 0x20 PUSH1 0x0 CODECOPY PUSH1 0x0 RETURN INVALID PUSH1 0x80 PUSH1 0x40 MSTORE CALLVALUE DUP1 ISZERO PUSH2 0x10 JUMPI PUSH1 0x0 DUP1 REVERT JUMPDEST POP PUSH1 0x4 CALLDATASIZE LT PUSH2 0x36 JUMPI PUSH1 0x0 CALLDATALOAD PUSH1 0xE0 SHR DUP1 PUSH4 0xFBAE26C EQ PUSH2 0x3B JUMPI DUP1 PUSH4 0x44FD4FA0 EQ PUSH2 0x57 JUMPI JUMPDEST PUSH1 0x0 DUP1 REVERT JUMPDEST PUSH2 0x55 PUSH1 0x4 DUP1 CALLDATASIZE SUB DUP2 ADD SWAP1 PUSH2 0x50 SWAP2 SWAP1 PUSH2 0x1CC JUMP JUMPDEST PUSH2 0x75 JUMP JUMPDEST STOP JUMPDEST PUSH2 0x5F PUSH2 0xB8 JUMP JUMPDEST PUSH1 0x40 MLOAD PUSH2 0x6C SWAP2 SWAP1 PUSH2 0x289 JUMP JUMPDEST PUSH1 0x40 MLOAD DUP1 SWAP2 SUB SWAP1 RETURN JUMPDEST DUP1 PUSH1 0x0 DUP1 PUSH2 0x100 EXP DUP2 SLOAD DUP2 PUSH20 0xFFFFFFFFFFFFFFFFFFFFFFFFFFFFFFFFFFFFFFFF MUL NOT AND SWAP1 DUP4 PUSH20 0xFFFFFFFFFFFFFFFFFFFFFFFFFFFFFFFFFFFFFFFF AND MUL OR SWAP1 SSTORE POP POP JUMP JUMPDEST PUSH1 0x60 PUSH1 0x0 DUP1 PUSH1 0x0 SWAP1 SLOAD SWAP1 PUSH2 0x100 EXP SWAP1 DIV PUSH20 0xFFFFFFFFFFFFFFFFFFFFFFFFFFFFFFFFFFFFFFFF AND SWAP1 POP DUP1 PUSH20 0xFFFFFFFFFFFFFFFFFFFFFFFFFFFFFFFFFFFFFFFF AND PUSH4 0xB627CF3B PUSH1 0x40 MLOAD DUP2 PUSH4 0xFFFFFFFF AND PUSH1 0xE0 SHL DUP2 MSTORE PUSH1 0x4 ADD PUSH1 0x0 PUSH1 0x40 MLOAD DUP1 DUP4 SUB DUP2 DUP7 GAS STATICCALL ISZERO DUP1 ISZERO PUSH2 0x12B JUMPI RETURNDATASIZE PUSH1 0x0 DUP1 RETURNDATACOPY RETURNDATASIZE PUSH1 0x0 REVERT JUMPDEST POP POP POP POP PUSH1 0x40 MLOAD RETURNDATASIZE PUSH1 0x0 DUP3 RETURNDATACOPY RETURNDATASIZE PUSH1 0x1F NOT PUSH1 0x1F DUP3 ADD AND DUP3 ADD DUP1 PUSH1 0x40 MSTORE POP DUP2 ADD SWAP1 PUSH2 0x154 SWAP2 SWAP1 PUSH2 0x3D1 JUMP JUMPDEST SWAP2 POP POP SWAP1 JUMP JUMPDEST PUSH1 0x0 PUSH1 0x40 MLOAD SWAP1 POP SWAP1 JUMP JUMPDEST PUSH1 0x0 DUP1 REVERT JUMPDEST PUSH1 0x0 DUP1 REVERT JUMPDEST PUSH1 0x0 PUSH20 0xFFFFFFFFFFFFFFFFFFFFFFFFFFFFFFFFFFFFFFFF DUP3 AND SWAP1 POP SWAP2 SWAP1 POP JUMP JUMPDEST PUSH1 0x0 PUSH2 0x199 DUP3 PUSH2 0x16E JUMP JUMPDEST SWAP1 POP SWAP2 SWAP1 POP JUMP JUMPDEST PUSH2 0x1A9 DUP2 PUSH2 0x18E JUMP JUMPDEST DUP2 EQ PUSH2 0x1B4 JUMPI PUSH1 0x0 DUP1 REVERT JUMPDEST POP JUMP JUMPDEST PUSH1 0x0 DUP2 CALLDATALOAD SWAP1 POP PUSH2 0x1C6 DUP2 PUSH2 0x1A0 JUMP JUMPDEST SWAP3 SWAP2 POP POP JUMP JUMPDEST PUSH1 0x0 PUSH1 0x20 DUP3 DUP5 SUB SLT ISZERO PUSH2 0x1E2 JUMPI PUSH2 0x1E1 PUSH2 0x164 JUMP JUMPDEST JUMPDEST PUSH1 0x0 PUSH2 0x1F0 DUP5 DUP3 DUP6 ADD PUSH2 0x1B7 JUMP JUMPDEST SWAP2 POP POP SWAP3 SWAP2 POP POP JUMP JUMPDEST PUSH1 0x0 DUP2 MLOAD SWAP1 POP SWAP2 SWAP1 POP JUMP JUMPDEST PUSH1 0x0 DUP3 DUP3 MSTORE PUSH1 0x20 DUP3 ADD SWAP1 POP SWAP3 SWAP2 POP POP JUMP JUMPDEST PUSH1 0x0 JUMPDEST DUP4 DUP2 LT ISZERO PUSH2 0x233 JUMPI DUP1 DUP3 ADD MLOAD DUP2 DUP5 ADD MSTORE PUSH1 0x20 DUP2 ADD SWAP1 POP PUSH2 0x218 JUMP JUMPDEST PUSH1 0x0 DUP5 DUP5 ADD MSTORE POP POP POP POP JUMP JUMPDEST PUSH1 0x0 PUSH1 0x1F NOT PUSH1 0x1F DUP4 ADD AND SWAP1 POP SWAP2 SWAP1 POP JUMP JUMPDEST PUSH1 0x0 PUSH2 0x25B DUP3 PUSH2 0x1F9 JUMP JUMPDEST PUSH2 0x265 DUP2 DUP6 PUSH2 0x204 JUMP JUMPDEST SWAP4 POP PUSH2 0x275 DUP2 DUP6 PUSH1 0x20 DUP7 ADD PUSH2 0x215 JUMP JUMPDEST PUSH2 0x27E DUP2 PUSH2 0x23F JUMP JUMPDEST DUP5 ADD SWAP2 POP POP SWAP3 SWAP2 POP POP JUMP JUMPDEST PUSH1 0x0 PUSH1 0x20 DUP3 ADD SWAP1 POP DUP2 DUP2 SUB PUSH1 0x0 DUP4 ADD MSTORE PUSH2 0x2A3 DUP2 DUP5 PUSH2 0x250 JUMP JUMPDEST SWAP1 POP SWAP3 SWAP2 POP POP JUMP JUMPDEST PUSH1 0x0 DUP1 REVERT JUMPDEST PUSH1 0x0 DUP1 REVERT JUMPDEST PUSH32 0x4E487B7100000000000000000000000000000000000000000000000000000000 PUSH1 0x0 MSTORE PUSH1 0x41 PUSH1 0x4 MSTORE PUSH1 0x24 PUSH1 0x0 REVERT JUMPDEST PUSH2 0x2ED DUP3 PUSH2 0x23F JUMP JUMPDEST DUP2 ADD DUP2 DUP2 LT PUSH8 0xFFFFFFFFFFFFFFFF DUP3 GT OR ISZERO PUSH2 0x30C JUMPI PUSH2 0x30B PUSH2 0x2B5 JUMP JUMPDEST JUMPDEST DUP1 PUSH1 0x40 MSTORE POP POP POP JUMP JUMPDEST PUSH1 0x0 PUSH2 0x31F PUSH2 0x15A JUMP JUMPDEST SWAP1 POP PUSH2 0x32B DUP3 DUP3 PUSH2 0x2E4 JUMP JUMPDEST SWAP2 SWAP1 POP JUMP JUMPDEST PUSH1 0x0 PUSH8 0xFFFFFFFFFFFFFFFF DUP3 GT ISZERO PUSH2 0x34B JUMPI PUSH2 0x34A PUSH2 0x2B5 JUMP JUMPDEST JUMPDEST PUSH2 0x354 DUP3 PUSH2 0x23F JUMP JUMPDEST SWAP1 POP PUSH1 0x20 DUP2 ADD SWAP1 POP SWAP2 SWAP1 POP JUMP JUMPDEST PUSH1 0x0 PUSH2 0x374 PUSH2 0x36F DUP5 PUSH2 0x330 JUMP JUMPDEST PUSH2 0x315 JUMP JUMPDEST SWAP1 POP DUP3 DUP2 MSTORE PUSH1 0x20 DUP2 ADD DUP5 DUP5 DUP5 ADD GT ISZERO PUSH2 0x390 JUMPI PUSH2 0x38F PUSH2 0x2B0 JUMP JUMPDEST JUMPDEST PUSH2 0x39B DUP5 DUP3 DUP6 PUSH2 0x215 JUMP JUMPDEST POP SWAP4 SWAP3 POP POP POP JUMP JUMPDEST PUSH1 0x0 DUP3 PUSH1 0x1F DUP4 ADD SLT PUSH2 0x3B8 JUMPI PUSH2 0x3B7 PUSH2 0x2AB JUMP JUMPDEST JUMPDEST DUP2 MLOAD PUSH2 0x3C8 DUP5 DUP3 PUSH1 0x20 DUP7 ADD PUSH2 0x361 JUMP JUMPDEST SWAP2 POP POP SWAP3 SWAP2 POP POP JUMP JUMPDEST PUSH1 0x0 PUSH1 0x20 DUP3 DUP5 SUB SLT ISZERO PUSH2 0x3E7 JUMPI PUSH2 0x3E6 PUSH2 0x164 JUMP JUMPDEST JUMPDEST PUSH1 0x0 DUP3 ADD MLOAD PUSH8 0xFFFFFFFFFFFFFFFF DUP2 GT ISZERO PUSH2 0x405 JUMPI PUSH2 0x404 PUSH2 0x169 JUMP JUMPDEST JUMPDEST PUSH2 0x411 DUP5 DUP3 DUP6 ADD PUSH2 0x3A3 JUMP JUMPDEST SWAP2 POP POP SWAP3 SWAP2 POP POP JUMP INVALID LOG2 PUSH5 0x6970667358 0x22 SLT KECCAK256 SWAP6 0xCA 0xA9 PUSH13 0x793CA3CC8CECC0283F139F2E3A EXP CALLDATASIZE 0x2C SLT SELFDESTRUCT 0xED 0xF CALLDATASIZE CALLDATACOPY DUP5 SWAP2 PUSH13 0x60D75564736F6C634300081000 CALLER "
				},
				"gasEstimates": {
					"creation": {
						"codeDepositCost": "220800",
						"executionCost": "263",
						"totalCost": "221063"
					},
					"external": {
						"callB()": "infinite",
						"setaddB(address)": "24700"
					}
				},
				"methodIdentifiers": {
					"callB()": "44fd4fa0",
					"setaddB(address)": "0fbae26c"
				}
			},
			"storageLayout": {
				"storage": [
					{
						"astId": 3,
						"contract": "project_0x00/mycontract4.sol:mycontract4",
						"label": "addrB",
						"offset": 0,
						"slot": "0",
						"type": "t_address"
					}
				],
				"types": {
					"t_address": {
						"encoding": "inplace",
						"label": "address",
						"numberOfBytes": "20"
					}
				}
			},
			"userdoc": {
				"kind": "user",
				"methods": {},
				"version": 1
			}
		}
	}
}