{
	"project_0x00/mycontract2.sol": {
		"mycontract2": {
			"abi": [
				{
					"inputs": [
						{
							"internalType": "string",
							"name": "dname",
							"type": "string"
						}
					],
					"name": "one",
					"outputs": [],
					"stateMutability": "nonpayable",
					"type": "function"
				},
				{
					"inputs": [
						{
							"internalType": "address",
							"name": "to",
							"type": "address"
						},
						{
							"internalType": "uint256",
							"name": "amount",
							"type": "uint256"
						}
					],
					"name": "two",
					"outputs": [],
					"stateMutability": "nonpayable",
					"type": "function"
				}
			],
			"devdoc": {
				"kind": "dev",
				"methods": {},
				"version": 1
			},
			"evm": {
				"assembly": "    /* \"project_0x00/mycontract2.sol\":61:981  contract mycontract2{... */\n  mstore(0x40, 0x80)\n  callvalue\n  dup1\n  iszero\n  tag_1\n  jumpi\n  0x00\n  dup1\n  revert\ntag_1:\n  pop\n  dataSize(sub_0)\n  dup1\n  dataOffset(sub_0)\n  0x00\n  codecopy\n  0x00\n  return\nstop\n\nsub_0: assembly {\n        /* \"project_0x00/mycontract2.sol\":61:981  contract mycontract2{... */\n      mstore(0x40, 0x80)\n      callvalue\n      dup1\n      iszero\n      tag_1\n      jumpi\n      0x00\n      dup1\n      revert\n    tag_1:\n      pop\n      jumpi(tag_2, lt(calldatasize, 0x04))\n      shr(0xe0, calldataload(0x00))\n      dup1\n      0xe73685d1\n      eq\n      tag_3\n      jumpi\n      dup1\n      0xf5a1c593\n      eq\n      tag_4\n      jumpi\n    tag_2:\n      0x00\n      dup1\n      revert\n        /* \"project_0x00/mycontract2.sol\":930:978  function two(address to, uint amount) external{} */\n    tag_3:\n      tag_5\n      0x04\n      dup1\n      calldatasize\n      sub\n      dup2\n      add\n      swap1\n      tag_6\n      swap2\n      swap1\n      tag_7\n      jump\t// in\n    tag_6:\n      tag_8\n      jump\t// in\n    tag_5:\n      stop\n        /* \"project_0x00/mycontract2.sol\":364:880  function one(string calldata dname) external{... */\n    tag_4:\n      tag_9\n      0x04\n      dup1\n      calldatasize\n      sub\n      dup2\n      add\n      swap1\n      tag_10\n      swap2\n      swap1\n      tag_11\n      jump\t// in\n    tag_10:\n      tag_12\n      jump\t// in\n    tag_9:\n      stop\n        /* \"project_0x00/mycontract2.sol\":930:978  function two(address to, uint amount) external{} */\n    tag_8:\n      pop\n      pop\n      jump\t// out\n        /* \"project_0x00/mycontract2.sol\":364:880  function one(string calldata dname) external{... */\n    tag_12:\n        /* \"project_0x00/mycontract2.sol\":453:469  User storage ptr */\n      0x00\n        /* \"project_0x00/mycontract2.sol\":472:479  richard */\n      0x01\n        /* \"project_0x00/mycontract2.sol\":480:481  0 */\n      0x00\n        /* \"project_0x00/mycontract2.sol\":472:482  richard[0] */\n      dup2\n      sload\n      dup2\n      lt\n      tag_15\n      jumpi\n      tag_16\n      tag_17\n      jump\t// in\n    tag_16:\n    tag_15:\n      swap1\n      0x00\n      mstore\n      keccak256(0x00, 0x20)\n      swap1\n      0x03\n      mul\n      add\n        /* \"project_0x00/mycontract2.sol\":453:482  User storage ptr = richard[0] */\n      swap1\n      pop\n        /* \"project_0x00/mycontract2.sol\":493:514  ptr.name = 'anything' */\n      mload(0x40)\n      dup1\n      0x40\n      add\n      0x40\n      mstore\n      dup1\n      0x08\n      dup2\n      mstore\n      0x20\n      add\n      0x616e797468696e67000000000000000000000000000000000000000000000000\n      dup2\n      mstore\n      pop\n        /* \"project_0x00/mycontract2.sol\":493:496  ptr */\n      dup2\n        /* \"project_0x00/mycontract2.sol\":493:501  ptr.name */\n      0x02\n      add\n        /* \"project_0x00/mycontract2.sol\":493:514  ptr.name = 'anything' */\n      swap1\n      dup2\n      tag_19\n      swap2\n      swap1\n      tag_20\n      jump\t// in\n    tag_19:\n      pop\n        /* \"project_0x00/mycontract2.sol\":553:568  User memory rex */\n      0x00\n        /* \"project_0x00/mycontract2.sol\":571:575  uarr */\n      dup1\n        /* \"project_0x00/mycontract2.sol\":576:577  0 */\n      0x00\n        /* \"project_0x00/mycontract2.sol\":571:578  uarr[0] */\n      dup2\n      sload\n      dup2\n      lt\n      tag_21\n      jumpi\n      tag_22\n      tag_17\n      jump\t// in\n    tag_22:\n    tag_21:\n      swap1\n      0x00\n      mstore\n      keccak256(0x00, 0x20)\n      swap1\n      0x03\n      mul\n      add\n        /* \"project_0x00/mycontract2.sol\":553:578  User memory rex = uarr[0] */\n      mload(0x40)\n      dup1\n      0x60\n      add\n      0x40\n      mstore\n      swap1\n      dup2\n      0x00\n      dup3\n      add\n      0x00\n      swap1\n      sload\n      swap1\n      0x0100\n      exp\n      swap1\n      div\n      0xffffffffffffffffffffffffffffffffffffffff\n      and\n      0xffffffffffffffffffffffffffffffffffffffff\n      and\n      0xffffffffffffffffffffffffffffffffffffffff\n      and\n      dup2\n      mstore\n      0x20\n      add\n      0x01\n      dup3\n      add\n      sload\n      dup2\n      mstore\n      0x20\n      add\n      0x02\n      dup3\n      add\n      dup1\n      sload\n      tag_24\n      swap1\n      tag_25\n      jump\t// in\n    tag_24:\n      dup1\n      0x1f\n      add\n      0x20\n      dup1\n      swap2\n      div\n      mul\n      0x20\n      add\n      mload(0x40)\n      swap1\n      dup2\n      add\n      0x40\n      mstore\n      dup1\n      swap3\n      swap2\n      swap1\n      dup2\n      dup2\n      mstore\n      0x20\n      add\n      dup3\n      dup1\n      sload\n      tag_26\n      swap1\n      tag_25\n      jump\t// in\n    tag_26:\n      dup1\n      iszero\n      tag_27\n      jumpi\n      dup1\n      0x1f\n      lt\n      tag_28\n      jumpi\n      0x0100\n      dup1\n      dup4\n      sload\n      div\n      mul\n      dup4\n      mstore\n      swap2\n      0x20\n      add\n      swap2\n      jump(tag_27)\n    tag_28:\n      dup3\n      add\n      swap2\n      swap1\n      0x00\n      mstore\n      keccak256(0x00, 0x20)\n      swap1\n    tag_29:\n      dup2\n      sload\n      dup2\n      mstore\n      swap1\n      0x01\n      add\n      swap1\n      0x20\n      add\n      dup1\n      dup4\n      gt\n      tag_29\n      jumpi\n      dup3\n      swap1\n      sub\n      0x1f\n      and\n      dup3\n      add\n      swap2\n    tag_27:\n      pop\n      pop\n      pop\n      pop\n      pop\n      dup2\n      mstore\n      pop\n      pop\n      swap1\n      pop\n        /* \"project_0x00/mycontract2.sol\":601:602  2 */\n      0x02\n        /* \"project_0x00/mycontract2.sol\":589:592  rex */\n      dup2\n        /* \"project_0x00/mycontract2.sol\":589:598  rex.value */\n      0x20\n      add\n        /* \"project_0x00/mycontract2.sol\":589:602  rex.value = 2 */\n      dup2\n      dup2\n      mstore\n      pop\n      pop\n        /* \"project_0x00/mycontract2.sol\":682:699  User memory user1 */\n      0x00\n        /* \"project_0x00/mycontract2.sol\":702:728  User(msg.sender, 0, dname) */\n      mload(0x40)\n      dup1\n      0x60\n      add\n      0x40\n      mstore\n      dup1\n        /* \"project_0x00/mycontract2.sol\":707:717  msg.sender */\n      caller\n        /* \"project_0x00/mycontract2.sol\":702:728  User(msg.sender, 0, dname) */\n      0xffffffffffffffffffffffffffffffffffffffff\n      and\n      dup2\n      mstore\n      0x20\n      add\n        /* \"project_0x00/mycontract2.sol\":719:720  0 */\n      0x00\n        /* \"project_0x00/mycontract2.sol\":702:728  User(msg.sender, 0, dname) */\n      dup2\n      mstore\n      0x20\n      add\n        /* \"project_0x00/mycontract2.sol\":722:727  dname */\n      dup7\n      dup7\n        /* \"project_0x00/mycontract2.sol\":702:728  User(msg.sender, 0, dname) */\n      dup1\n      dup1\n      0x1f\n      add\n      0x20\n      dup1\n      swap2\n      div\n      mul\n      0x20\n      add\n      mload(0x40)\n      swap1\n      dup2\n      add\n      0x40\n      mstore\n      dup1\n      swap4\n      swap3\n      swap2\n      swap1\n      dup2\n      dup2\n      mstore\n      0x20\n      add\n      dup4\n      dup4\n      dup1\n      dup3\n      dup5\n      calldatacopy\n      0x00\n      dup2\n      dup5\n      add\n      mstore\n      not(0x1f)\n      0x1f\n      dup3\n      add\n      and\n      swap1\n      pop\n      dup1\n      dup4\n      add\n      swap3\n      pop\n      pop\n      pop\n      pop\n      pop\n      pop\n      pop\n      dup2\n      mstore\n      pop\n        /* \"project_0x00/mycontract2.sol\":682:728  User memory user1 = User(msg.sender, 0, dname) */\n      swap1\n      pop\n        /* \"project_0x00/mycontract2.sol\":739:744  user1 */\n      dup1\n        /* \"project_0x00/mycontract2.sol\":739:748  user1.adr */\n      0x00\n      add\n      mload\n      pop\n        /* \"project_0x00/mycontract2.sol\":785:802  User memory user3 */\n      0x00\n        /* \"project_0x00/mycontract2.sol\":805:851  User({name: dname, value: 0, adr: msg.sender}) */\n      mload(0x40)\n      dup1\n      0x60\n      add\n      0x40\n      mstore\n      dup1\n        /* \"project_0x00/mycontract2.sol\":839:849  msg.sender */\n      caller\n        /* \"project_0x00/mycontract2.sol\":805:851  User({name: dname, value: 0, adr: msg.sender}) */\n      0xffffffffffffffffffffffffffffffffffffffff\n      and\n      dup2\n      mstore\n      0x20\n      add\n        /* \"project_0x00/mycontract2.sol\":831:832  0 */\n      0x00\n        /* \"project_0x00/mycontract2.sol\":805:851  User({name: dname, value: 0, adr: msg.sender}) */\n      dup2\n      mstore\n      0x20\n      add\n        /* \"project_0x00/mycontract2.sol\":817:822  dname */\n      dup8\n      dup8\n        /* \"project_0x00/mycontract2.sol\":805:851  User({name: dname, value: 0, adr: msg.sender}) */\n      dup1\n      dup1\n      0x1f\n      add\n      0x20\n      dup1\n      swap2\n      div\n      mul\n      0x20\n      add\n      mload(0x40)\n      swap1\n      dup2\n      add\n      0x40\n      mstore\n      dup1\n      swap4\n      swap3\n      swap2\n      swap1\n      dup2\n      dup2\n      mstore\n      0x20\n      add\n      dup4\n      dup4\n      dup1\n      dup3\n      dup5\n      calldatacopy\n      0x00\n      dup2\n      dup5\n      add\n      mstore\n      not(0x1f)\n      0x1f\n      dup3\n      add\n      and\n      swap1\n      pop\n      dup1\n      dup4\n      add\n      swap3\n      pop\n      pop\n      pop\n      pop\n      pop\n      pop\n      pop\n      dup2\n      mstore\n      pop\n        /* \"project_0x00/mycontract2.sol\":785:851  User memory user3 = User({name: dname, value: 0, adr: msg.sender}) */\n      swap1\n      pop\n        /* \"project_0x00/mycontract2.sol\":862:867  user3 */\n      dup1\n        /* \"project_0x00/mycontract2.sol\":862:872  user3.name */\n      0x40\n      add\n      mload\n      pop\n        /* \"project_0x00/mycontract2.sol\":408:880  {... */\n      pop\n      pop\n      pop\n      pop\n        /* \"project_0x00/mycontract2.sol\":364:880  function one(string calldata dname) external{... */\n      pop\n      pop\n      jump\t// out\n        /* \"#utility.yul\":88:205   */\n    tag_31:\n        /* \"#utility.yul\":197:198   */\n      0x00\n        /* \"#utility.yul\":194:195   */\n      dup1\n        /* \"#utility.yul\":187:199   */\n      revert\n        /* \"#utility.yul\":211:328   */\n    tag_32:\n        /* \"#utility.yul\":320:321   */\n      0x00\n        /* \"#utility.yul\":317:318   */\n      dup1\n        /* \"#utility.yul\":310:322   */\n      revert\n        /* \"#utility.yul\":334:460   */\n    tag_33:\n        /* \"#utility.yul\":371:378   */\n      0x00\n        /* \"#utility.yul\":411:453   */\n      0xffffffffffffffffffffffffffffffffffffffff\n        /* \"#utility.yul\":404:409   */\n      dup3\n        /* \"#utility.yul\":400:454   */\n      and\n        /* \"#utility.yul\":389:454   */\n      swap1\n      pop\n        /* \"#utility.yul\":334:460   */\n      swap2\n      swap1\n      pop\n      jump\t// out\n        /* \"#utility.yul\":466:562   */\n    tag_34:\n        /* \"#utility.yul\":503:510   */\n      0x00\n        /* \"#utility.yul\":532:556   */\n      tag_68\n        /* \"#utility.yul\":550:555   */\n      dup3\n        /* \"#utility.yul\":532:556   */\n      tag_33\n      jump\t// in\n    tag_68:\n        /* \"#utility.yul\":521:556   */\n      swap1\n      pop\n        /* \"#utility.yul\":466:562   */\n      swap2\n      swap1\n      pop\n      jump\t// out\n        /* \"#utility.yul\":568:690   */\n    tag_35:\n        /* \"#utility.yul\":641:665   */\n      tag_70\n        /* \"#utility.yul\":659:664   */\n      dup2\n        /* \"#utility.yul\":641:665   */\n      tag_34\n      jump\t// in\n    tag_70:\n        /* \"#utility.yul\":634:639   */\n      dup2\n        /* \"#utility.yul\":631:666   */\n      eq\n        /* \"#utility.yul\":621:684   */\n      tag_71\n      jumpi\n        /* \"#utility.yul\":680:681   */\n      0x00\n        /* \"#utility.yul\":677:678   */\n      dup1\n        /* \"#utility.yul\":670:682   */\n      revert\n        /* \"#utility.yul\":621:684   */\n    tag_71:\n        /* \"#utility.yul\":568:690   */\n      pop\n      jump\t// out\n        /* \"#utility.yul\":696:835   */\n    tag_36:\n        /* \"#utility.yul\":742:747   */\n      0x00\n        /* \"#utility.yul\":780:786   */\n      dup2\n        /* \"#utility.yul\":767:787   */\n      calldataload\n        /* \"#utility.yul\":758:787   */\n      swap1\n      pop\n        /* \"#utility.yul\":796:829   */\n      tag_73\n        /* \"#utility.yul\":823:828   */\n      dup2\n        /* \"#utility.yul\":796:829   */\n      tag_35\n      jump\t// in\n    tag_73:\n        /* \"#utility.yul\":696:835   */\n      swap3\n      swap2\n      pop\n      pop\n      jump\t// out\n        /* \"#utility.yul\":841:918   */\n    tag_37:\n        /* \"#utility.yul\":878:885   */\n      0x00\n        /* \"#utility.yul\":907:912   */\n      dup2\n        /* \"#utility.yul\":896:912   */\n      swap1\n      pop\n        /* \"#utility.yul\":841:918   */\n      swap2\n      swap1\n      pop\n      jump\t// out\n        /* \"#utility.yul\":924:1046   */\n    tag_38:\n        /* \"#utility.yul\":997:1021   */\n      tag_76\n        /* \"#utility.yul\":1015:1020   */\n      dup2\n        /* \"#utility.yul\":997:1021   */\n      tag_37\n      jump\t// in\n    tag_76:\n        /* \"#utility.yul\":990:995   */\n      dup2\n        /* \"#utility.yul\":987:1022   */\n      eq\n        /* \"#utility.yul\":977:1040   */\n      tag_77\n      jumpi\n        /* \"#utility.yul\":1036:1037   */\n      0x00\n        /* \"#utility.yul\":1033:1034   */\n      dup1\n        /* \"#utility.yul\":1026:1038   */\n      revert\n        /* \"#utility.yul\":977:1040   */\n    tag_77:\n        /* \"#utility.yul\":924:1046   */\n      pop\n      jump\t// out\n        /* \"#utility.yul\":1052:1191   */\n    tag_39:\n        /* \"#utility.yul\":1098:1103   */\n      0x00\n        /* \"#utility.yul\":1136:1142   */\n      dup2\n        /* \"#utility.yul\":1123:1143   */\n      calldataload\n        /* \"#utility.yul\":1114:1143   */\n      swap1\n      pop\n        /* \"#utility.yul\":1152:1185   */\n      tag_79\n        /* \"#utility.yul\":1179:1184   */\n      dup2\n        /* \"#utility.yul\":1152:1185   */\n      tag_38\n      jump\t// in\n    tag_79:\n        /* \"#utility.yul\":1052:1191   */\n      swap3\n      swap2\n      pop\n      pop\n      jump\t// out\n        /* \"#utility.yul\":1197:1671   */\n    tag_7:\n        /* \"#utility.yul\":1265:1271   */\n      0x00\n        /* \"#utility.yul\":1273:1279   */\n      dup1\n        /* \"#utility.yul\":1322:1324   */\n      0x40\n        /* \"#utility.yul\":1310:1319   */\n      dup4\n        /* \"#utility.yul\":1301:1308   */\n      dup6\n        /* \"#utility.yul\":1297:1320   */\n      sub\n        /* \"#utility.yul\":1293:1325   */\n      slt\n        /* \"#utility.yul\":1290:1409   */\n      iszero\n      tag_81\n      jumpi\n        /* \"#utility.yul\":1328:1407   */\n      tag_82\n      tag_31\n      jump\t// in\n    tag_82:\n        /* \"#utility.yul\":1290:1409   */\n    tag_81:\n        /* \"#utility.yul\":1448:1449   */\n      0x00\n        /* \"#utility.yul\":1473:1526   */\n      tag_83\n        /* \"#utility.yul\":1518:1525   */\n      dup6\n        /* \"#utility.yul\":1509:1515   */\n      dup3\n        /* \"#utility.yul\":1498:1507   */\n      dup7\n        /* \"#utility.yul\":1494:1516   */\n      add\n        /* \"#utility.yul\":1473:1526   */\n      tag_36\n      jump\t// in\n    tag_83:\n        /* \"#utility.yul\":1463:1526   */\n      swap3\n      pop\n        /* \"#utility.yul\":1419:1536   */\n      pop\n        /* \"#utility.yul\":1575:1577   */\n      0x20\n        /* \"#utility.yul\":1601:1654   */\n      tag_84\n        /* \"#utility.yul\":1646:1653   */\n      dup6\n        /* \"#utility.yul\":1637:1643   */\n      dup3\n        /* \"#utility.yul\":1626:1635   */\n      dup7\n        /* \"#utility.yul\":1622:1644   */\n      add\n        /* \"#utility.yul\":1601:1654   */\n      tag_39\n      jump\t// in\n    tag_84:\n        /* \"#utility.yul\":1591:1654   */\n      swap2\n      pop\n        /* \"#utility.yul\":1546:1664   */\n      pop\n        /* \"#utility.yul\":1197:1671   */\n      swap3\n      pop\n      swap3\n      swap1\n      pop\n      jump\t// out\n        /* \"#utility.yul\":1677:1794   */\n    tag_40:\n        /* \"#utility.yul\":1786:1787   */\n      0x00\n        /* \"#utility.yul\":1783:1784   */\n      dup1\n        /* \"#utility.yul\":1776:1788   */\n      revert\n        /* \"#utility.yul\":1800:1917   */\n    tag_41:\n        /* \"#utility.yul\":1909:1910   */\n      0x00\n        /* \"#utility.yul\":1906:1907   */\n      dup1\n        /* \"#utility.yul\":1899:1911   */\n      revert\n        /* \"#utility.yul\":1923:2040   */\n    tag_42:\n        /* \"#utility.yul\":2032:2033   */\n      0x00\n        /* \"#utility.yul\":2029:2030   */\n      dup1\n        /* \"#utility.yul\":2022:2034   */\n      revert\n        /* \"#utility.yul\":2060:2613   */\n    tag_43:\n        /* \"#utility.yul\":2118:2126   */\n      0x00\n        /* \"#utility.yul\":2128:2134   */\n      dup1\n        /* \"#utility.yul\":2178:2181   */\n      dup4\n        /* \"#utility.yul\":2171:2175   */\n      0x1f\n        /* \"#utility.yul\":2163:2169   */\n      dup5\n        /* \"#utility.yul\":2159:2176   */\n      add\n        /* \"#utility.yul\":2155:2182   */\n      slt\n        /* \"#utility.yul\":2145:2267   */\n      tag_89\n      jumpi\n        /* \"#utility.yul\":2186:2265   */\n      tag_90\n      tag_40\n      jump\t// in\n    tag_90:\n        /* \"#utility.yul\":2145:2267   */\n    tag_89:\n        /* \"#utility.yul\":2299:2305   */\n      dup3\n        /* \"#utility.yul\":2286:2306   */\n      calldataload\n        /* \"#utility.yul\":2276:2306   */\n      swap1\n      pop\n        /* \"#utility.yul\":2329:2347   */\n      0xffffffffffffffff\n        /* \"#utility.yul\":2321:2327   */\n      dup2\n        /* \"#utility.yul\":2318:2348   */\n      gt\n        /* \"#utility.yul\":2315:2432   */\n      iszero\n      tag_91\n      jumpi\n        /* \"#utility.yul\":2351:2430   */\n      tag_92\n      tag_41\n      jump\t// in\n    tag_92:\n        /* \"#utility.yul\":2315:2432   */\n    tag_91:\n        /* \"#utility.yul\":2465:2469   */\n      0x20\n        /* \"#utility.yul\":2457:2463   */\n      dup4\n        /* \"#utility.yul\":2453:2470   */\n      add\n        /* \"#utility.yul\":2441:2470   */\n      swap2\n      pop\n        /* \"#utility.yul\":2519:2522   */\n      dup4\n        /* \"#utility.yul\":2511:2515   */\n      0x01\n        /* \"#utility.yul\":2503:2509   */\n      dup3\n        /* \"#utility.yul\":2499:2516   */\n      mul\n        /* \"#utility.yul\":2489:2497   */\n      dup4\n        /* \"#utility.yul\":2485:2517   */\n      add\n        /* \"#utility.yul\":2482:2523   */\n      gt\n        /* \"#utility.yul\":2479:2607   */\n      iszero\n      tag_93\n      jumpi\n        /* \"#utility.yul\":2526:2605   */\n      tag_94\n      tag_42\n      jump\t// in\n    tag_94:\n        /* \"#utility.yul\":2479:2607   */\n    tag_93:\n        /* \"#utility.yul\":2060:2613   */\n      swap3\n      pop\n      swap3\n      swap1\n      pop\n      jump\t// out\n        /* \"#utility.yul\":2619:3148   */\n    tag_11:\n        /* \"#utility.yul\":2690:2696   */\n      0x00\n        /* \"#utility.yul\":2698:2704   */\n      dup1\n        /* \"#utility.yul\":2747:2749   */\n      0x20\n        /* \"#utility.yul\":2735:2744   */\n      dup4\n        /* \"#utility.yul\":2726:2733   */\n      dup6\n        /* \"#utility.yul\":2722:2745   */\n      sub\n        /* \"#utility.yul\":2718:2750   */\n      slt\n        /* \"#utility.yul\":2715:2834   */\n      iszero\n      tag_96\n      jumpi\n        /* \"#utility.yul\":2753:2832   */\n      tag_97\n      tag_31\n      jump\t// in\n    tag_97:\n        /* \"#utility.yul\":2715:2834   */\n    tag_96:\n        /* \"#utility.yul\":2901:2902   */\n      0x00\n        /* \"#utility.yul\":2890:2899   */\n      dup4\n        /* \"#utility.yul\":2886:2903   */\n      add\n        /* \"#utility.yul\":2873:2904   */\n      calldataload\n        /* \"#utility.yul\":2931:2949   */\n      0xffffffffffffffff\n        /* \"#utility.yul\":2923:2929   */\n      dup2\n        /* \"#utility.yul\":2920:2950   */\n      gt\n        /* \"#utility.yul\":2917:3034   */\n      iszero\n      tag_98\n      jumpi\n        /* \"#utility.yul\":2953:3032   */\n      tag_99\n      tag_32\n      jump\t// in\n    tag_99:\n        /* \"#utility.yul\":2917:3034   */\n    tag_98:\n        /* \"#utility.yul\":3066:3131   */\n      tag_100\n        /* \"#utility.yul\":3123:3130   */\n      dup6\n        /* \"#utility.yul\":3114:3120   */\n      dup3\n        /* \"#utility.yul\":3103:3112   */\n      dup7\n        /* \"#utility.yul\":3099:3121   */\n      add\n        /* \"#utility.yul\":3066:3131   */\n      tag_43\n      jump\t// in\n    tag_100:\n        /* \"#utility.yul\":3048:3131   */\n      swap3\n      pop\n      swap3\n      pop\n        /* \"#utility.yul\":2844:3141   */\n      pop\n        /* \"#utility.yul\":2619:3148   */\n      swap3\n      pop\n      swap3\n      swap1\n      pop\n      jump\t// out\n        /* \"#utility.yul\":3154:3334   */\n    tag_17:\n        /* \"#utility.yul\":3202:3279   */\n      0x4e487b7100000000000000000000000000000000000000000000000000000000\n        /* \"#utility.yul\":3199:3200   */\n      0x00\n        /* \"#utility.yul\":3192:3280   */\n      mstore\n        /* \"#utility.yul\":3299:3303   */\n      0x32\n        /* \"#utility.yul\":3296:3297   */\n      0x04\n        /* \"#utility.yul\":3289:3304   */\n      mstore\n        /* \"#utility.yul\":3323:3327   */\n      0x24\n        /* \"#utility.yul\":3320:3321   */\n      0x00\n        /* \"#utility.yul\":3313:3328   */\n      revert\n        /* \"#utility.yul\":3340:3439   */\n    tag_44:\n        /* \"#utility.yul\":3392:3398   */\n      0x00\n        /* \"#utility.yul\":3426:3431   */\n      dup2\n        /* \"#utility.yul\":3420:3432   */\n      mload\n        /* \"#utility.yul\":3410:3432   */\n      swap1\n      pop\n        /* \"#utility.yul\":3340:3439   */\n      swap2\n      swap1\n      pop\n      jump\t// out\n        /* \"#utility.yul\":3445:3625   */\n    tag_45:\n        /* \"#utility.yul\":3493:3570   */\n      0x4e487b7100000000000000000000000000000000000000000000000000000000\n        /* \"#utility.yul\":3490:3491   */\n      0x00\n        /* \"#utility.yul\":3483:3571   */\n      mstore\n        /* \"#utility.yul\":3590:3594   */\n      0x41\n        /* \"#utility.yul\":3587:3588   */\n      0x04\n        /* \"#utility.yul\":3580:3595   */\n      mstore\n        /* \"#utility.yul\":3614:3618   */\n      0x24\n        /* \"#utility.yul\":3611:3612   */\n      0x00\n        /* \"#utility.yul\":3604:3619   */\n      revert\n        /* \"#utility.yul\":3631:3811   */\n    tag_46:\n        /* \"#utility.yul\":3679:3756   */\n      0x4e487b7100000000000000000000000000000000000000000000000000000000\n        /* \"#utility.yul\":3676:3677   */\n      0x00\n        /* \"#utility.yul\":3669:3757   */\n      mstore\n        /* \"#utility.yul\":3776:3780   */\n      0x22\n        /* \"#utility.yul\":3773:3774   */\n      0x04\n        /* \"#utility.yul\":3766:3781   */\n      mstore\n        /* \"#utility.yul\":3800:3804   */\n      0x24\n        /* \"#utility.yul\":3797:3798   */\n      0x00\n        /* \"#utility.yul\":3790:3805   */\n      revert\n        /* \"#utility.yul\":3817:4137   */\n    tag_25:\n        /* \"#utility.yul\":3861:3867   */\n      0x00\n        /* \"#utility.yul\":3898:3899   */\n      0x02\n        /* \"#utility.yul\":3892:3896   */\n      dup3\n        /* \"#utility.yul\":3888:3900   */\n      div\n        /* \"#utility.yul\":3878:3900   */\n      swap1\n      pop\n        /* \"#utility.yul\":3945:3946   */\n      0x01\n        /* \"#utility.yul\":3939:3943   */\n      dup3\n        /* \"#utility.yul\":3935:3947   */\n      and\n        /* \"#utility.yul\":3966:3984   */\n      dup1\n        /* \"#utility.yul\":3956:4037   */\n      tag_106\n      jumpi\n        /* \"#utility.yul\":4022:4026   */\n      0x7f\n        /* \"#utility.yul\":4014:4020   */\n      dup3\n        /* \"#utility.yul\":4010:4027   */\n      and\n        /* \"#utility.yul\":4000:4027   */\n      swap2\n      pop\n        /* \"#utility.yul\":3956:4037   */\n    tag_106:\n        /* \"#utility.yul\":4084:4086   */\n      0x20\n        /* \"#utility.yul\":4076:4082   */\n      dup3\n        /* \"#utility.yul\":4073:4087   */\n      lt\n        /* \"#utility.yul\":4053:4071   */\n      dup2\n        /* \"#utility.yul\":4050:4088   */\n      sub\n        /* \"#utility.yul\":4047:4131   */\n      tag_107\n      jumpi\n        /* \"#utility.yul\":4103:4121   */\n      tag_108\n      tag_46\n      jump\t// in\n    tag_108:\n        /* \"#utility.yul\":4047:4131   */\n    tag_107:\n        /* \"#utility.yul\":3868:4137   */\n      pop\n        /* \"#utility.yul\":3817:4137   */\n      swap2\n      swap1\n      pop\n      jump\t// out\n        /* \"#utility.yul\":4143:4284   */\n    tag_47:\n        /* \"#utility.yul\":4192:4196   */\n      0x00\n        /* \"#utility.yul\":4215:4218   */\n      dup2\n        /* \"#utility.yul\":4207:4218   */\n      swap1\n      pop\n        /* \"#utility.yul\":4238:4241   */\n      dup2\n        /* \"#utility.yul\":4235:4236   */\n      0x00\n        /* \"#utility.yul\":4228:4242   */\n      mstore\n        /* \"#utility.yul\":4272:4276   */\n      0x20\n        /* \"#utility.yul\":4269:4270   */\n      0x00\n        /* \"#utility.yul\":4259:4277   */\n      keccak256\n        /* \"#utility.yul\":4251:4277   */\n      swap1\n      pop\n        /* \"#utility.yul\":4143:4284   */\n      swap2\n      swap1\n      pop\n      jump\t// out\n        /* \"#utility.yul\":4290:4383   */\n    tag_48:\n        /* \"#utility.yul\":4327:4333   */\n      0x00\n        /* \"#utility.yul\":4374:4376   */\n      0x20\n        /* \"#utility.yul\":4369:4371   */\n      0x1f\n        /* \"#utility.yul\":4362:4367   */\n      dup4\n        /* \"#utility.yul\":4358:4372   */\n      add\n        /* \"#utility.yul\":4354:4377   */\n      div\n        /* \"#utility.yul\":4344:4377   */\n      swap1\n      pop\n        /* \"#utility.yul\":4290:4383   */\n      swap2\n      swap1\n      pop\n      jump\t// out\n        /* \"#utility.yul\":4389:4496   */\n    tag_49:\n        /* \"#utility.yul\":4433:4441   */\n      0x00\n        /* \"#utility.yul\":4483:4488   */\n      dup3\n        /* \"#utility.yul\":4477:4481   */\n      dup3\n        /* \"#utility.yul\":4473:4489   */\n      shl\n        /* \"#utility.yul\":4452:4489   */\n      swap1\n      pop\n        /* \"#utility.yul\":4389:4496   */\n      swap3\n      swap2\n      pop\n      pop\n      jump\t// out\n        /* \"#utility.yul\":4502:4895   */\n    tag_50:\n        /* \"#utility.yul\":4571:4577   */\n      0x00\n        /* \"#utility.yul\":4621:4622   */\n      0x08\n        /* \"#utility.yul\":4609:4619   */\n      dup4\n        /* \"#utility.yul\":4605:4623   */\n      mul\n        /* \"#utility.yul\":4644:4741   */\n      tag_113\n        /* \"#utility.yul\":4674:4740   */\n      0xffffffffffffffffffffffffffffffffffffffffffffffffffffffffffffffff\n        /* \"#utility.yul\":4663:4672   */\n      dup3\n        /* \"#utility.yul\":4644:4741   */\n      tag_49\n      jump\t// in\n    tag_113:\n        /* \"#utility.yul\":4762:4801   */\n      tag_114\n        /* \"#utility.yul\":4792:4800   */\n      dup7\n        /* \"#utility.yul\":4781:4790   */\n      dup4\n        /* \"#utility.yul\":4762:4801   */\n      tag_49\n      jump\t// in\n    tag_114:\n        /* \"#utility.yul\":4750:4801   */\n      swap6\n      pop\n        /* \"#utility.yul\":4834:4838   */\n      dup1\n        /* \"#utility.yul\":4830:4839   */\n      not\n        /* \"#utility.yul\":4823:4828   */\n      dup5\n        /* \"#utility.yul\":4819:4840   */\n      and\n        /* \"#utility.yul\":4810:4840   */\n      swap4\n      pop\n        /* \"#utility.yul\":4883:4887   */\n      dup1\n        /* \"#utility.yul\":4873:4881   */\n      dup7\n        /* \"#utility.yul\":4869:4888   */\n      and\n        /* \"#utility.yul\":4862:4867   */\n      dup5\n        /* \"#utility.yul\":4859:4889   */\n      or\n        /* \"#utility.yul\":4849:4889   */\n      swap3\n      pop\n        /* \"#utility.yul\":4578:4895   */\n      pop\n      pop\n        /* \"#utility.yul\":4502:4895   */\n      swap4\n      swap3\n      pop\n      pop\n      pop\n      jump\t// out\n        /* \"#utility.yul\":4901:4961   */\n    tag_51:\n        /* \"#utility.yul\":4929:4932   */\n      0x00\n        /* \"#utility.yul\":4950:4955   */\n      dup2\n        /* \"#utility.yul\":4943:4955   */\n      swap1\n      pop\n        /* \"#utility.yul\":4901:4961   */\n      swap2\n      swap1\n      pop\n      jump\t// out\n        /* \"#utility.yul\":4967:5109   */\n    tag_52:\n        /* \"#utility.yul\":5017:5026   */\n      0x00\n        /* \"#utility.yul\":5050:5103   */\n      tag_117\n        /* \"#utility.yul\":5068:5102   */\n      tag_118\n        /* \"#utility.yul\":5077:5101   */\n      tag_119\n        /* \"#utility.yul\":5095:5100   */\n      dup5\n        /* \"#utility.yul\":5077:5101   */\n      tag_37\n      jump\t// in\n    tag_119:\n        /* \"#utility.yul\":5068:5102   */\n      tag_51\n      jump\t// in\n    tag_118:\n        /* \"#utility.yul\":5050:5103   */\n      tag_37\n      jump\t// in\n    tag_117:\n        /* \"#utility.yul\":5037:5103   */\n      swap1\n      pop\n        /* \"#utility.yul\":4967:5109   */\n      swap2\n      swap1\n      pop\n      jump\t// out\n        /* \"#utility.yul\":5115:5190   */\n    tag_53:\n        /* \"#utility.yul\":5158:5161   */\n      0x00\n        /* \"#utility.yul\":5179:5184   */\n      dup2\n        /* \"#utility.yul\":5172:5184   */\n      swap1\n      pop\n        /* \"#utility.yul\":5115:5190   */\n      swap2\n      swap1\n      pop\n      jump\t// out\n        /* \"#utility.yul\":5196:5465   */\n    tag_54:\n        /* \"#utility.yul\":5306:5345   */\n      tag_122\n        /* \"#utility.yul\":5337:5344   */\n      dup4\n        /* \"#utility.yul\":5306:5345   */\n      tag_52\n      jump\t// in\n    tag_122:\n        /* \"#utility.yul\":5367:5458   */\n      tag_123\n        /* \"#utility.yul\":5416:5457   */\n      tag_124\n        /* \"#utility.yul\":5440:5456   */\n      dup3\n        /* \"#utility.yul\":5416:5457   */\n      tag_53\n      jump\t// in\n    tag_124:\n        /* \"#utility.yul\":5408:5414   */\n      dup5\n        /* \"#utility.yul\":5401:5405   */\n      dup5\n        /* \"#utility.yul\":5395:5406   */\n      sload\n        /* \"#utility.yul\":5367:5458   */\n      tag_50\n      jump\t// in\n    tag_123:\n        /* \"#utility.yul\":5361:5365   */\n      dup3\n        /* \"#utility.yul\":5354:5459   */\n      sstore\n        /* \"#utility.yul\":5272:5465   */\n      pop\n        /* \"#utility.yul\":5196:5465   */\n      pop\n      pop\n      pop\n      jump\t// out\n        /* \"#utility.yul\":5471:5544   */\n    tag_55:\n        /* \"#utility.yul\":5516:5519   */\n      0x00\n        /* \"#utility.yul\":5471:5544   */\n      swap1\n      jump\t// out\n        /* \"#utility.yul\":5550:5739   */\n    tag_56:\n        /* \"#utility.yul\":5627:5659   */\n      tag_127\n      tag_55\n      jump\t// in\n    tag_127:\n        /* \"#utility.yul\":5668:5733   */\n      tag_128\n        /* \"#utility.yul\":5726:5732   */\n      dup2\n        /* \"#utility.yul\":5718:5724   */\n      dup5\n        /* \"#utility.yul\":5712:5716   */\n      dup5\n        /* \"#utility.yul\":5668:5733   */\n      tag_54\n      jump\t// in\n    tag_128:\n        /* \"#utility.yul\":5603:5739   */\n      pop\n        /* \"#utility.yul\":5550:5739   */\n      pop\n      pop\n      jump\t// out\n        /* \"#utility.yul\":5745:5931   */\n    tag_57:\n        /* \"#utility.yul\":5805:5925   */\n    tag_130:\n        /* \"#utility.yul\":5822:5825   */\n      dup2\n        /* \"#utility.yul\":5815:5820   */\n      dup2\n        /* \"#utility.yul\":5812:5826   */\n      lt\n        /* \"#utility.yul\":5805:5925   */\n      iszero\n      tag_132\n      jumpi\n        /* \"#utility.yul\":5876:5915   */\n      tag_133\n        /* \"#utility.yul\":5913:5914   */\n      0x00\n        /* \"#utility.yul\":5906:5911   */\n      dup3\n        /* \"#utility.yul\":5876:5915   */\n      tag_56\n      jump\t// in\n    tag_133:\n        /* \"#utility.yul\":5849:5850   */\n      0x01\n        /* \"#utility.yul\":5842:5847   */\n      dup2\n        /* \"#utility.yul\":5838:5851   */\n      add\n        /* \"#utility.yul\":5829:5851   */\n      swap1\n      pop\n        /* \"#utility.yul\":5805:5925   */\n      jump(tag_130)\n    tag_132:\n        /* \"#utility.yul\":5745:5931   */\n      pop\n      pop\n      jump\t// out\n        /* \"#utility.yul\":5937:6480   */\n    tag_58:\n        /* \"#utility.yul\":6038:6040   */\n      0x1f\n        /* \"#utility.yul\":6033:6036   */\n      dup3\n        /* \"#utility.yul\":6030:6041   */\n      gt\n        /* \"#utility.yul\":6027:6473   */\n      iszero\n      tag_135\n      jumpi\n        /* \"#utility.yul\":6072:6110   */\n      tag_136\n        /* \"#utility.yul\":6104:6109   */\n      dup2\n        /* \"#utility.yul\":6072:6110   */\n      tag_47\n      jump\t// in\n    tag_136:\n        /* \"#utility.yul\":6156:6185   */\n      tag_137\n        /* \"#utility.yul\":6174:6184   */\n      dup5\n        /* \"#utility.yul\":6156:6185   */\n      tag_48\n      jump\t// in\n    tag_137:\n        /* \"#utility.yul\":6146:6154   */\n      dup2\n        /* \"#utility.yul\":6142:6186   */\n      add\n        /* \"#utility.yul\":6339:6341   */\n      0x20\n        /* \"#utility.yul\":6327:6337   */\n      dup6\n        /* \"#utility.yul\":6324:6342   */\n      lt\n        /* \"#utility.yul\":6321:6370   */\n      iszero\n      tag_138\n      jumpi\n        /* \"#utility.yul\":6360:6368   */\n      dup2\n        /* \"#utility.yul\":6345:6368   */\n      swap1\n      pop\n        /* \"#utility.yul\":6321:6370   */\n    tag_138:\n        /* \"#utility.yul\":6383:6463   */\n      tag_139\n        /* \"#utility.yul\":6439:6461   */\n      tag_140\n        /* \"#utility.yul\":6457:6460   */\n      dup6\n        /* \"#utility.yul\":6439:6461   */\n      tag_48\n      jump\t// in\n    tag_140:\n        /* \"#utility.yul\":6429:6437   */\n      dup4\n        /* \"#utility.yul\":6425:6462   */\n      add\n        /* \"#utility.yul\":6412:6423   */\n      dup3\n        /* \"#utility.yul\":6383:6463   */\n      tag_57\n      jump\t// in\n    tag_139:\n        /* \"#utility.yul\":6042:6473   */\n      pop\n      pop\n        /* \"#utility.yul\":6027:6473   */\n    tag_135:\n        /* \"#utility.yul\":5937:6480   */\n      pop\n      pop\n      pop\n      jump\t// out\n        /* \"#utility.yul\":6486:6603   */\n    tag_59:\n        /* \"#utility.yul\":6540:6548   */\n      0x00\n        /* \"#utility.yul\":6590:6595   */\n      dup3\n        /* \"#utility.yul\":6584:6588   */\n      dup3\n        /* \"#utility.yul\":6580:6596   */\n      shr\n        /* \"#utility.yul\":6559:6596   */\n      swap1\n      pop\n        /* \"#utility.yul\":6486:6603   */\n      swap3\n      swap2\n      pop\n      pop\n      jump\t// out\n        /* \"#utility.yul\":6609:6778   */\n    tag_60:\n        /* \"#utility.yul\":6653:6659   */\n      0x00\n        /* \"#utility.yul\":6686:6737   */\n      tag_143\n        /* \"#utility.yul\":6734:6735   */\n      0x00\n        /* \"#utility.yul\":6730:6736   */\n      not\n        /* \"#utility.yul\":6722:6727   */\n      dup5\n        /* \"#utility.yul\":6719:6720   */\n      0x08\n        /* \"#utility.yul\":6715:6728   */\n      mul\n        /* \"#utility.yul\":6686:6737   */\n      tag_59\n      jump\t// in\n    tag_143:\n        /* \"#utility.yul\":6682:6738   */\n      not\n        /* \"#utility.yul\":6767:6771   */\n      dup1\n        /* \"#utility.yul\":6761:6765   */\n      dup4\n        /* \"#utility.yul\":6757:6772   */\n      and\n        /* \"#utility.yul\":6747:6772   */\n      swap2\n      pop\n        /* \"#utility.yul\":6660:6778   */\n      pop\n        /* \"#utility.yul\":6609:6778   */\n      swap3\n      swap2\n      pop\n      pop\n      jump\t// out\n        /* \"#utility.yul\":6783:7078   */\n    tag_61:\n        /* \"#utility.yul\":6859:6863   */\n      0x00\n        /* \"#utility.yul\":7005:7034   */\n      tag_145\n        /* \"#utility.yul\":7030:7033   */\n      dup4\n        /* \"#utility.yul\":7024:7028   */\n      dup4\n        /* \"#utility.yul\":7005:7034   */\n      tag_60\n      jump\t// in\n    tag_145:\n        /* \"#utility.yul\":6997:7034   */\n      swap2\n      pop\n        /* \"#utility.yul\":7067:7070   */\n      dup3\n        /* \"#utility.yul\":7064:7065   */\n      0x02\n        /* \"#utility.yul\":7060:7071   */\n      mul\n        /* \"#utility.yul\":7054:7058   */\n      dup3\n        /* \"#utility.yul\":7051:7072   */\n      or\n        /* \"#utility.yul\":7043:7072   */\n      swap1\n      pop\n        /* \"#utility.yul\":6783:7078   */\n      swap3\n      swap2\n      pop\n      pop\n      jump\t// out\n        /* \"#utility.yul\":7083:8478   */\n    tag_20:\n        /* \"#utility.yul\":7200:7237   */\n      tag_147\n        /* \"#utility.yul\":7233:7236   */\n      dup3\n        /* \"#utility.yul\":7200:7237   */\n      tag_44\n      jump\t// in\n    tag_147:\n        /* \"#utility.yul\":7302:7320   */\n      0xffffffffffffffff\n        /* \"#utility.yul\":7294:7300   */\n      dup2\n        /* \"#utility.yul\":7291:7321   */\n      gt\n        /* \"#utility.yul\":7288:7344   */\n      iszero\n      tag_148\n      jumpi\n        /* \"#utility.yul\":7324:7342   */\n      tag_149\n      tag_45\n      jump\t// in\n    tag_149:\n        /* \"#utility.yul\":7288:7344   */\n    tag_148:\n        /* \"#utility.yul\":7368:7406   */\n      tag_150\n        /* \"#utility.yul\":7400:7404   */\n      dup3\n        /* \"#utility.yul\":7394:7405   */\n      sload\n        /* \"#utility.yul\":7368:7406   */\n      tag_25\n      jump\t// in\n    tag_150:\n        /* \"#utility.yul\":7453:7520   */\n      tag_151\n        /* \"#utility.yul\":7513:7519   */\n      dup3\n        /* \"#utility.yul\":7505:7511   */\n      dup3\n        /* \"#utility.yul\":7499:7503   */\n      dup6\n        /* \"#utility.yul\":7453:7520   */\n      tag_58\n      jump\t// in\n    tag_151:\n        /* \"#utility.yul\":7547:7548   */\n      0x00\n        /* \"#utility.yul\":7571:7575   */\n      0x20\n        /* \"#utility.yul\":7558:7575   */\n      swap1\n      pop\n        /* \"#utility.yul\":7603:7605   */\n      0x1f\n        /* \"#utility.yul\":7595:7601   */\n      dup4\n        /* \"#utility.yul\":7592:7606   */\n      gt\n        /* \"#utility.yul\":7620:7621   */\n      0x01\n        /* \"#utility.yul\":7615:8233   */\n      dup2\n      eq\n      tag_153\n      jumpi\n        /* \"#utility.yul\":8277:8278   */\n      0x00\n        /* \"#utility.yul\":8294:8300   */\n      dup5\n        /* \"#utility.yul\":8291:8368   */\n      iszero\n      tag_154\n      jumpi\n        /* \"#utility.yul\":8343:8352   */\n      dup3\n        /* \"#utility.yul\":8338:8341   */\n      dup8\n        /* \"#utility.yul\":8334:8353   */\n      add\n        /* \"#utility.yul\":8328:8354   */\n      mload\n        /* \"#utility.yul\":8319:8354   */\n      swap1\n      pop\n        /* \"#utility.yul\":8291:8368   */\n    tag_154:\n        /* \"#utility.yul\":8394:8461   */\n      tag_155\n        /* \"#utility.yul\":8454:8460   */\n      dup6\n        /* \"#utility.yul\":8447:8452   */\n      dup3\n        /* \"#utility.yul\":8394:8461   */\n      tag_61\n      jump\t// in\n    tag_155:\n        /* \"#utility.yul\":8388:8392   */\n      dup7\n        /* \"#utility.yul\":8381:8462   */\n      sstore\n        /* \"#utility.yul\":8250:8472   */\n      pop\n        /* \"#utility.yul\":7585:8472   */\n      jump(tag_152)\n        /* \"#utility.yul\":7615:8233   */\n    tag_153:\n        /* \"#utility.yul\":7667:7671   */\n      0x1f\n        /* \"#utility.yul\":7663:7672   */\n      not\n        /* \"#utility.yul\":7655:7661   */\n      dup5\n        /* \"#utility.yul\":7651:7673   */\n      and\n        /* \"#utility.yul\":7701:7738   */\n      tag_156\n        /* \"#utility.yul\":7733:7737   */\n      dup7\n        /* \"#utility.yul\":7701:7738   */\n      tag_47\n      jump\t// in\n    tag_156:\n        /* \"#utility.yul\":7760:7761   */\n      0x00\n        /* \"#utility.yul\":7774:7982   */\n    tag_157:\n        /* \"#utility.yul\":7788:7795   */\n      dup3\n        /* \"#utility.yul\":7785:7786   */\n      dup2\n        /* \"#utility.yul\":7782:7796   */\n      lt\n        /* \"#utility.yul\":7774:7982   */\n      iszero\n      tag_159\n      jumpi\n        /* \"#utility.yul\":7867:7876   */\n      dup5\n        /* \"#utility.yul\":7862:7865   */\n      dup10\n        /* \"#utility.yul\":7858:7877   */\n      add\n        /* \"#utility.yul\":7852:7878   */\n      mload\n        /* \"#utility.yul\":7844:7850   */\n      dup3\n        /* \"#utility.yul\":7837:7879   */\n      sstore\n        /* \"#utility.yul\":7918:7919   */\n      0x01\n        /* \"#utility.yul\":7910:7916   */\n      dup3\n        /* \"#utility.yul\":7906:7920   */\n      add\n        /* \"#utility.yul\":7896:7920   */\n      swap2\n      pop\n        /* \"#utility.yul\":7965:7967   */\n      0x20\n        /* \"#utility.yul\":7954:7963   */\n      dup6\n        /* \"#utility.yul\":7950:7968   */\n      add\n        /* \"#utility.yul\":7937:7968   */\n      swap5\n      pop\n        /* \"#utility.yul\":7811:7815   */\n      0x20\n        /* \"#utility.yul\":7808:7809   */\n      dup2\n        /* \"#utility.yul\":7804:7816   */\n      add\n        /* \"#utility.yul\":7799:7816   */\n      swap1\n      pop\n        /* \"#utility.yul\":7774:7982   */\n      jump(tag_157)\n    tag_159:\n        /* \"#utility.yul\":8010:8016   */\n      dup7\n        /* \"#utility.yul\":8001:8008   */\n      dup4\n        /* \"#utility.yul\":7998:8017   */\n      lt\n        /* \"#utility.yul\":7995:8174   */\n      iszero\n      tag_160\n      jumpi\n        /* \"#utility.yul\":8068:8077   */\n      dup5\n        /* \"#utility.yul\":8063:8066   */\n      dup10\n        /* \"#utility.yul\":8059:8078   */\n      add\n        /* \"#utility.yul\":8053:8079   */\n      mload\n        /* \"#utility.yul\":8111:8159   */\n      tag_161\n        /* \"#utility.yul\":8153:8157   */\n      0x1f\n        /* \"#utility.yul\":8145:8151   */\n      dup10\n        /* \"#utility.yul\":8141:8158   */\n      and\n        /* \"#utility.yul\":8130:8139   */\n      dup3\n        /* \"#utility.yul\":8111:8159   */\n      tag_60\n      jump\t// in\n    tag_161:\n        /* \"#utility.yul\":8103:8109   */\n      dup4\n        /* \"#utility.yul\":8096:8160   */\n      sstore\n        /* \"#utility.yul\":8018:8174   */\n      pop\n        /* \"#utility.yul\":7995:8174   */\n    tag_160:\n        /* \"#utility.yul\":8220:8221   */\n      0x01\n        /* \"#utility.yul\":8216:8217   */\n      0x02\n        /* \"#utility.yul\":8208:8214   */\n      dup9\n        /* \"#utility.yul\":8204:8218   */\n      mul\n        /* \"#utility.yul\":8200:8222   */\n      add\n        /* \"#utility.yul\":8194:8198   */\n      dup9\n        /* \"#utility.yul\":8187:8223   */\n      sstore\n        /* \"#utility.yul\":7622:8233   */\n      pop\n      pop\n      pop\n        /* \"#utility.yul\":7585:8472   */\n    tag_152:\n      pop\n        /* \"#utility.yul\":7175:8478   */\n      pop\n      pop\n      pop\n        /* \"#utility.yul\":7083:8478   */\n      pop\n      pop\n      jump\t// out\n\n    auxdata: 0xa26469706673582212204c7aae1fea39c2a457a047b68ca7b72a5e84493cc4b623e1c5e4047b93fe657e64736f6c63430008100033\n}\n",
				"bytecode": {
					"linkReferences": {},
					"object": "608060405234801561001057600080fd5b50610828806100206000396000f3fe608060405234801561001057600080fd5b50600436106100365760003560e01c8063e73685d11461003b578063f5a1c59314610057575b600080fd5b610055600480360381019061005091906103b9565b610073565b005b610071600480360381019061006c919061045e565b610077565b005b5050565b6000600160008154811061008e5761008d6104ab565b5b906000526020600020906003020190506040518060400160405280600881526020017f616e797468696e670000000000000000000000000000000000000000000000008152508160020190816100e49190610720565b506000806000815481106100fb576100fa6104ab565b5b90600052602060002090600302016040518060600160405290816000820160009054906101000a900473ffffffffffffffffffffffffffffffffffffffff1673ffffffffffffffffffffffffffffffffffffffff1673ffffffffffffffffffffffffffffffffffffffff1681526020016001820154815260200160028201805461018490610543565b80601f01602080910402602001604051908101604052809291908181526020018280546101b090610543565b80156101fd5780601f106101d2576101008083540402835291602001916101fd565b820191906000526020600020905b8154815290600101906020018083116101e057829003601f168201915b50505050508152505090506002816020018181525050600060405180606001604052803373ffffffffffffffffffffffffffffffffffffffff1681526020016000815260200186868080601f016020809104026020016040519081016040528093929190818152602001838380828437600081840152601f19601f820116905080830192505050505050508152509050806000015150600060405180606001604052803373ffffffffffffffffffffffffffffffffffffffff1681526020016000815260200187878080601f016020809104026020016040519081016040528093929190818152602001838380828437600081840152601f19601f820116905080830192505050505050508152509050806040015150505050505050565b600080fd5b600080fd5b600073ffffffffffffffffffffffffffffffffffffffff82169050919050565b600061035082610325565b9050919050565b61036081610345565b811461036b57600080fd5b50565b60008135905061037d81610357565b92915050565b6000819050919050565b61039681610383565b81146103a157600080fd5b50565b6000813590506103b38161038d565b92915050565b600080604083850312156103d0576103cf61031b565b5b60006103de8582860161036e565b92505060206103ef858286016103a4565b9150509250929050565b600080fd5b600080fd5b600080fd5b60008083601f84011261041e5761041d6103f9565b5b8235905067ffffffffffffffff81111561043b5761043a6103fe565b5b60208301915083600182028301111561045757610456610403565b5b9250929050565b600080602083850312156104755761047461031b565b5b600083013567ffffffffffffffff81111561049357610492610320565b5b61049f85828601610408565b92509250509250929050565b7f4e487b7100000000000000000000000000000000000000000000000000000000600052603260045260246000fd5b600081519050919050565b7f4e487b7100000000000000000000000000000000000000000000000000000000600052604160045260246000fd5b7f4e487b7100000000000000000000000000000000000000000000000000000000600052602260045260246000fd5b6000600282049050600182168061055b57607f821691505b60208210810361056e5761056d610514565b5b50919050565b60008190508160005260206000209050919050565b60006020601f8301049050919050565b600082821b905092915050565b6000600883026105d67fffffffffffffffffffffffffffffffffffffffffffffffffffffffffffffffff82610599565b6105e08683610599565b95508019841693508086168417925050509392505050565b6000819050919050565b600061061d61061861061384610383565b6105f8565b610383565b9050919050565b6000819050919050565b61063783610602565b61064b61064382610624565b8484546105a6565b825550505050565b600090565b610660610653565b61066b81848461062e565b505050565b5b8181101561068f57610684600082610658565b600181019050610671565b5050565b601f8211156106d4576106a581610574565b6106ae84610589565b810160208510156106bd578190505b6106d16106c985610589565b830182610670565b50505b505050565b600082821c905092915050565b60006106f7600019846008026106d9565b1980831691505092915050565b600061071083836106e6565b9150826002028217905092915050565b610729826104da565b67ffffffffffffffff811115610742576107416104e5565b5b61074c8254610543565b610757828285610693565b600060209050601f83116001811461078a5760008415610778578287015190505b6107828582610704565b8655506107ea565b601f19841661079886610574565b60005b828110156107c05784890151825560018201915060208501945060208101905061079b565b868310156107dd57848901516107d9601f8916826106e6565b8355505b6001600288020188555050505b50505050505056fea26469706673582212204c7aae1fea39c2a457a047b68ca7b72a5e84493cc4b623e1c5e4047b93fe657e64736f6c63430008100033",
					"opcodes": "PUSH1 0x80 PUSH1 0x40 MSTORE CALLVALUE DUP1 ISZERO PUSH2 0x10 JUMPI PUSH1 0x0 DUP1 REVERT JUMPDEST POP PUSH2 0x828 DUP1 PUSH2 0x20 PUSH1 0x0 CODECOPY PUSH1 0x0 RETURN INVALID PUSH1 0x80 PUSH1 0x40 MSTORE CALLVALUE DUP1 ISZERO PUSH2 0x10 JUMPI PUSH1 0x0 DUP1 REVERT JUMPDEST POP PUSH1 0x4 CALLDATASIZE LT PUSH2 0x36 JUMPI PUSH1 0x0 CALLDATALOAD PUSH1 0xE0 SHR DUP1 PUSH4 0xE73685D1 EQ PUSH2 0x3B JUMPI DUP1 PUSH4 0xF5A1C593 EQ PUSH2 0x57 JUMPI JUMPDEST PUSH1 0x0 DUP1 REVERT JUMPDEST PUSH2 0x55 PUSH1 0x4 DUP1 CALLDATASIZE SUB DUP2 ADD SWAP1 PUSH2 0x50 SWAP2 SWAP1 PUSH2 0x3B9 JUMP JUMPDEST PUSH2 0x73 JUMP JUMPDEST STOP JUMPDEST PUSH2 0x71 PUSH1 0x4 DUP1 CALLDATASIZE SUB DUP2 ADD SWAP1 PUSH2 0x6C SWAP2 SWAP1 PUSH2 0x45E JUMP JUMPDEST PUSH2 0x77 JUMP JUMPDEST STOP JUMPDEST POP POP JUMP JUMPDEST PUSH1 0x0 PUSH1 0x1 PUSH1 0x0 DUP2 SLOAD DUP2 LT PUSH2 0x8E JUMPI PUSH2 0x8D PUSH2 0x4AB JUMP JUMPDEST JUMPDEST SWAP1 PUSH1 0x0 MSTORE PUSH1 0x20 PUSH1 0x0 KECCAK256 SWAP1 PUSH1 0x3 MUL ADD SWAP1 POP PUSH1 0x40 MLOAD DUP1 PUSH1 0x40 ADD PUSH1 0x40 MSTORE DUP1 PUSH1 0x8 DUP2 MSTORE PUSH1 0x20 ADD PUSH32 0x616E797468696E67000000000000000000000000000000000000000000000000 DUP2 MSTORE POP DUP2 PUSH1 0x2 ADD SWAP1 DUP2 PUSH2 0xE4 SWAP2 SWAP1 PUSH2 0x720 JUMP JUMPDEST POP PUSH1 0x0 DUP1 PUSH1 0x0 DUP2 SLOAD DUP2 LT PUSH2 0xFB JUMPI PUSH2 0xFA PUSH2 0x4AB JUMP JUMPDEST JUMPDEST SWAP1 PUSH1 0x0 MSTORE PUSH1 0x20 PUSH1 0x0 KECCAK256 SWAP1 PUSH1 0x3 MUL ADD PUSH1 0x40 MLOAD DUP1 PUSH1 0x60 ADD PUSH1 0x40 MSTORE SWAP1 DUP2 PUSH1 0x0 DUP3 ADD PUSH1 0x0 SWAP1 SLOAD SWAP1 PUSH2 0x100 EXP SWAP1 DIV PUSH20 0xFFFFFFFFFFFFFFFFFFFFFFFFFFFFFFFFFFFFFFFF AND PUSH20 0xFFFFFFFFFFFFFFFFFFFFFFFFFFFFFFFFFFFFFFFF AND PUSH20 0xFFFFFFFFFFFFFFFFFFFFFFFFFFFFFFFFFFFFFFFF AND DUP2 MSTORE PUSH1 0x20 ADD PUSH1 0x1 DUP3 ADD SLOAD DUP2 MSTORE PUSH1 0x20 ADD PUSH1 0x2 DUP3 ADD DUP1 SLOAD PUSH2 0x184 SWAP1 PUSH2 0x543 JUMP JUMPDEST DUP1 PUSH1 0x1F ADD PUSH1 0x20 DUP1 SWAP2 DIV MUL PUSH1 0x20 ADD PUSH1 0x40 MLOAD SWAP1 DUP2 ADD PUSH1 0x40 MSTORE DUP1 SWAP3 SWAP2 SWAP1 DUP2 DUP2 MSTORE PUSH1 0x20 ADD DUP3 DUP1 SLOAD PUSH2 0x1B0 SWAP1 PUSH2 0x543 JUMP JUMPDEST DUP1 ISZERO PUSH2 0x1FD JUMPI DUP1 PUSH1 0x1F LT PUSH2 0x1D2 JUMPI PUSH2 0x100 DUP1 DUP4 SLOAD DIV MUL DUP4 MSTORE SWAP2 PUSH1 0x20 ADD SWAP2 PUSH2 0x1FD JUMP JUMPDEST DUP3 ADD SWAP2 SWAP1 PUSH1 0x0 MSTORE PUSH1 0x20 PUSH1 0x0 KECCAK256 SWAP1 JUMPDEST DUP2 SLOAD DUP2 MSTORE SWAP1 PUSH1 0x1 ADD SWAP1 PUSH1 0x20 ADD DUP1 DUP4 GT PUSH2 0x1E0 JUMPI DUP3 SWAP1 SUB PUSH1 0x1F AND DUP3 ADD SWAP2 JUMPDEST POP POP POP POP POP DUP2 MSTORE POP POP SWAP1 POP PUSH1 0x2 DUP2 PUSH1 0x20 ADD DUP2 DUP2 MSTORE POP POP PUSH1 0x0 PUSH1 0x40 MLOAD DUP1 PUSH1 0x60 ADD PUSH1 0x40 MSTORE DUP1 CALLER PUSH20 0xFFFFFFFFFFFFFFFFFFFFFFFFFFFFFFFFFFFFFFFF AND DUP2 MSTORE PUSH1 0x20 ADD PUSH1 0x0 DUP2 MSTORE PUSH1 0x20 ADD DUP7 DUP7 DUP1 DUP1 PUSH1 0x1F ADD PUSH1 0x20 DUP1 SWAP2 DIV MUL PUSH1 0x20 ADD PUSH1 0x40 MLOAD SWAP1 DUP2 ADD PUSH1 0x40 MSTORE DUP1 SWAP4 SWAP3 SWAP2 SWAP1 DUP2 DUP2 MSTORE PUSH1 0x20 ADD DUP4 DUP4 DUP1 DUP3 DUP5 CALLDATACOPY PUSH1 0x0 DUP2 DUP5 ADD MSTORE PUSH1 0x1F NOT PUSH1 0x1F DUP3 ADD AND SWAP1 POP DUP1 DUP4 ADD SWAP3 POP POP POP POP POP POP POP DUP2 MSTORE POP SWAP1 POP DUP1 PUSH1 0x0 ADD MLOAD POP PUSH1 0x0 PUSH1 0x40 MLOAD DUP1 PUSH1 0x60 ADD PUSH1 0x40 MSTORE DUP1 CALLER PUSH20 0xFFFFFFFFFFFFFFFFFFFFFFFFFFFFFFFFFFFFFFFF AND DUP2 MSTORE PUSH1 0x20 ADD PUSH1 0x0 DUP2 MSTORE PUSH1 0x20 ADD DUP8 DUP8 DUP1 DUP1 PUSH1 0x1F ADD PUSH1 0x20 DUP1 SWAP2 DIV MUL PUSH1 0x20 ADD PUSH1 0x40 MLOAD SWAP1 DUP2 ADD PUSH1 0x40 MSTORE DUP1 SWAP4 SWAP3 SWAP2 SWAP1 DUP2 DUP2 MSTORE PUSH1 0x20 ADD DUP4 DUP4 DUP1 DUP3 DUP5 CALLDATACOPY PUSH1 0x0 DUP2 DUP5 ADD MSTORE PUSH1 0x1F NOT PUSH1 0x1F DUP3 ADD AND SWAP1 POP DUP1 DUP4 ADD SWAP3 POP POP POP POP POP POP POP DUP2 MSTORE POP SWAP1 POP DUP1 PUSH1 0x40 ADD MLOAD POP POP POP POP POP POP POP JUMP JUMPDEST PUSH1 0x0 DUP1 REVERT JUMPDEST PUSH1 0x0 DUP1 REVERT JUMPDEST PUSH1 0x0 PUSH20 0xFFFFFFFFFFFFFFFFFFFFFFFFFFFFFFFFFFFFFFFF DUP3 AND SWAP1 POP SWAP2 SWAP1 POP JUMP JUMPDEST PUSH1 0x0 PUSH2 0x350 DUP3 PUSH2 0x325 JUMP JUMPDEST SWAP1 POP SWAP2 SWAP1 POP JUMP JUMPDEST PUSH2 0x360 DUP2 PUSH2 0x345 JUMP JUMPDEST DUP2 EQ PUSH2 0x36B JUMPI PUSH1 0x0 DUP1 REVERT JUMPDEST POP JUMP JUMPDEST PUSH1 0x0 DUP2 CALLDATALOAD SWAP1 POP PUSH2 0x37D DUP2 PUSH2 0x357 JUMP JUMPDEST SWAP3 SWAP2 POP POP JUMP JUMPDEST PUSH1 0x0 DUP2 SWAP1 POP SWAP2 SWAP1 POP JUMP JUMPDEST PUSH2 0x396 DUP2 PUSH2 0x383 JUMP JUMPDEST DUP2 EQ PUSH2 0x3A1 JUMPI PUSH1 0x0 DUP1 REVERT JUMPDEST POP JUMP JUMPDEST PUSH1 0x0 DUP2 CALLDATALOAD SWAP1 POP PUSH2 0x3B3 DUP2 PUSH2 0x38D JUMP JUMPDEST SWAP3 SWAP2 POP POP JUMP JUMPDEST PUSH1 0x0 DUP1 PUSH1 0x40 DUP4 DUP6 SUB SLT ISZERO PUSH2 0x3D0 JUMPI PUSH2 0x3CF PUSH2 0x31B JUMP JUMPDEST JUMPDEST PUSH1 0x0 PUSH2 0x3DE DUP6 DUP3 DUP7 ADD PUSH2 0x36E JUMP JUMPDEST SWAP3 POP POP PUSH1 0x20 PUSH2 0x3EF DUP6 DUP3 DUP7 ADD PUSH2 0x3A4 JUMP JUMPDEST SWAP2 POP POP SWAP3 POP SWAP3 SWAP1 POP JUMP JUMPDEST PUSH1 0x0 DUP1 REVERT JUMPDEST PUSH1 0x0 DUP1 REVERT JUMPDEST PUSH1 0x0 DUP1 REVERT JUMPDEST PUSH1 0x0 DUP1 DUP4 PUSH1 0x1F DUP5 ADD SLT PUSH2 0x41E JUMPI PUSH2 0x41D PUSH2 0x3F9 JUMP JUMPDEST JUMPDEST DUP3 CALLDATALOAD SWAP1 POP PUSH8 0xFFFFFFFFFFFFFFFF DUP2 GT ISZERO PUSH2 0x43B JUMPI PUSH2 0x43A PUSH2 0x3FE JUMP JUMPDEST JUMPDEST PUSH1 0x20 DUP4 ADD SWAP2 POP DUP4 PUSH1 0x1 DUP3 MUL DUP4 ADD GT ISZERO PUSH2 0x457 JUMPI PUSH2 0x456 PUSH2 0x403 JUMP JUMPDEST JUMPDEST SWAP3 POP SWAP3 SWAP1 POP JUMP JUMPDEST PUSH1 0x0 DUP1 PUSH1 0x20 DUP4 DUP6 SUB SLT ISZERO PUSH2 0x475 JUMPI PUSH2 0x474 PUSH2 0x31B JUMP JUMPDEST JUMPDEST PUSH1 0x0 DUP4 ADD CALLDATALOAD PUSH8 0xFFFFFFFFFFFFFFFF DUP2 GT ISZERO PUSH2 0x493 JUMPI PUSH2 0x492 PUSH2 0x320 JUMP JUMPDEST JUMPDEST PUSH2 0x49F DUP6 DUP3 DUP7 ADD PUSH2 0x408 JUMP JUMPDEST SWAP3 POP SWAP3 POP POP SWAP3 POP SWAP3 SWAP1 POP JUMP JUMPDEST PUSH32 0x4E487B7100000000000000000000000000000000000000000000000000000000 PUSH1 0x0 MSTORE PUSH1 0x32 PUSH1 0x4 MSTORE PUSH1 0x24 PUSH1 0x0 REVERT JUMPDEST PUSH1 0x0 DUP2 MLOAD SWAP1 POP SWAP2 SWAP1 POP JUMP JUMPDEST PUSH32 0x4E487B7100000000000000000000000000000000000000000000000000000000 PUSH1 0x0 MSTORE PUSH1 0x41 PUSH1 0x4 MSTORE PUSH1 0x24 PUSH1 0x0 REVERT JUMPDEST PUSH32 0x4E487B7100000000000000000000000000000000000000000000000000000000 PUSH1 0x0 MSTORE PUSH1 0x22 PUSH1 0x4 MSTORE PUSH1 0x24 PUSH1 0x0 REVERT JUMPDEST PUSH1 0x0 PUSH1 0x2 DUP3 DIV SWAP1 POP PUSH1 0x1 DUP3 AND DUP1 PUSH2 0x55B JUMPI PUSH1 0x7F DUP3 AND SWAP2 POP JUMPDEST PUSH1 0x20 DUP3 LT DUP2 SUB PUSH2 0x56E JUMPI PUSH2 0x56D PUSH2 0x514 JUMP JUMPDEST JUMPDEST POP SWAP2 SWAP1 POP JUMP JUMPDEST PUSH1 0x0 DUP2 SWAP1 POP DUP2 PUSH1 0x0 MSTORE PUSH1 0x20 PUSH1 0x0 KECCAK256 SWAP1 POP SWAP2 SWAP1 POP JUMP JUMPDEST PUSH1 0x0 PUSH1 0x20 PUSH1 0x1F DUP4 ADD DIV SWAP1 POP SWAP2 SWAP1 POP JUMP JUMPDEST PUSH1 0x0 DUP3 DUP3 SHL SWAP1 POP SWAP3 SWAP2 POP POP JUMP JUMPDEST PUSH1 0x0 PUSH1 0x8 DUP4 MUL PUSH2 0x5D6 PUSH32 0xFFFFFFFFFFFFFFFFFFFFFFFFFFFFFFFFFFFFFFFFFFFFFFFFFFFFFFFFFFFFFFFF DUP3 PUSH2 0x599 JUMP JUMPDEST PUSH2 0x5E0 DUP7 DUP4 PUSH2 0x599 JUMP JUMPDEST SWAP6 POP DUP1 NOT DUP5 AND SWAP4 POP DUP1 DUP7 AND DUP5 OR SWAP3 POP POP POP SWAP4 SWAP3 POP POP POP JUMP JUMPDEST PUSH1 0x0 DUP2 SWAP1 POP SWAP2 SWAP1 POP JUMP JUMPDEST PUSH1 0x0 PUSH2 0x61D PUSH2 0x618 PUSH2 0x613 DUP5 PUSH2 0x383 JUMP JUMPDEST PUSH2 0x5F8 JUMP JUMPDEST PUSH2 0x383 JUMP JUMPDEST SWAP1 POP SWAP2 SWAP1 POP JUMP JUMPDEST PUSH1 0x0 DUP2 SWAP1 POP SWAP2 SWAP1 POP JUMP JUMPDEST PUSH2 0x637 DUP4 PUSH2 0x602 JUMP JUMPDEST PUSH2 0x64B PUSH2 0x643 DUP3 PUSH2 0x624 JUMP JUMPDEST DUP5 DUP5 SLOAD PUSH2 0x5A6 JUMP JUMPDEST DUP3 SSTORE POP POP POP POP JUMP JUMPDEST PUSH1 0x0 SWAP1 JUMP JUMPDEST PUSH2 0x660 PUSH2 0x653 JUMP JUMPDEST PUSH2 0x66B DUP2 DUP5 DUP5 PUSH2 0x62E JUMP JUMPDEST POP POP POP JUMP JUMPDEST JUMPDEST DUP2 DUP2 LT ISZERO PUSH2 0x68F JUMPI PUSH2 0x684 PUSH1 0x0 DUP3 PUSH2 0x658 JUMP JUMPDEST PUSH1 0x1 DUP2 ADD SWAP1 POP PUSH2 0x671 JUMP JUMPDEST POP POP JUMP JUMPDEST PUSH1 0x1F DUP3 GT ISZERO PUSH2 0x6D4 JUMPI PUSH2 0x6A5 DUP2 PUSH2 0x574 JUMP JUMPDEST PUSH2 0x6AE DUP5 PUSH2 0x589 JUMP JUMPDEST DUP2 ADD PUSH1 0x20 DUP6 LT ISZERO PUSH2 0x6BD JUMPI DUP2 SWAP1 POP JUMPDEST PUSH2 0x6D1 PUSH2 0x6C9 DUP6 PUSH2 0x589 JUMP JUMPDEST DUP4 ADD DUP3 PUSH2 0x670 JUMP JUMPDEST POP POP JUMPDEST POP POP POP JUMP JUMPDEST PUSH1 0x0 DUP3 DUP3 SHR SWAP1 POP SWAP3 SWAP2 POP POP JUMP JUMPDEST PUSH1 0x0 PUSH2 0x6F7 PUSH1 0x0 NOT DUP5 PUSH1 0x8 MUL PUSH2 0x6D9 JUMP JUMPDEST NOT DUP1 DUP4 AND SWAP2 POP POP SWAP3 SWAP2 POP POP JUMP JUMPDEST PUSH1 0x0 PUSH2 0x710 DUP4 DUP4 PUSH2 0x6E6 JUMP JUMPDEST SWAP2 POP DUP3 PUSH1 0x2 MUL DUP3 OR SWAP1 POP SWAP3 SWAP2 POP POP JUMP JUMPDEST PUSH2 0x729 DUP3 PUSH2 0x4DA JUMP JUMPDEST PUSH8 0xFFFFFFFFFFFFFFFF DUP2 GT ISZERO PUSH2 0x742 JUMPI PUSH2 0x741 PUSH2 0x4E5 JUMP JUMPDEST JUMPDEST PUSH2 0x74C DUP3 SLOAD PUSH2 0x543 JUMP JUMPDEST PUSH2 0x757 DUP3 DUP3 DUP6 PUSH2 0x693 JUMP JUMPDEST PUSH1 0x0 PUSH1 0x20 SWAP1 POP PUSH1 0x1F DUP4 GT PUSH1 0x1 DUP2 EQ PUSH2 0x78A JUMPI PUSH1 0x0 DUP5 ISZERO PUSH2 0x778 JUMPI DUP3 DUP8 ADD MLOAD SWAP1 POP JUMPDEST PUSH2 0x782 DUP6 DUP3 PUSH2 0x704 JUMP JUMPDEST DUP7 SSTORE POP PUSH2 0x7EA JUMP JUMPDEST PUSH1 0x1F NOT DUP5 AND PUSH2 0x798 DUP7 PUSH2 0x574 JUMP JUMPDEST PUSH1 0x0 JUMPDEST DUP3 DUP2 LT ISZERO PUSH2 0x7C0 JUMPI DUP5 DUP10 ADD MLOAD DUP3 SSTORE PUSH1 0x1 DUP3 ADD SWAP2 POP PUSH1 0x20 DUP6 ADD SWAP5 POP PUSH1 0x20 DUP2 ADD SWAP1 POP PUSH2 0x79B JUMP JUMPDEST DUP7 DUP4 LT ISZERO PUSH2 0x7DD JUMPI DUP5 DUP10 ADD MLOAD PUSH2 0x7D9 PUSH1 0x1F DUP10 AND DUP3 PUSH2 0x6E6 JUMP JUMPDEST DUP4 SSTORE POP JUMPDEST PUSH1 0x1 PUSH1 0x2 DUP9 MUL ADD DUP9 SSTORE POP POP POP JUMPDEST POP POP POP POP POP POP JUMP INVALID LOG2 PUSH5 0x6970667358 0x22 SLT KECCAK256 0x4C PUSH27 0xAE1FEA39C2A457A047B68CA7B72A5E84493CC4B623E1C5E4047B93 INVALID PUSH6 0x7E64736F6C63 NUMBER STOP ADDMOD LT STOP CALLER "
				},
				"gasEstimates": {
					"creation": {
						"codeDepositCost": "417600",
						"executionCost": "455",
						"totalCost": "418055"
					},
					"external": {
						"one(string)": "infinite",
						"two(address,uint256)": "606"
					}
				},
				"methodIdentifiers": {
					"one(string)": "f5a1c593",
					"two(address,uint256)": "e73685d1"
				}
			},
			"storageLayout": {
				"storage": [
					{
						"astId": 12,
						"contract": "project_0x00/mycontract2.sol:mycontract2",
						"label": "uarr",
						"offset": 0,
						"slot": "0",
						"type": "t_array(t_struct(User)8_storage)dyn_storage"
					},
					{
						"astId": 16,
						"contract": "project_0x00/mycontract2.sol:mycontract2",
						"label": "richard",
						"offset": 0,
						"slot": "1",
						"type": "t_array(t_struct(User)8_storage)dyn_storage"
					},
					{
						"astId": 18,
						"contract": "project_0x00/mycontract2.sol:mycontract2",
						"label": "richie",
						"offset": 0,
						"slot": "2",
						"type": "t_uint256"
					}
				],
				"types": {
					"t_address": {
						"encoding": "inplace",
						"label": "address",
						"numberOfBytes": "20"
					},
					"t_array(t_struct(User)8_storage)dyn_storage": {
						"base": "t_struct(User)8_storage",
						"encoding": "dynamic_array",
						"label": "struct mycontract2.User[]",
						"numberOfBytes": "32"
					},
					"t_string_storage": {
						"encoding": "bytes",
						"label": "string",
						"numberOfBytes": "32"
					},
					"t_struct(User)8_storage": {
						"encoding": "inplace",
						"label": "struct mycontract2.User",
						"members": [
							{
								"astId": 3,
								"contract": "project_0x00/mycontract2.sol:mycontract2",
								"label": "adr",
								"offset": 0,
								"slot": "0",
								"type": "t_address"
							},
							{
								"astId": 5,
								"contract": "project_0x00/mycontract2.sol:mycontract2",
								"label": "value",
								"offset": 0,
								"slot": "1",
								"type": "t_uint256"
							},
							{
								"astId": 7,
								"contract": "project_0x00/mycontract2.sol:mycontract2",
								"label": "name",
								"offset": 0,
								"slot": "2",
								"type": "t_string_storage"
							}
						],
						"numberOfBytes": "96"
					},
					"t_uint256": {
						"encoding": "inplace",
						"label": "uint256",
						"numberOfBytes": "32"
					}
				}
			},
			"userdoc": {
				"kind": "user",
				"methods": {},
				"version": 1
			}
		}
	}
}