{
	"project_0x00/mycontract5.sol": {
		"mycontract5": {
			"abi": [
				{
					"inputs": [],
					"name": "display",
					"outputs": [],
					"stateMutability": "nonpayable",
					"type": "function"
				}
			],
			"devdoc": {
				"kind": "dev",
				"methods": {},
				"version": 1
			},
			"evm": {
				"assembly": "    /* \"project_0x00/mycontract5.sol\":61:243  contract mycontract5{... */\n  mstore(0x40, 0x80)\n  callvalue\n  dup1\n  iszero\n  tag_1\n  jumpi\n  0x00\n  dup1\n  revert\ntag_1:\n  pop\n  dataSize(sub_0)\n  dup1\n  dataOffset(sub_0)\n  0x00\n  codecopy\n  0x00\n  return\nstop\n\nsub_0: assembly {\n        /* \"project_0x00/mycontract5.sol\":61:243  contract mycontract5{... */\n      mstore(0x40, 0x80)\n      callvalue\n      dup1\n      iszero\n      tag_1\n      jumpi\n      0x00\n      dup1\n      revert\n    tag_1:\n      pop\n      jumpi(tag_2, lt(calldatasize, 0x04))\n      shr(0xe0, calldataload(0x00))\n      dup1\n      0x0c1b7c1e\n      eq\n      tag_3\n      jumpi\n    tag_2:\n      0x00\n      dup1\n      revert\n        /* \"project_0x00/mycontract5.sol\":205:240  function display() public{... */\n    tag_3:\n      tag_4\n      tag_5\n      jump\t// in\n    tag_4:\n      stop\n    tag_5:\n      jump\t// out\n\n    auxdata: 0xa2646970667358221220e3e694d007e9094e49b42ffa35c1b5022630b97dec7c74006f3ad666acd1d32e64736f6c63430008100033\n}\n",
				"bytecode": {
					"linkReferences": {},
					"object": "6080604052348015600f57600080fd5b50606d80601d6000396000f3fe6080604052348015600f57600080fd5b506004361060285760003560e01c80630c1b7c1e14602d575b600080fd5b60336035565b005b56fea2646970667358221220e3e694d007e9094e49b42ffa35c1b5022630b97dec7c74006f3ad666acd1d32e64736f6c63430008100033",
					"opcodes": "PUSH1 0x80 PUSH1 0x40 MSTORE CALLVALUE DUP1 ISZERO PUSH1 0xF JUMPI PUSH1 0x0 DUP1 REVERT JUMPDEST POP PUSH1 0x6D DUP1 PUSH1 0x1D PUSH1 0x0 CODECOPY PUSH1 0x0 RETURN INVALID PUSH1 0x80 PUSH1 0x40 MSTORE CALLVALUE DUP1 ISZERO PUSH1 0xF JUMPI PUSH1 0x0 DUP1 REVERT JUMPDEST POP PUSH1 0x4 CALLDATASIZE LT PUSH1 0x28 JUMPI PUSH1 0x0 CALLDATALOAD PUSH1 0xE0 SHR DUP1 PUSH4 0xC1B7C1E EQ PUSH1 0x2D JUMPI JUMPDEST PUSH1 0x0 DUP1 REVERT JUMPDEST PUSH1 0x33 PUSH1 0x35 JUMP JUMPDEST STOP JUMPDEST JUMP INVALID LOG2 PUSH5 0x6970667358 0x22 SLT KECCAK256 0xE3 0xE6 SWAP5 0xD0 SMOD 0xE9 MULMOD 0x4E 0x49 0xB4 0x2F STATICCALL CALLDATALOAD 0xC1 0xB5 MUL 0x26 ADDRESS 0xB9 PUSH30 0xEC7C74006F3AD666ACD1D32E64736F6C6343000810003300000000000000 "
				},
				"gasEstimates": {
					"creation": {
						"codeDepositCost": "21800",
						"executionCost": "75",
						"totalCost": "21875"
					},
					"external": {
						"display()": "122"
					}
				},
				"methodIdentifiers": {
					"display()": "0c1b7c1e"
				}
			},
			"storageLayout": {
				"storage": [
					{
						"astId": 12,
						"contract": "project_0x00/mycontract5.sol:mycontract5",
						"label": "people",
						"offset": 0,
						"slot": "0",
						"type": "t_array(t_struct(Peeps)8_storage)dyn_storage"
					}
				],
				"types": {
					"t_address": {
						"encoding": "inplace",
						"label": "address",
						"numberOfBytes": "20"
					},
					"t_array(t_struct(Peeps)8_storage)dyn_storage": {
						"base": "t_struct(Peeps)8_storage",
						"encoding": "dynamic_array",
						"label": "struct mycontract5.Peeps[]",
						"numberOfBytes": "32"
					},
					"t_string_storage": {
						"encoding": "bytes",
						"label": "string",
						"numberOfBytes": "32"
					},
					"t_struct(Peeps)8_storage": {
						"encoding": "inplace",
						"label": "struct mycontract5.Peeps",
						"members": [
							{
								"astId": 3,
								"contract": "project_0x00/mycontract5.sol:mycontract5",
								"label": "amount",
								"offset": 0,
								"slot": "0",
								"type": "t_uint256"
							},
							{
								"astId": 5,
								"contract": "project_0x00/mycontract5.sol:mycontract5",
								"label": "name",
								"offset": 0,
								"slot": "1",
								"type": "t_string_storage"
							},
							{
								"astId": 7,
								"contract": "project_0x00/mycontract5.sol:mycontract5",
								"label": "adr",
								"offset": 0,
								"slot": "2",
								"type": "t_address"
							}
						],
						"numberOfBytes": "96"
					},
					"t_uint256": {
						"encoding": "inplace",
						"label": "uint256",
						"numberOfBytes": "32"
					}
				}
			},
			"userdoc": {
				"kind": "user",
				"methods": {},
				"version": 1
			}
		}
	}
}