{
	"project_0x00/mycontract.sol": {
		"mycontract": {
			"abi": [
				{
					"inputs": [],
					"name": "getvalue",
					"outputs": [
						{
							"internalType": "uint256",
							"name": "",
							"type": "uint256"
						}
					],
					"stateMutability": "view",
					"type": "function"
				},
				{
					"inputs": [
						{
							"internalType": "uint256",
							"name": "_value",
							"type": "uint256"
						}
					],
					"name": "setvalue",
					"outputs": [],
					"stateMutability": "nonpayable",
					"type": "function"
				},
				{
					"inputs": [
						{
							"internalType": "uint256[]",
							"name": "tax",
							"type": "uint256[]"
						}
					],
					"name": "vis",
					"outputs": [
						{
							"internalType": "uint256[]",
							"name": "",
							"type": "uint256[]"
						}
					],
					"stateMutability": "pure",
					"type": "function"
				}
			],
			"devdoc": {
				"kind": "dev",
				"methods": {},
				"version": 1
			},
			"evm": {
				"assembly": "    /* \"project_0x00/mycontract.sol\":61:903  contract mycontract {... */\n  mstore(0x40, 0x80)\n  callvalue\n  dup1\n  iszero\n  tag_1\n  jumpi\n  0x00\n  dup1\n  revert\ntag_1:\n  pop\n  dataSize(sub_0)\n  dup1\n  dataOffset(sub_0)\n  0x00\n  codecopy\n  0x00\n  return\nstop\n\nsub_0: assembly {\n        /* \"project_0x00/mycontract.sol\":61:903  contract mycontract {... */\n      mstore(0x40, 0x80)\n      callvalue\n      dup1\n      iszero\n      tag_1\n      jumpi\n      0x00\n      dup1\n      revert\n    tag_1:\n      pop\n      jumpi(tag_2, lt(calldatasize, 0x04))\n      shr(0xe0, calldataload(0x00))\n      dup1\n      0x0b4745ec\n      eq\n      tag_3\n      jumpi\n      dup1\n      0x6575c86f\n      eq\n      tag_4\n      jumpi\n      dup1\n      0x69bd01c4\n      eq\n      tag_5\n      jumpi\n    tag_2:\n      0x00\n      dup1\n      revert\n        /* \"project_0x00/mycontract.sol\":345:575  function setvalue(uint _value) external { //no return required from this fn... */\n    tag_3:\n      tag_6\n      0x04\n      dup1\n      calldatasize\n      sub\n      dup2\n      add\n      swap1\n      tag_7\n      swap2\n      swap1\n      tag_8\n      jump\t// in\n    tag_7:\n      tag_9\n      jump\t// in\n    tag_6:\n      stop\n        /* \"project_0x00/mycontract.sol\":830:898  function vis(uint[] memory tax) public pure returns(uint[] memory){} */\n    tag_4:\n      tag_10\n      0x04\n      dup1\n      calldatasize\n      sub\n      dup2\n      add\n      swap1\n      tag_11\n      swap2\n      swap1\n      tag_12\n      jump\t// in\n    tag_11:\n      tag_13\n      jump\t// in\n    tag_10:\n      mload(0x40)\n      tag_14\n      swap2\n      swap1\n      tag_15\n      jump\t// in\n    tag_14:\n      mload(0x40)\n      dup1\n      swap2\n      sub\n      swap1\n      return\n        /* \"project_0x00/mycontract.sol\":143:264  function getvalue() external view returns(uint) { // 'view' keyword makes this fn read only... */\n    tag_5:\n      tag_16\n      tag_17\n      jump\t// in\n    tag_16:\n      mload(0x40)\n      tag_18\n      swap2\n      swap1\n      tag_19\n      jump\t// in\n    tag_18:\n      mload(0x40)\n      dup1\n      swap2\n      sub\n      swap1\n      return\n        /* \"project_0x00/mycontract.sol\":345:575  function setvalue(uint _value) external { //no return required from this fn... */\n    tag_9:\n        /* \"project_0x00/mycontract.sol\":438:444  _value */\n      dup1\n        /* \"project_0x00/mycontract.sol\":430:435  value */\n      0x00\n        /* \"project_0x00/mycontract.sol\":430:444  value = _value */\n      dup2\n      swap1\n      sstore\n      pop\n        /* \"project_0x00/mycontract.sol\":455:472  uint[] memory tax */\n      0x00\n        /* \"project_0x00/mycontract.sol\":486:487  3 */\n      0x03\n        /* \"project_0x00/mycontract.sol\":475:488  new uint[](3) */\n      0xffffffffffffffff\n      dup2\n      gt\n      iszero\n      tag_21\n      jumpi\n      tag_22\n      tag_23\n      jump\t// in\n    tag_22:\n    tag_21:\n      mload(0x40)\n      swap1\n      dup1\n      dup3\n      mstore\n      dup1\n      0x20\n      mul\n      0x20\n      add\n      dup3\n      add\n      0x40\n      mstore\n      dup1\n      iszero\n      tag_24\n      jumpi\n      dup2\n      0x20\n      add\n      0x20\n      dup3\n      mul\n      dup1\n      calldatasize\n      dup4\n      calldatacopy\n      dup1\n      dup3\n      add\n      swap2\n      pop\n      pop\n      swap1\n      pop\n    tag_24:\n      pop\n        /* \"project_0x00/mycontract.sol\":455:488  uint[] memory tax = new uint[](3) */\n      swap1\n      pop\n        /* \"project_0x00/mycontract.sol\":510:512  10 */\n      0x0a\n        /* \"project_0x00/mycontract.sol\":501:504  tax */\n      dup2\n        /* \"project_0x00/mycontract.sol\":505:506  1 */\n      0x01\n        /* \"project_0x00/mycontract.sol\":501:507  tax[1] */\n      dup2\n      mload\n      dup2\n      lt\n      tag_25\n      jumpi\n      tag_26\n      tag_27\n      jump\t// in\n    tag_26:\n    tag_25:\n      0x20\n      mul\n      0x20\n      add\n      add\n        /* \"project_0x00/mycontract.sol\":501:512  tax[1] = 10 */\n      dup2\n      dup2\n      mstore\n      pop\n      pop\n        /* \"project_0x00/mycontract.sol\":523:528  array */\n      0x01\n        /* \"project_0x00/mycontract.sol\":534:535  1 */\n      dup1\n        /* \"project_0x00/mycontract.sol\":523:536  array.push(1) */\n      dup1\n      0x01\n      dup2\n      sload\n      add\n      dup1\n      dup3\n      sstore\n      dup1\n      swap2\n      pop\n      pop\n      0x01\n      swap1\n      sub\n      swap1\n      0x00\n      mstore\n      keccak256(0x00, 0x20)\n      add\n      0x00\n      swap1\n      swap2\n      swap1\n      swap2\n      swap1\n      swap2\n      pop\n      sstore\n        /* \"project_0x00/mycontract.sol\":547:552  array */\n      0x01\n        /* \"project_0x00/mycontract.sol\":558:560  11 */\n      0x0b\n        /* \"project_0x00/mycontract.sol\":547:561  array.push(11) */\n      swap1\n      dup1\n      0x01\n      dup2\n      sload\n      add\n      dup1\n      dup3\n      sstore\n      dup1\n      swap2\n      pop\n      pop\n      0x01\n      swap1\n      sub\n      swap1\n      0x00\n      mstore\n      keccak256(0x00, 0x20)\n      add\n      0x00\n      swap1\n      swap2\n      swap1\n      swap2\n      swap1\n      swap2\n      pop\n      sstore\n        /* \"project_0x00/mycontract.sol\":385:575  { //no return required from this fn... */\n      pop\n        /* \"project_0x00/mycontract.sol\":345:575  function setvalue(uint _value) external { //no return required from this fn... */\n      pop\n      jump\t// out\n        /* \"project_0x00/mycontract.sol\":830:898  function vis(uint[] memory tax) public pure returns(uint[] memory){} */\n    tag_13:\n        /* \"project_0x00/mycontract.sol\":882:895  uint[] memory */\n      0x60\n        /* \"project_0x00/mycontract.sol\":830:898  function vis(uint[] memory tax) public pure returns(uint[] memory){} */\n      swap2\n      swap1\n      pop\n      jump\t// out\n        /* \"project_0x00/mycontract.sol\":143:264  function getvalue() external view returns(uint) { // 'view' keyword makes this fn read only... */\n    tag_17:\n        /* \"project_0x00/mycontract.sol\":185:189  uint */\n      0x00\n        /* \"project_0x00/mycontract.sol\":251:256  value */\n      dup1\n      sload\n        /* \"project_0x00/mycontract.sol\":244:256  return value */\n      swap1\n      pop\n        /* \"project_0x00/mycontract.sol\":143:264  function getvalue() external view returns(uint) { // 'view' keyword makes this fn read only... */\n      swap1\n      jump\t// out\n        /* \"#utility.yul\":7:82   */\n    tag_32:\n        /* \"#utility.yul\":40:46   */\n      0x00\n        /* \"#utility.yul\":73:75   */\n      0x40\n        /* \"#utility.yul\":67:76   */\n      mload\n        /* \"#utility.yul\":57:76   */\n      swap1\n      pop\n        /* \"#utility.yul\":7:82   */\n      swap1\n      jump\t// out\n        /* \"#utility.yul\":88:205   */\n    tag_33:\n        /* \"#utility.yul\":197:198   */\n      0x00\n        /* \"#utility.yul\":194:195   */\n      dup1\n        /* \"#utility.yul\":187:199   */\n      revert\n        /* \"#utility.yul\":211:328   */\n    tag_34:\n        /* \"#utility.yul\":320:321   */\n      0x00\n        /* \"#utility.yul\":317:318   */\n      dup1\n        /* \"#utility.yul\":310:322   */\n      revert\n        /* \"#utility.yul\":334:411   */\n    tag_35:\n        /* \"#utility.yul\":371:378   */\n      0x00\n        /* \"#utility.yul\":400:405   */\n      dup2\n        /* \"#utility.yul\":389:405   */\n      swap1\n      pop\n        /* \"#utility.yul\":334:411   */\n      swap2\n      swap1\n      pop\n      jump\t// out\n        /* \"#utility.yul\":417:539   */\n    tag_36:\n        /* \"#utility.yul\":490:514   */\n      tag_60\n        /* \"#utility.yul\":508:513   */\n      dup2\n        /* \"#utility.yul\":490:514   */\n      tag_35\n      jump\t// in\n    tag_60:\n        /* \"#utility.yul\":483:488   */\n      dup2\n        /* \"#utility.yul\":480:515   */\n      eq\n        /* \"#utility.yul\":470:533   */\n      tag_61\n      jumpi\n        /* \"#utility.yul\":529:530   */\n      0x00\n        /* \"#utility.yul\":526:527   */\n      dup1\n        /* \"#utility.yul\":519:531   */\n      revert\n        /* \"#utility.yul\":470:533   */\n    tag_61:\n        /* \"#utility.yul\":417:539   */\n      pop\n      jump\t// out\n        /* \"#utility.yul\":545:684   */\n    tag_37:\n        /* \"#utility.yul\":591:596   */\n      0x00\n        /* \"#utility.yul\":629:635   */\n      dup2\n        /* \"#utility.yul\":616:636   */\n      calldataload\n        /* \"#utility.yul\":607:636   */\n      swap1\n      pop\n        /* \"#utility.yul\":645:678   */\n      tag_63\n        /* \"#utility.yul\":672:677   */\n      dup2\n        /* \"#utility.yul\":645:678   */\n      tag_36\n      jump\t// in\n    tag_63:\n        /* \"#utility.yul\":545:684   */\n      swap3\n      swap2\n      pop\n      pop\n      jump\t// out\n        /* \"#utility.yul\":690:1019   */\n    tag_8:\n        /* \"#utility.yul\":749:755   */\n      0x00\n        /* \"#utility.yul\":798:800   */\n      0x20\n        /* \"#utility.yul\":786:795   */\n      dup3\n        /* \"#utility.yul\":777:784   */\n      dup5\n        /* \"#utility.yul\":773:796   */\n      sub\n        /* \"#utility.yul\":769:801   */\n      slt\n        /* \"#utility.yul\":766:885   */\n      iszero\n      tag_65\n      jumpi\n        /* \"#utility.yul\":804:883   */\n      tag_66\n      tag_33\n      jump\t// in\n    tag_66:\n        /* \"#utility.yul\":766:885   */\n    tag_65:\n        /* \"#utility.yul\":924:925   */\n      0x00\n        /* \"#utility.yul\":949:1002   */\n      tag_67\n        /* \"#utility.yul\":994:1001   */\n      dup5\n        /* \"#utility.yul\":985:991   */\n      dup3\n        /* \"#utility.yul\":974:983   */\n      dup6\n        /* \"#utility.yul\":970:992   */\n      add\n        /* \"#utility.yul\":949:1002   */\n      tag_37\n      jump\t// in\n    tag_67:\n        /* \"#utility.yul\":939:1002   */\n      swap2\n      pop\n        /* \"#utility.yul\":895:1012   */\n      pop\n        /* \"#utility.yul\":690:1019   */\n      swap3\n      swap2\n      pop\n      pop\n      jump\t// out\n        /* \"#utility.yul\":1025:1142   */\n    tag_38:\n        /* \"#utility.yul\":1134:1135   */\n      0x00\n        /* \"#utility.yul\":1131:1132   */\n      dup1\n        /* \"#utility.yul\":1124:1136   */\n      revert\n        /* \"#utility.yul\":1148:1250   */\n    tag_39:\n        /* \"#utility.yul\":1189:1195   */\n      0x00\n        /* \"#utility.yul\":1240:1242   */\n      0x1f\n        /* \"#utility.yul\":1236:1243   */\n      not\n        /* \"#utility.yul\":1231:1233   */\n      0x1f\n        /* \"#utility.yul\":1224:1229   */\n      dup4\n        /* \"#utility.yul\":1220:1234   */\n      add\n        /* \"#utility.yul\":1216:1244   */\n      and\n        /* \"#utility.yul\":1206:1244   */\n      swap1\n      pop\n        /* \"#utility.yul\":1148:1250   */\n      swap2\n      swap1\n      pop\n      jump\t// out\n        /* \"#utility.yul\":1256:1436   */\n    tag_23:\n        /* \"#utility.yul\":1304:1381   */\n      0x4e487b7100000000000000000000000000000000000000000000000000000000\n        /* \"#utility.yul\":1301:1302   */\n      0x00\n        /* \"#utility.yul\":1294:1382   */\n      mstore\n        /* \"#utility.yul\":1401:1405   */\n      0x41\n        /* \"#utility.yul\":1398:1399   */\n      0x04\n        /* \"#utility.yul\":1391:1406   */\n      mstore\n        /* \"#utility.yul\":1425:1429   */\n      0x24\n        /* \"#utility.yul\":1422:1423   */\n      0x00\n        /* \"#utility.yul\":1415:1430   */\n      revert\n        /* \"#utility.yul\":1442:1723   */\n    tag_40:\n        /* \"#utility.yul\":1525:1552   */\n      tag_72\n        /* \"#utility.yul\":1547:1551   */\n      dup3\n        /* \"#utility.yul\":1525:1552   */\n      tag_39\n      jump\t// in\n    tag_72:\n        /* \"#utility.yul\":1517:1523   */\n      dup2\n        /* \"#utility.yul\":1513:1553   */\n      add\n        /* \"#utility.yul\":1655:1661   */\n      dup2\n        /* \"#utility.yul\":1643:1653   */\n      dup2\n        /* \"#utility.yul\":1640:1662   */\n      lt\n        /* \"#utility.yul\":1619:1637   */\n      0xffffffffffffffff\n        /* \"#utility.yul\":1607:1617   */\n      dup3\n        /* \"#utility.yul\":1604:1638   */\n      gt\n        /* \"#utility.yul\":1601:1663   */\n      or\n        /* \"#utility.yul\":1598:1686   */\n      iszero\n      tag_73\n      jumpi\n        /* \"#utility.yul\":1666:1684   */\n      tag_74\n      tag_23\n      jump\t// in\n    tag_74:\n        /* \"#utility.yul\":1598:1686   */\n    tag_73:\n        /* \"#utility.yul\":1706:1716   */\n      dup1\n        /* \"#utility.yul\":1702:1704   */\n      0x40\n        /* \"#utility.yul\":1695:1717   */\n      mstore\n        /* \"#utility.yul\":1485:1723   */\n      pop\n        /* \"#utility.yul\":1442:1723   */\n      pop\n      pop\n      jump\t// out\n        /* \"#utility.yul\":1729:1858   */\n    tag_41:\n        /* \"#utility.yul\":1763:1769   */\n      0x00\n        /* \"#utility.yul\":1790:1810   */\n      tag_76\n      tag_32\n      jump\t// in\n    tag_76:\n        /* \"#utility.yul\":1780:1810   */\n      swap1\n      pop\n        /* \"#utility.yul\":1819:1852   */\n      tag_77\n        /* \"#utility.yul\":1847:1851   */\n      dup3\n        /* \"#utility.yul\":1839:1845   */\n      dup3\n        /* \"#utility.yul\":1819:1852   */\n      tag_40\n      jump\t// in\n    tag_77:\n        /* \"#utility.yul\":1729:1858   */\n      swap2\n      swap1\n      pop\n      jump\t// out\n        /* \"#utility.yul\":1864:2175   */\n    tag_42:\n        /* \"#utility.yul\":1941:1945   */\n      0x00\n        /* \"#utility.yul\":2031:2049   */\n      0xffffffffffffffff\n        /* \"#utility.yul\":2023:2029   */\n      dup3\n        /* \"#utility.yul\":2020:2050   */\n      gt\n        /* \"#utility.yul\":2017:2073   */\n      iszero\n      tag_79\n      jumpi\n        /* \"#utility.yul\":2053:2071   */\n      tag_80\n      tag_23\n      jump\t// in\n    tag_80:\n        /* \"#utility.yul\":2017:2073   */\n    tag_79:\n        /* \"#utility.yul\":2103:2107   */\n      0x20\n        /* \"#utility.yul\":2095:2101   */\n      dup3\n        /* \"#utility.yul\":2091:2108   */\n      mul\n        /* \"#utility.yul\":2083:2108   */\n      swap1\n      pop\n        /* \"#utility.yul\":2163:2167   */\n      0x20\n        /* \"#utility.yul\":2157:2161   */\n      dup2\n        /* \"#utility.yul\":2153:2168   */\n      add\n        /* \"#utility.yul\":2145:2168   */\n      swap1\n      pop\n        /* \"#utility.yul\":1864:2175   */\n      swap2\n      swap1\n      pop\n      jump\t// out\n        /* \"#utility.yul\":2181:2298   */\n    tag_43:\n        /* \"#utility.yul\":2290:2291   */\n      0x00\n        /* \"#utility.yul\":2287:2288   */\n      dup1\n        /* \"#utility.yul\":2280:2292   */\n      revert\n        /* \"#utility.yul\":2321:3031   */\n    tag_44:\n        /* \"#utility.yul\":2417:2422   */\n      0x00\n        /* \"#utility.yul\":2442:2523   */\n      tag_83\n        /* \"#utility.yul\":2458:2522   */\n      tag_84\n        /* \"#utility.yul\":2515:2521   */\n      dup5\n        /* \"#utility.yul\":2458:2522   */\n      tag_42\n      jump\t// in\n    tag_84:\n        /* \"#utility.yul\":2442:2523   */\n      tag_41\n      jump\t// in\n    tag_83:\n        /* \"#utility.yul\":2433:2523   */\n      swap1\n      pop\n        /* \"#utility.yul\":2543:2548   */\n      dup1\n        /* \"#utility.yul\":2572:2578   */\n      dup4\n        /* \"#utility.yul\":2565:2570   */\n      dup3\n        /* \"#utility.yul\":2558:2579   */\n      mstore\n        /* \"#utility.yul\":2606:2610   */\n      0x20\n        /* \"#utility.yul\":2599:2604   */\n      dup3\n        /* \"#utility.yul\":2595:2611   */\n      add\n        /* \"#utility.yul\":2588:2611   */\n      swap1\n      pop\n        /* \"#utility.yul\":2659:2663   */\n      0x20\n        /* \"#utility.yul\":2651:2657   */\n      dup5\n        /* \"#utility.yul\":2647:2664   */\n      mul\n        /* \"#utility.yul\":2639:2645   */\n      dup4\n        /* \"#utility.yul\":2635:2665   */\n      add\n        /* \"#utility.yul\":2688:2691   */\n      dup6\n        /* \"#utility.yul\":2680:2686   */\n      dup2\n        /* \"#utility.yul\":2677:2692   */\n      gt\n        /* \"#utility.yul\":2674:2796   */\n      iszero\n      tag_85\n      jumpi\n        /* \"#utility.yul\":2707:2786   */\n      tag_86\n      tag_43\n      jump\t// in\n    tag_86:\n        /* \"#utility.yul\":2674:2796   */\n    tag_85:\n        /* \"#utility.yul\":2822:2828   */\n      dup4\n        /* \"#utility.yul\":2805:3025   */\n    tag_87:\n        /* \"#utility.yul\":2839:2845   */\n      dup2\n        /* \"#utility.yul\":2834:2837   */\n      dup2\n        /* \"#utility.yul\":2831:2846   */\n      lt\n        /* \"#utility.yul\":2805:3025   */\n      iszero\n      tag_89\n      jumpi\n        /* \"#utility.yul\":2914:2917   */\n      dup1\n        /* \"#utility.yul\":2943:2980   */\n      tag_90\n        /* \"#utility.yul\":2976:2979   */\n      dup9\n        /* \"#utility.yul\":2964:2974   */\n      dup3\n        /* \"#utility.yul\":2943:2980   */\n      tag_37\n      jump\t// in\n    tag_90:\n        /* \"#utility.yul\":2938:2941   */\n      dup5\n        /* \"#utility.yul\":2931:2981   */\n      mstore\n        /* \"#utility.yul\":3010:3014   */\n      0x20\n        /* \"#utility.yul\":3005:3008   */\n      dup5\n        /* \"#utility.yul\":3001:3015   */\n      add\n        /* \"#utility.yul\":2994:3015   */\n      swap4\n      pop\n        /* \"#utility.yul\":2881:3025   */\n      pop\n        /* \"#utility.yul\":2865:2869   */\n      0x20\n        /* \"#utility.yul\":2860:2863   */\n      dup2\n        /* \"#utility.yul\":2856:2870   */\n      add\n        /* \"#utility.yul\":2849:2870   */\n      swap1\n      pop\n        /* \"#utility.yul\":2805:3025   */\n      jump(tag_87)\n    tag_89:\n        /* \"#utility.yul\":2809:2830   */\n      pop\n        /* \"#utility.yul\":2423:3031   */\n      pop\n      pop\n        /* \"#utility.yul\":2321:3031   */\n      swap4\n      swap3\n      pop\n      pop\n      pop\n      jump\t// out\n        /* \"#utility.yul\":3054:3424   */\n    tag_45:\n        /* \"#utility.yul\":3125:3130   */\n      0x00\n        /* \"#utility.yul\":3174:3177   */\n      dup3\n        /* \"#utility.yul\":3167:3171   */\n      0x1f\n        /* \"#utility.yul\":3159:3165   */\n      dup4\n        /* \"#utility.yul\":3155:3172   */\n      add\n        /* \"#utility.yul\":3151:3178   */\n      slt\n        /* \"#utility.yul\":3141:3263   */\n      tag_92\n      jumpi\n        /* \"#utility.yul\":3182:3261   */\n      tag_93\n      tag_38\n      jump\t// in\n    tag_93:\n        /* \"#utility.yul\":3141:3263   */\n    tag_92:\n        /* \"#utility.yul\":3299:3305   */\n      dup2\n        /* \"#utility.yul\":3286:3306   */\n      calldataload\n        /* \"#utility.yul\":3324:3418   */\n      tag_94\n        /* \"#utility.yul\":3414:3417   */\n      dup5\n        /* \"#utility.yul\":3406:3412   */\n      dup3\n        /* \"#utility.yul\":3399:3403   */\n      0x20\n        /* \"#utility.yul\":3391:3397   */\n      dup7\n        /* \"#utility.yul\":3387:3404   */\n      add\n        /* \"#utility.yul\":3324:3418   */\n      tag_44\n      jump\t// in\n    tag_94:\n        /* \"#utility.yul\":3315:3418   */\n      swap2\n      pop\n        /* \"#utility.yul\":3131:3424   */\n      pop\n        /* \"#utility.yul\":3054:3424   */\n      swap3\n      swap2\n      pop\n      pop\n      jump\t// out\n        /* \"#utility.yul\":3430:3969   */\n    tag_12:\n        /* \"#utility.yul\":3514:3520   */\n      0x00\n        /* \"#utility.yul\":3563:3565   */\n      0x20\n        /* \"#utility.yul\":3551:3560   */\n      dup3\n        /* \"#utility.yul\":3542:3549   */\n      dup5\n        /* \"#utility.yul\":3538:3561   */\n      sub\n        /* \"#utility.yul\":3534:3566   */\n      slt\n        /* \"#utility.yul\":3531:3650   */\n      iszero\n      tag_96\n      jumpi\n        /* \"#utility.yul\":3569:3648   */\n      tag_97\n      tag_33\n      jump\t// in\n    tag_97:\n        /* \"#utility.yul\":3531:3650   */\n    tag_96:\n        /* \"#utility.yul\":3717:3718   */\n      0x00\n        /* \"#utility.yul\":3706:3715   */\n      dup3\n        /* \"#utility.yul\":3702:3719   */\n      add\n        /* \"#utility.yul\":3689:3720   */\n      calldataload\n        /* \"#utility.yul\":3747:3765   */\n      0xffffffffffffffff\n        /* \"#utility.yul\":3739:3745   */\n      dup2\n        /* \"#utility.yul\":3736:3766   */\n      gt\n        /* \"#utility.yul\":3733:3850   */\n      iszero\n      tag_98\n      jumpi\n        /* \"#utility.yul\":3769:3848   */\n      tag_99\n      tag_34\n      jump\t// in\n    tag_99:\n        /* \"#utility.yul\":3733:3850   */\n    tag_98:\n        /* \"#utility.yul\":3874:3952   */\n      tag_100\n        /* \"#utility.yul\":3944:3951   */\n      dup5\n        /* \"#utility.yul\":3935:3941   */\n      dup3\n        /* \"#utility.yul\":3924:3933   */\n      dup6\n        /* \"#utility.yul\":3920:3942   */\n      add\n        /* \"#utility.yul\":3874:3952   */\n      tag_45\n      jump\t// in\n    tag_100:\n        /* \"#utility.yul\":3864:3952   */\n      swap2\n      pop\n        /* \"#utility.yul\":3660:3962   */\n      pop\n        /* \"#utility.yul\":3430:3969   */\n      swap3\n      swap2\n      pop\n      pop\n      jump\t// out\n        /* \"#utility.yul\":3975:4089   */\n    tag_46:\n        /* \"#utility.yul\":4042:4048   */\n      0x00\n        /* \"#utility.yul\":4076:4081   */\n      dup2\n        /* \"#utility.yul\":4070:4082   */\n      mload\n        /* \"#utility.yul\":4060:4082   */\n      swap1\n      pop\n        /* \"#utility.yul\":3975:4089   */\n      swap2\n      swap1\n      pop\n      jump\t// out\n        /* \"#utility.yul\":4095:4279   */\n    tag_47:\n        /* \"#utility.yul\":4194:4205   */\n      0x00\n        /* \"#utility.yul\":4228:4234   */\n      dup3\n        /* \"#utility.yul\":4223:4226   */\n      dup3\n        /* \"#utility.yul\":4216:4235   */\n      mstore\n        /* \"#utility.yul\":4268:4272   */\n      0x20\n        /* \"#utility.yul\":4263:4266   */\n      dup3\n        /* \"#utility.yul\":4259:4273   */\n      add\n        /* \"#utility.yul\":4244:4273   */\n      swap1\n      pop\n        /* \"#utility.yul\":4095:4279   */\n      swap3\n      swap2\n      pop\n      pop\n      jump\t// out\n        /* \"#utility.yul\":4285:4417   */\n    tag_48:\n        /* \"#utility.yul\":4352:4356   */\n      0x00\n        /* \"#utility.yul\":4375:4378   */\n      dup2\n        /* \"#utility.yul\":4367:4378   */\n      swap1\n      pop\n        /* \"#utility.yul\":4405:4409   */\n      0x20\n        /* \"#utility.yul\":4400:4403   */\n      dup3\n        /* \"#utility.yul\":4396:4410   */\n      add\n        /* \"#utility.yul\":4388:4410   */\n      swap1\n      pop\n        /* \"#utility.yul\":4285:4417   */\n      swap2\n      swap1\n      pop\n      jump\t// out\n        /* \"#utility.yul\":4423:4531   */\n    tag_49:\n        /* \"#utility.yul\":4500:4524   */\n      tag_105\n        /* \"#utility.yul\":4518:4523   */\n      dup2\n        /* \"#utility.yul\":4500:4524   */\n      tag_35\n      jump\t// in\n    tag_105:\n        /* \"#utility.yul\":4495:4498   */\n      dup3\n        /* \"#utility.yul\":4488:4525   */\n      mstore\n        /* \"#utility.yul\":4423:4531   */\n      pop\n      pop\n      jump\t// out\n        /* \"#utility.yul\":4537:4716   */\n    tag_50:\n        /* \"#utility.yul\":4606:4616   */\n      0x00\n        /* \"#utility.yul\":4627:4673   */\n      tag_107\n        /* \"#utility.yul\":4669:4672   */\n      dup4\n        /* \"#utility.yul\":4661:4667   */\n      dup4\n        /* \"#utility.yul\":4627:4673   */\n      tag_49\n      jump\t// in\n    tag_107:\n        /* \"#utility.yul\":4705:4709   */\n      0x20\n        /* \"#utility.yul\":4700:4703   */\n      dup4\n        /* \"#utility.yul\":4696:4710   */\n      add\n        /* \"#utility.yul\":4682:4710   */\n      swap1\n      pop\n        /* \"#utility.yul\":4537:4716   */\n      swap3\n      swap2\n      pop\n      pop\n      jump\t// out\n        /* \"#utility.yul\":4722:4835   */\n    tag_51:\n        /* \"#utility.yul\":4792:4796   */\n      0x00\n        /* \"#utility.yul\":4824:4828   */\n      0x20\n        /* \"#utility.yul\":4819:4822   */\n      dup3\n        /* \"#utility.yul\":4815:4829   */\n      add\n        /* \"#utility.yul\":4807:4829   */\n      swap1\n      pop\n        /* \"#utility.yul\":4722:4835   */\n      swap2\n      swap1\n      pop\n      jump\t// out\n        /* \"#utility.yul\":4871:5603   */\n    tag_52:\n        /* \"#utility.yul\":4990:4993   */\n      0x00\n        /* \"#utility.yul\":5019:5073   */\n      tag_110\n        /* \"#utility.yul\":5067:5072   */\n      dup3\n        /* \"#utility.yul\":5019:5073   */\n      tag_46\n      jump\t// in\n    tag_110:\n        /* \"#utility.yul\":5089:5175   */\n      tag_111\n        /* \"#utility.yul\":5168:5174   */\n      dup2\n        /* \"#utility.yul\":5163:5166   */\n      dup6\n        /* \"#utility.yul\":5089:5175   */\n      tag_47\n      jump\t// in\n    tag_111:\n        /* \"#utility.yul\":5082:5175   */\n      swap4\n      pop\n        /* \"#utility.yul\":5199:5255   */\n      tag_112\n        /* \"#utility.yul\":5249:5254   */\n      dup4\n        /* \"#utility.yul\":5199:5255   */\n      tag_48\n      jump\t// in\n    tag_112:\n        /* \"#utility.yul\":5278:5285   */\n      dup1\n        /* \"#utility.yul\":5309:5310   */\n      0x00\n        /* \"#utility.yul\":5294:5578   */\n    tag_113:\n        /* \"#utility.yul\":5319:5325   */\n      dup4\n        /* \"#utility.yul\":5316:5317   */\n      dup2\n        /* \"#utility.yul\":5313:5326   */\n      lt\n        /* \"#utility.yul\":5294:5578   */\n      iszero\n      tag_115\n      jumpi\n        /* \"#utility.yul\":5395:5401   */\n      dup2\n        /* \"#utility.yul\":5389:5402   */\n      mload\n        /* \"#utility.yul\":5422:5485   */\n      tag_116\n        /* \"#utility.yul\":5481:5484   */\n      dup9\n        /* \"#utility.yul\":5466:5479   */\n      dup3\n        /* \"#utility.yul\":5422:5485   */\n      tag_50\n      jump\t// in\n    tag_116:\n        /* \"#utility.yul\":5415:5485   */\n      swap8\n      pop\n        /* \"#utility.yul\":5508:5568   */\n      tag_117\n        /* \"#utility.yul\":5561:5567   */\n      dup4\n        /* \"#utility.yul\":5508:5568   */\n      tag_51\n      jump\t// in\n    tag_117:\n        /* \"#utility.yul\":5498:5568   */\n      swap3\n      pop\n        /* \"#utility.yul\":5354:5578   */\n      pop\n        /* \"#utility.yul\":5341:5342   */\n      0x01\n        /* \"#utility.yul\":5338:5339   */\n      dup2\n        /* \"#utility.yul\":5334:5343   */\n      add\n        /* \"#utility.yul\":5329:5343   */\n      swap1\n      pop\n        /* \"#utility.yul\":5294:5578   */\n      jump(tag_113)\n    tag_115:\n        /* \"#utility.yul\":5298:5312   */\n      pop\n        /* \"#utility.yul\":5594:5597   */\n      dup6\n        /* \"#utility.yul\":5587:5597   */\n      swap4\n      pop\n        /* \"#utility.yul\":4995:5603   */\n      pop\n      pop\n      pop\n        /* \"#utility.yul\":4871:5603   */\n      swap3\n      swap2\n      pop\n      pop\n      jump\t// out\n        /* \"#utility.yul\":5609:5982   */\n    tag_15:\n        /* \"#utility.yul\":5752:5756   */\n      0x00\n        /* \"#utility.yul\":5790:5792   */\n      0x20\n        /* \"#utility.yul\":5779:5788   */\n      dup3\n        /* \"#utility.yul\":5775:5793   */\n      add\n        /* \"#utility.yul\":5767:5793   */\n      swap1\n      pop\n        /* \"#utility.yul\":5839:5848   */\n      dup2\n        /* \"#utility.yul\":5833:5837   */\n      dup2\n        /* \"#utility.yul\":5829:5849   */\n      sub\n        /* \"#utility.yul\":5825:5826   */\n      0x00\n        /* \"#utility.yul\":5814:5823   */\n      dup4\n        /* \"#utility.yul\":5810:5827   */\n      add\n        /* \"#utility.yul\":5803:5850   */\n      mstore\n        /* \"#utility.yul\":5867:5975   */\n      tag_119\n        /* \"#utility.yul\":5970:5974   */\n      dup2\n        /* \"#utility.yul\":5961:5967   */\n      dup5\n        /* \"#utility.yul\":5867:5975   */\n      tag_52\n      jump\t// in\n    tag_119:\n        /* \"#utility.yul\":5859:5975   */\n      swap1\n      pop\n        /* \"#utility.yul\":5609:5982   */\n      swap3\n      swap2\n      pop\n      pop\n      jump\t// out\n        /* \"#utility.yul\":5988:6106   */\n    tag_53:\n        /* \"#utility.yul\":6075:6099   */\n      tag_121\n        /* \"#utility.yul\":6093:6098   */\n      dup2\n        /* \"#utility.yul\":6075:6099   */\n      tag_35\n      jump\t// in\n    tag_121:\n        /* \"#utility.yul\":6070:6073   */\n      dup3\n        /* \"#utility.yul\":6063:6100   */\n      mstore\n        /* \"#utility.yul\":5988:6106   */\n      pop\n      pop\n      jump\t// out\n        /* \"#utility.yul\":6112:6334   */\n    tag_19:\n        /* \"#utility.yul\":6205:6209   */\n      0x00\n        /* \"#utility.yul\":6243:6245   */\n      0x20\n        /* \"#utility.yul\":6232:6241   */\n      dup3\n        /* \"#utility.yul\":6228:6246   */\n      add\n        /* \"#utility.yul\":6220:6246   */\n      swap1\n      pop\n        /* \"#utility.yul\":6256:6327   */\n      tag_123\n        /* \"#utility.yul\":6324:6325   */\n      0x00\n        /* \"#utility.yul\":6313:6322   */\n      dup4\n        /* \"#utility.yul\":6309:6326   */\n      add\n        /* \"#utility.yul\":6300:6306   */\n      dup5\n        /* \"#utility.yul\":6256:6327   */\n      tag_53\n      jump\t// in\n    tag_123:\n        /* \"#utility.yul\":6112:6334   */\n      swap3\n      swap2\n      pop\n      pop\n      jump\t// out\n        /* \"#utility.yul\":6340:6520   */\n    tag_27:\n        /* \"#utility.yul\":6388:6465   */\n      0x4e487b7100000000000000000000000000000000000000000000000000000000\n        /* \"#utility.yul\":6385:6386   */\n      0x00\n        /* \"#utility.yul\":6378:6466   */\n      mstore\n        /* \"#utility.yul\":6485:6489   */\n      0x32\n        /* \"#utility.yul\":6482:6483   */\n      0x04\n        /* \"#utility.yul\":6475:6490   */\n      mstore\n        /* \"#utility.yul\":6509:6513   */\n      0x24\n        /* \"#utility.yul\":6506:6507   */\n      0x00\n        /* \"#utility.yul\":6499:6514   */\n      revert\n\n    auxdata: 0xa2646970667358221220707713d089bf59e42997ee080a138a6cbfb8f2452b775c4896aeb125d8aff18b64736f6c63430008100033\n}\n",
				"bytecode": {
					"linkReferences": {},
					"object": "608060405234801561001057600080fd5b50610515806100206000396000f3fe608060405234801561001057600080fd5b50600436106100415760003560e01c80630b4745ec146100465780636575c86f1461006257806369bd01c414610092575b600080fd5b610060600480360381019061005b91906101d7565b6100b0565b005b61007c6004803603810190610077919061035d565b61017d565b6040516100899190610464565b60405180910390f35b61009a610184565b6040516100a79190610495565b60405180910390f35b806000819055506000600367ffffffffffffffff8111156100d4576100d361021a565b5b6040519080825280602002602001820160405280156101025781602001602082028036833780820191505090505b509050600a8160018151811061011b5761011a6104b0565b5b602002602001018181525050600180806001815401808255809150506001900390600052602060002001600090919091909150556001600b90806001815401808255809150506001900390600052602060002001600090919091909150555050565b6060919050565b60008054905090565b6000604051905090565b600080fd5b600080fd5b6000819050919050565b6101b4816101a1565b81146101bf57600080fd5b50565b6000813590506101d1816101ab565b92915050565b6000602082840312156101ed576101ec610197565b5b60006101fb848285016101c2565b91505092915050565b600080fd5b6000601f19601f8301169050919050565b7f4e487b7100000000000000000000000000000000000000000000000000000000600052604160045260246000fd5b61025282610209565b810181811067ffffffffffffffff821117156102715761027061021a565b5b80604052505050565b600061028461018d565b90506102908282610249565b919050565b600067ffffffffffffffff8211156102b0576102af61021a565b5b602082029050602081019050919050565b600080fd5b60006102d96102d484610295565b61027a565b905080838252602082019050602084028301858111156102fc576102fb6102c1565b5b835b81811015610325578061031188826101c2565b8452602084019350506020810190506102fe565b5050509392505050565b600082601f83011261034457610343610204565b5b81356103548482602086016102c6565b91505092915050565b60006020828403121561037357610372610197565b5b600082013567ffffffffffffffff8111156103915761039061019c565b5b61039d8482850161032f565b91505092915050565b600081519050919050565b600082825260208201905092915050565b6000819050602082019050919050565b6103db816101a1565b82525050565b60006103ed83836103d2565b60208301905092915050565b6000602082019050919050565b6000610411826103a6565b61041b81856103b1565b9350610426836103c2565b8060005b8381101561045757815161043e88826103e1565b9750610449836103f9565b92505060018101905061042a565b5085935050505092915050565b6000602082019050818103600083015261047e8184610406565b905092915050565b61048f816101a1565b82525050565b60006020820190506104aa6000830184610486565b92915050565b7f4e487b7100000000000000000000000000000000000000000000000000000000600052603260045260246000fdfea2646970667358221220707713d089bf59e42997ee080a138a6cbfb8f2452b775c4896aeb125d8aff18b64736f6c63430008100033",
					"opcodes": "PUSH1 0x80 PUSH1 0x40 MSTORE CALLVALUE DUP1 ISZERO PUSH2 0x10 JUMPI PUSH1 0x0 DUP1 REVERT JUMPDEST POP PUSH2 0x515 DUP1 PUSH2 0x20 PUSH1 0x0 CODECOPY PUSH1 0x0 RETURN INVALID PUSH1 0x80 PUSH1 0x40 MSTORE CALLVALUE DUP1 ISZERO PUSH2 0x10 JUMPI PUSH1 0x0 DUP1 REVERT JUMPDEST POP PUSH1 0x4 CALLDATASIZE LT PUSH2 0x41 JUMPI PUSH1 0x0 CALLDATALOAD PUSH1 0xE0 SHR DUP1 PUSH4 0xB4745EC EQ PUSH2 0x46 JUMPI DUP1 PUSH4 0x6575C86F EQ PUSH2 0x62 JUMPI DUP1 PUSH4 0x69BD01C4 EQ PUSH2 0x92 JUMPI JUMPDEST PUSH1 0x0 DUP1 REVERT JUMPDEST PUSH2 0x60 PUSH1 0x4 DUP1 CALLDATASIZE SUB DUP2 ADD SWAP1 PUSH2 0x5B SWAP2 SWAP1 PUSH2 0x1D7 JUMP JUMPDEST PUSH2 0xB0 JUMP JUMPDEST STOP JUMPDEST PUSH2 0x7C PUSH1 0x4 DUP1 CALLDATASIZE SUB DUP2 ADD SWAP1 PUSH2 0x77 SWAP2 SWAP1 PUSH2 0x35D JUMP JUMPDEST PUSH2 0x17D JUMP JUMPDEST PUSH1 0x40 MLOAD PUSH2 0x89 SWAP2 SWAP1 PUSH2 0x464 JUMP JUMPDEST PUSH1 0x40 MLOAD DUP1 SWAP2 SUB SWAP1 RETURN JUMPDEST PUSH2 0x9A PUSH2 0x184 JUMP JUMPDEST PUSH1 0x40 MLOAD PUSH2 0xA7 SWAP2 SWAP1 PUSH2 0x495 JUMP JUMPDEST PUSH1 0x40 MLOAD DUP1 SWAP2 SUB SWAP1 RETURN JUMPDEST DUP1 PUSH1 0x0 DUP2 SWAP1 SSTORE POP PUSH1 0x0 PUSH1 0x3 PUSH8 0xFFFFFFFFFFFFFFFF DUP2 GT ISZERO PUSH2 0xD4 JUMPI PUSH2 0xD3 PUSH2 0x21A JUMP JUMPDEST JUMPDEST PUSH1 0x40 MLOAD SWAP1 DUP1 DUP3 MSTORE DUP1 PUSH1 0x20 MUL PUSH1 0x20 ADD DUP3 ADD PUSH1 0x40 MSTORE DUP1 ISZERO PUSH2 0x102 JUMPI DUP2 PUSH1 0x20 ADD PUSH1 0x20 DUP3 MUL DUP1 CALLDATASIZE DUP4 CALLDATACOPY DUP1 DUP3 ADD SWAP2 POP POP SWAP1 POP JUMPDEST POP SWAP1 POP PUSH1 0xA DUP2 PUSH1 0x1 DUP2 MLOAD DUP2 LT PUSH2 0x11B JUMPI PUSH2 0x11A PUSH2 0x4B0 JUMP JUMPDEST JUMPDEST PUSH1 0x20 MUL PUSH1 0x20 ADD ADD DUP2 DUP2 MSTORE POP POP PUSH1 0x1 DUP1 DUP1 PUSH1 0x1 DUP2 SLOAD ADD DUP1 DUP3 SSTORE DUP1 SWAP2 POP POP PUSH1 0x1 SWAP1 SUB SWAP1 PUSH1 0x0 MSTORE PUSH1 0x20 PUSH1 0x0 KECCAK256 ADD PUSH1 0x0 SWAP1 SWAP2 SWAP1 SWAP2 SWAP1 SWAP2 POP SSTORE PUSH1 0x1 PUSH1 0xB SWAP1 DUP1 PUSH1 0x1 DUP2 SLOAD ADD DUP1 DUP3 SSTORE DUP1 SWAP2 POP POP PUSH1 0x1 SWAP1 SUB SWAP1 PUSH1 0x0 MSTORE PUSH1 0x20 PUSH1 0x0 KECCAK256 ADD PUSH1 0x0 SWAP1 SWAP2 SWAP1 SWAP2 SWAP1 SWAP2 POP SSTORE POP POP JUMP JUMPDEST PUSH1 0x60 SWAP2 SWAP1 POP JUMP JUMPDEST PUSH1 0x0 DUP1 SLOAD SWAP1 POP SWAP1 JUMP JUMPDEST PUSH1 0x0 PUSH1 0x40 MLOAD SWAP1 POP SWAP1 JUMP JUMPDEST PUSH1 0x0 DUP1 REVERT JUMPDEST PUSH1 0x0 DUP1 REVERT JUMPDEST PUSH1 0x0 DUP2 SWAP1 POP SWAP2 SWAP1 POP JUMP JUMPDEST PUSH2 0x1B4 DUP2 PUSH2 0x1A1 JUMP JUMPDEST DUP2 EQ PUSH2 0x1BF JUMPI PUSH1 0x0 DUP1 REVERT JUMPDEST POP JUMP JUMPDEST PUSH1 0x0 DUP2 CALLDATALOAD SWAP1 POP PUSH2 0x1D1 DUP2 PUSH2 0x1AB JUMP JUMPDEST SWAP3 SWAP2 POP POP JUMP JUMPDEST PUSH1 0x0 PUSH1 0x20 DUP3 DUP5 SUB SLT ISZERO PUSH2 0x1ED JUMPI PUSH2 0x1EC PUSH2 0x197 JUMP JUMPDEST JUMPDEST PUSH1 0x0 PUSH2 0x1FB DUP5 DUP3 DUP6 ADD PUSH2 0x1C2 JUMP JUMPDEST SWAP2 POP POP SWAP3 SWAP2 POP POP JUMP JUMPDEST PUSH1 0x0 DUP1 REVERT JUMPDEST PUSH1 0x0 PUSH1 0x1F NOT PUSH1 0x1F DUP4 ADD AND SWAP1 POP SWAP2 SWAP1 POP JUMP JUMPDEST PUSH32 0x4E487B7100000000000000000000000000000000000000000000000000000000 PUSH1 0x0 MSTORE PUSH1 0x41 PUSH1 0x4 MSTORE PUSH1 0x24 PUSH1 0x0 REVERT JUMPDEST PUSH2 0x252 DUP3 PUSH2 0x209 JUMP JUMPDEST DUP2 ADD DUP2 DUP2 LT PUSH8 0xFFFFFFFFFFFFFFFF DUP3 GT OR ISZERO PUSH2 0x271 JUMPI PUSH2 0x270 PUSH2 0x21A JUMP JUMPDEST JUMPDEST DUP1 PUSH1 0x40 MSTORE POP POP POP JUMP JUMPDEST PUSH1 0x0 PUSH2 0x284 PUSH2 0x18D JUMP JUMPDEST SWAP1 POP PUSH2 0x290 DUP3 DUP3 PUSH2 0x249 JUMP JUMPDEST SWAP2 SWAP1 POP JUMP JUMPDEST PUSH1 0x0 PUSH8 0xFFFFFFFFFFFFFFFF DUP3 GT ISZERO PUSH2 0x2B0 JUMPI PUSH2 0x2AF PUSH2 0x21A JUMP JUMPDEST JUMPDEST PUSH1 0x20 DUP3 MUL SWAP1 POP PUSH1 0x20 DUP2 ADD SWAP1 POP SWAP2 SWAP1 POP JUMP JUMPDEST PUSH1 0x0 DUP1 REVERT JUMPDEST PUSH1 0x0 PUSH2 0x2D9 PUSH2 0x2D4 DUP5 PUSH2 0x295 JUMP JUMPDEST PUSH2 0x27A JUMP JUMPDEST SWAP1 POP DUP1 DUP4 DUP3 MSTORE PUSH1 0x20 DUP3 ADD SWAP1 POP PUSH1 0x20 DUP5 MUL DUP4 ADD DUP6 DUP2 GT ISZERO PUSH2 0x2FC JUMPI PUSH2 0x2FB PUSH2 0x2C1 JUMP JUMPDEST JUMPDEST DUP4 JUMPDEST DUP2 DUP2 LT ISZERO PUSH2 0x325 JUMPI DUP1 PUSH2 0x311 DUP9 DUP3 PUSH2 0x1C2 JUMP JUMPDEST DUP5 MSTORE PUSH1 0x20 DUP5 ADD SWAP4 POP POP PUSH1 0x20 DUP2 ADD SWAP1 POP PUSH2 0x2FE JUMP JUMPDEST POP POP POP SWAP4 SWAP3 POP POP POP JUMP JUMPDEST PUSH1 0x0 DUP3 PUSH1 0x1F DUP4 ADD SLT PUSH2 0x344 JUMPI PUSH2 0x343 PUSH2 0x204 JUMP JUMPDEST JUMPDEST DUP2 CALLDATALOAD PUSH2 0x354 DUP5 DUP3 PUSH1 0x20 DUP7 ADD PUSH2 0x2C6 JUMP JUMPDEST SWAP2 POP POP SWAP3 SWAP2 POP POP JUMP JUMPDEST PUSH1 0x0 PUSH1 0x20 DUP3 DUP5 SUB SLT ISZERO PUSH2 0x373 JUMPI PUSH2 0x372 PUSH2 0x197 JUMP JUMPDEST JUMPDEST PUSH1 0x0 DUP3 ADD CALLDATALOAD PUSH8 0xFFFFFFFFFFFFFFFF DUP2 GT ISZERO PUSH2 0x391 JUMPI PUSH2 0x390 PUSH2 0x19C JUMP JUMPDEST JUMPDEST PUSH2 0x39D DUP5 DUP3 DUP6 ADD PUSH2 0x32F JUMP JUMPDEST SWAP2 POP POP SWAP3 SWAP2 POP POP JUMP JUMPDEST PUSH1 0x0 DUP2 MLOAD SWAP1 POP SWAP2 SWAP1 POP JUMP JUMPDEST PUSH1 0x0 DUP3 DUP3 MSTORE PUSH1 0x20 DUP3 ADD SWAP1 POP SWAP3 SWAP2 POP POP JUMP JUMPDEST PUSH1 0x0 DUP2 SWAP1 POP PUSH1 0x20 DUP3 ADD SWAP1 POP SWAP2 SWAP1 POP JUMP JUMPDEST PUSH2 0x3DB DUP2 PUSH2 0x1A1 JUMP JUMPDEST DUP3 MSTORE POP POP JUMP JUMPDEST PUSH1 0x0 PUSH2 0x3ED DUP4 DUP4 PUSH2 0x3D2 JUMP JUMPDEST PUSH1 0x20 DUP4 ADD SWAP1 POP SWAP3 SWAP2 POP POP JUMP JUMPDEST PUSH1 0x0 PUSH1 0x20 DUP3 ADD SWAP1 POP SWAP2 SWAP1 POP JUMP JUMPDEST PUSH1 0x0 PUSH2 0x411 DUP3 PUSH2 0x3A6 JUMP JUMPDEST PUSH2 0x41B DUP2 DUP6 PUSH2 0x3B1 JUMP JUMPDEST SWAP4 POP PUSH2 0x426 DUP4 PUSH2 0x3C2 JUMP JUMPDEST DUP1 PUSH1 0x0 JUMPDEST DUP4 DUP2 LT ISZERO PUSH2 0x457 JUMPI DUP2 MLOAD PUSH2 0x43E DUP9 DUP3 PUSH2 0x3E1 JUMP JUMPDEST SWAP8 POP PUSH2 0x449 DUP4 PUSH2 0x3F9 JUMP JUMPDEST SWAP3 POP POP PUSH1 0x1 DUP2 ADD SWAP1 POP PUSH2 0x42A JUMP JUMPDEST POP DUP6 SWAP4 POP POP POP POP SWAP3 SWAP2 POP POP JUMP JUMPDEST PUSH1 0x0 PUSH1 0x20 DUP3 ADD SWAP1 POP DUP2 DUP2 SUB PUSH1 0x0 DUP4 ADD MSTORE PUSH2 0x47E DUP2 DUP5 PUSH2 0x406 JUMP JUMPDEST SWAP1 POP SWAP3 SWAP2 POP POP JUMP JUMPDEST PUSH2 0x48F DUP2 PUSH2 0x1A1 JUMP JUMPDEST DUP3 MSTORE POP POP JUMP JUMPDEST PUSH1 0x0 PUSH1 0x20 DUP3 ADD SWAP1 POP PUSH2 0x4AA PUSH1 0x0 DUP4 ADD DUP5 PUSH2 0x486 JUMP JUMPDEST SWAP3 SWAP2 POP POP JUMP JUMPDEST PUSH32 0x4E487B7100000000000000000000000000000000000000000000000000000000 PUSH1 0x0 MSTORE PUSH1 0x32 PUSH1 0x4 MSTORE PUSH1 0x24 PUSH1 0x0 REVERT INVALID LOG2 PUSH5 0x6970667358 0x22 SLT KECCAK256 PUSH17 0x7713D089BF59E42997EE080A138A6CBFB8 CALLCODE GASLIMIT 0x2B PUSH24 0x5C4896AEB125D8AFF18B64736F6C63430008100033000000 "
				},
				"gasEstimates": {
					"creation": {
						"codeDepositCost": "260200",
						"executionCost": "300",
						"totalCost": "260500"
					},
					"external": {
						"getvalue()": "2459",
						"setvalue(uint256)": "115590",
						"vis(uint256[])": "infinite"
					}
				},
				"methodIdentifiers": {
					"getvalue()": "69bd01c4",
					"setvalue(uint256)": "0b4745ec",
					"vis(uint256[])": "6575c86f"
				}
			},
			"storageLayout": {
				"storage": [
					{
						"astId": 3,
						"contract": "project_0x00/mycontract.sol:mycontract",
						"label": "value",
						"offset": 0,
						"slot": "0",
						"type": "t_uint256"
					},
					{
						"astId": 6,
						"contract": "project_0x00/mycontract.sol:mycontract",
						"label": "array",
						"offset": 0,
						"slot": "1",
						"type": "t_array(t_uint256)dyn_storage"
					}
				],
				"types": {
					"t_array(t_uint256)dyn_storage": {
						"base": "t_uint256",
						"encoding": "dynamic_array",
						"label": "uint256[]",
						"numberOfBytes": "32"
					},
					"t_uint256": {
						"encoding": "inplace",
						"label": "uint256",
						"numberOfBytes": "32"
					}
				}
			},
			"userdoc": {
				"kind": "user",
				"methods": {
					"vis(uint256[])": {
						"notice": "accepts array as argument, fn uses external as visibilty function foo(uint[] calldata tax) external pure returns(uint[]){} /** Accepts array as argument, fn uses public, private and internal as visiblity"
					}
				},
				"version": 1
			}
		}
	}
}