{
	"project_0x00/mycontract4.sol": {
		"mycontract4": {
			"abi": [
				{
					"inputs": [],
					"name": "callB",
					"outputs": [
						{
							"internalType": "string",
							"name": "",
							"type": "string"
						}
					],
					"stateMutability": "pure",
					"type": "function"
				},
				{
					"inputs": [
						{
							"internalType": "address",
							"name": "_addB",
							"type": "address"
						}
					],
					"name": "setaddB",
					"outputs": [],
					"stateMutability": "nonpayable",
					"type": "function"
				}
			],
			"devdoc": {
				"kind": "dev",
				"methods": {},
				"version": 1
			},
			"evm": {
				"assembly": "    /* \"project_0x00/mycontract4.sol\":61:415  contract mycontract4{... */\n  mstore(0x40, 0x80)\n  callvalue\n  dup1\n  iszero\n  tag_1\n  jumpi\n  0x00\n  dup1\n  revert\ntag_1:\n  pop\n  dataSize(sub_0)\n  dup1\n  dataOffset(sub_0)\n  0x00\n  codecopy\n  0x00\n  return\nstop\n\nsub_0: assembly {\n        /* \"project_0x00/mycontract4.sol\":61:415  contract mycontract4{... */\n      mstore(0x40, 0x80)\n      callvalue\n      dup1\n      iszero\n      tag_1\n      jumpi\n      0x00\n      dup1\n      revert\n    tag_1:\n      pop\n      jumpi(tag_2, lt(calldatasize, 0x04))\n      shr(0xe0, calldataload(0x00))\n      dup1\n      0x0fbae26c\n      eq\n      tag_3\n      jumpi\n      dup1\n      0x44fd4fa0\n      eq\n      tag_4\n      jumpi\n    tag_2:\n      0x00\n      dup1\n      revert\n        /* \"project_0x00/mycontract4.sol\":180:253  function setaddB(address _addB) external {... */\n    tag_3:\n      tag_5\n      0x04\n      dup1\n      calldatasize\n      sub\n      dup2\n      add\n      swap1\n      tag_6\n      swap2\n      swap1\n      tag_7\n      jump\t// in\n    tag_6:\n      tag_8\n      jump\t// in\n    tag_5:\n      stop\n        /* \"project_0x00/mycontract4.sol\":298:412  function callB() external pure returns(string memory){... */\n    tag_4:\n      tag_9\n      tag_10\n      jump\t// in\n    tag_9:\n      mload(0x40)\n      tag_11\n      swap2\n      swap1\n      tag_12\n      jump\t// in\n    tag_11:\n      mload(0x40)\n      dup1\n      swap2\n      sub\n      swap1\n      return\n        /* \"project_0x00/mycontract4.sol\":180:253  function setaddB(address _addB) external {... */\n    tag_8:\n        /* \"project_0x00/mycontract4.sol\":240:245  _addB */\n      dup1\n        /* \"project_0x00/mycontract4.sol\":232:237  addrB */\n      0x00\n      dup1\n        /* \"project_0x00/mycontract4.sol\":232:245  addrB = _addB */\n      0x0100\n      exp\n      dup2\n      sload\n      dup2\n      0xffffffffffffffffffffffffffffffffffffffff\n      mul\n      not\n      and\n      swap1\n      dup4\n      0xffffffffffffffffffffffffffffffffffffffff\n      and\n      mul\n      or\n      swap1\n      sstore\n      pop\n        /* \"project_0x00/mycontract4.sol\":180:253  function setaddB(address _addB) external {... */\n      pop\n      jump\t// out\n        /* \"project_0x00/mycontract4.sol\":298:412  function callB() external pure returns(string memory){... */\n    tag_10:\n        /* \"project_0x00/mycontract4.sol\":337:350  string memory */\n      0x60\n        /* \"project_0x00/mycontract4.sol\":298:412  function callB() external pure returns(string memory){... */\n      swap1\n      jump\t// out\n        /* \"#utility.yul\":88:205   */\n    tag_16:\n        /* \"#utility.yul\":197:198   */\n      0x00\n        /* \"#utility.yul\":194:195   */\n      dup1\n        /* \"#utility.yul\":187:199   */\n      revert\n        /* \"#utility.yul\":334:460   */\n    tag_18:\n        /* \"#utility.yul\":371:378   */\n      0x00\n        /* \"#utility.yul\":411:453   */\n      0xffffffffffffffffffffffffffffffffffffffff\n        /* \"#utility.yul\":404:409   */\n      dup3\n        /* \"#utility.yul\":400:454   */\n      and\n        /* \"#utility.yul\":389:454   */\n      swap1\n      pop\n        /* \"#utility.yul\":334:460   */\n      swap2\n      swap1\n      pop\n      jump\t// out\n        /* \"#utility.yul\":466:562   */\n    tag_19:\n        /* \"#utility.yul\":503:510   */\n      0x00\n        /* \"#utility.yul\":532:556   */\n      tag_33\n        /* \"#utility.yul\":550:555   */\n      dup3\n        /* \"#utility.yul\":532:556   */\n      tag_18\n      jump\t// in\n    tag_33:\n        /* \"#utility.yul\":521:556   */\n      swap1\n      pop\n        /* \"#utility.yul\":466:562   */\n      swap2\n      swap1\n      pop\n      jump\t// out\n        /* \"#utility.yul\":568:690   */\n    tag_20:\n        /* \"#utility.yul\":641:665   */\n      tag_35\n        /* \"#utility.yul\":659:664   */\n      dup2\n        /* \"#utility.yul\":641:665   */\n      tag_19\n      jump\t// in\n    tag_35:\n        /* \"#utility.yul\":634:639   */\n      dup2\n        /* \"#utility.yul\":631:666   */\n      eq\n        /* \"#utility.yul\":621:684   */\n      tag_36\n      jumpi\n        /* \"#utility.yul\":680:681   */\n      0x00\n        /* \"#utility.yul\":677:678   */\n      dup1\n        /* \"#utility.yul\":670:682   */\n      revert\n        /* \"#utility.yul\":621:684   */\n    tag_36:\n        /* \"#utility.yul\":568:690   */\n      pop\n      jump\t// out\n        /* \"#utility.yul\":696:835   */\n    tag_21:\n        /* \"#utility.yul\":742:747   */\n      0x00\n        /* \"#utility.yul\":780:786   */\n      dup2\n        /* \"#utility.yul\":767:787   */\n      calldataload\n        /* \"#utility.yul\":758:787   */\n      swap1\n      pop\n        /* \"#utility.yul\":796:829   */\n      tag_38\n        /* \"#utility.yul\":823:828   */\n      dup2\n        /* \"#utility.yul\":796:829   */\n      tag_20\n      jump\t// in\n    tag_38:\n        /* \"#utility.yul\":696:835   */\n      swap3\n      swap2\n      pop\n      pop\n      jump\t// out\n        /* \"#utility.yul\":841:1170   */\n    tag_7:\n        /* \"#utility.yul\":900:906   */\n      0x00\n        /* \"#utility.yul\":949:951   */\n      0x20\n        /* \"#utility.yul\":937:946   */\n      dup3\n        /* \"#utility.yul\":928:935   */\n      dup5\n        /* \"#utility.yul\":924:947   */\n      sub\n        /* \"#utility.yul\":920:952   */\n      slt\n        /* \"#utility.yul\":917:1036   */\n      iszero\n      tag_40\n      jumpi\n        /* \"#utility.yul\":955:1034   */\n      tag_41\n      tag_16\n      jump\t// in\n    tag_41:\n        /* \"#utility.yul\":917:1036   */\n    tag_40:\n        /* \"#utility.yul\":1075:1076   */\n      0x00\n        /* \"#utility.yul\":1100:1153   */\n      tag_42\n        /* \"#utility.yul\":1145:1152   */\n      dup5\n        /* \"#utility.yul\":1136:1142   */\n      dup3\n        /* \"#utility.yul\":1125:1134   */\n      dup6\n        /* \"#utility.yul\":1121:1143   */\n      add\n        /* \"#utility.yul\":1100:1153   */\n      tag_21\n      jump\t// in\n    tag_42:\n        /* \"#utility.yul\":1090:1153   */\n      swap2\n      pop\n        /* \"#utility.yul\":1046:1163   */\n      pop\n        /* \"#utility.yul\":841:1170   */\n      swap3\n      swap2\n      pop\n      pop\n      jump\t// out\n        /* \"#utility.yul\":1176:1275   */\n    tag_22:\n        /* \"#utility.yul\":1228:1234   */\n      0x00\n        /* \"#utility.yul\":1262:1267   */\n      dup2\n        /* \"#utility.yul\":1256:1268   */\n      mload\n        /* \"#utility.yul\":1246:1268   */\n      swap1\n      pop\n        /* \"#utility.yul\":1176:1275   */\n      swap2\n      swap1\n      pop\n      jump\t// out\n        /* \"#utility.yul\":1281:1450   */\n    tag_23:\n        /* \"#utility.yul\":1365:1376   */\n      0x00\n        /* \"#utility.yul\":1399:1405   */\n      dup3\n        /* \"#utility.yul\":1394:1397   */\n      dup3\n        /* \"#utility.yul\":1387:1406   */\n      mstore\n        /* \"#utility.yul\":1439:1443   */\n      0x20\n        /* \"#utility.yul\":1434:1437   */\n      dup3\n        /* \"#utility.yul\":1430:1444   */\n      add\n        /* \"#utility.yul\":1415:1444   */\n      swap1\n      pop\n        /* \"#utility.yul\":1281:1450   */\n      swap3\n      swap2\n      pop\n      pop\n      jump\t// out\n        /* \"#utility.yul\":1456:1702   */\n    tag_24:\n        /* \"#utility.yul\":1537:1538   */\n      0x00\n        /* \"#utility.yul\":1547:1660   */\n    tag_46:\n        /* \"#utility.yul\":1561:1567   */\n      dup4\n        /* \"#utility.yul\":1558:1559   */\n      dup2\n        /* \"#utility.yul\":1555:1568   */\n      lt\n        /* \"#utility.yul\":1547:1660   */\n      iszero\n      tag_48\n      jumpi\n        /* \"#utility.yul\":1646:1647   */\n      dup1\n        /* \"#utility.yul\":1641:1644   */\n      dup3\n        /* \"#utility.yul\":1637:1648   */\n      add\n        /* \"#utility.yul\":1631:1649   */\n      mload\n        /* \"#utility.yul\":1627:1628   */\n      dup2\n        /* \"#utility.yul\":1622:1625   */\n      dup5\n        /* \"#utility.yul\":1618:1629   */\n      add\n        /* \"#utility.yul\":1611:1650   */\n      mstore\n        /* \"#utility.yul\":1583:1585   */\n      0x20\n        /* \"#utility.yul\":1580:1581   */\n      dup2\n        /* \"#utility.yul\":1576:1586   */\n      add\n        /* \"#utility.yul\":1571:1586   */\n      swap1\n      pop\n        /* \"#utility.yul\":1547:1660   */\n      jump(tag_46)\n    tag_48:\n        /* \"#utility.yul\":1694:1695   */\n      0x00\n        /* \"#utility.yul\":1685:1691   */\n      dup5\n        /* \"#utility.yul\":1680:1683   */\n      dup5\n        /* \"#utility.yul\":1676:1692   */\n      add\n        /* \"#utility.yul\":1669:1696   */\n      mstore\n        /* \"#utility.yul\":1518:1702   */\n      pop\n        /* \"#utility.yul\":1456:1702   */\n      pop\n      pop\n      pop\n      jump\t// out\n        /* \"#utility.yul\":1708:1810   */\n    tag_25:\n        /* \"#utility.yul\":1749:1755   */\n      0x00\n        /* \"#utility.yul\":1800:1802   */\n      0x1f\n        /* \"#utility.yul\":1796:1803   */\n      not\n        /* \"#utility.yul\":1791:1793   */\n      0x1f\n        /* \"#utility.yul\":1784:1789   */\n      dup4\n        /* \"#utility.yul\":1780:1794   */\n      add\n        /* \"#utility.yul\":1776:1804   */\n      and\n        /* \"#utility.yul\":1766:1804   */\n      swap1\n      pop\n        /* \"#utility.yul\":1708:1810   */\n      swap2\n      swap1\n      pop\n      jump\t// out\n        /* \"#utility.yul\":1816:2193   */\n    tag_26:\n        /* \"#utility.yul\":1904:1907   */\n      0x00\n        /* \"#utility.yul\":1932:1971   */\n      tag_51\n        /* \"#utility.yul\":1965:1970   */\n      dup3\n        /* \"#utility.yul\":1932:1971   */\n      tag_22\n      jump\t// in\n    tag_51:\n        /* \"#utility.yul\":1987:2058   */\n      tag_52\n        /* \"#utility.yul\":2051:2057   */\n      dup2\n        /* \"#utility.yul\":2046:2049   */\n      dup6\n        /* \"#utility.yul\":1987:2058   */\n      tag_23\n      jump\t// in\n    tag_52:\n        /* \"#utility.yul\":1980:2058   */\n      swap4\n      pop\n        /* \"#utility.yul\":2067:2132   */\n      tag_53\n        /* \"#utility.yul\":2125:2131   */\n      dup2\n        /* \"#utility.yul\":2120:2123   */\n      dup6\n        /* \"#utility.yul\":2113:2117   */\n      0x20\n        /* \"#utility.yul\":2106:2111   */\n      dup7\n        /* \"#utility.yul\":2102:2118   */\n      add\n        /* \"#utility.yul\":2067:2132   */\n      tag_24\n      jump\t// in\n    tag_53:\n        /* \"#utility.yul\":2157:2186   */\n      tag_54\n        /* \"#utility.yul\":2179:2185   */\n      dup2\n        /* \"#utility.yul\":2157:2186   */\n      tag_25\n      jump\t// in\n    tag_54:\n        /* \"#utility.yul\":2152:2155   */\n      dup5\n        /* \"#utility.yul\":2148:2187   */\n      add\n        /* \"#utility.yul\":2141:2187   */\n      swap2\n      pop\n        /* \"#utility.yul\":1908:2193   */\n      pop\n        /* \"#utility.yul\":1816:2193   */\n      swap3\n      swap2\n      pop\n      pop\n      jump\t// out\n        /* \"#utility.yul\":2199:2512   */\n    tag_12:\n        /* \"#utility.yul\":2312:2316   */\n      0x00\n        /* \"#utility.yul\":2350:2352   */\n      0x20\n        /* \"#utility.yul\":2339:2348   */\n      dup3\n        /* \"#utility.yul\":2335:2353   */\n      add\n        /* \"#utility.yul\":2327:2353   */\n      swap1\n      pop\n        /* \"#utility.yul\":2399:2408   */\n      dup2\n        /* \"#utility.yul\":2393:2397   */\n      dup2\n        /* \"#utility.yul\":2389:2409   */\n      sub\n        /* \"#utility.yul\":2385:2386   */\n      0x00\n        /* \"#utility.yul\":2374:2383   */\n      dup4\n        /* \"#utility.yul\":2370:2387   */\n      add\n        /* \"#utility.yul\":2363:2410   */\n      mstore\n        /* \"#utility.yul\":2427:2505   */\n      tag_56\n        /* \"#utility.yul\":2500:2504   */\n      dup2\n        /* \"#utility.yul\":2491:2497   */\n      dup5\n        /* \"#utility.yul\":2427:2505   */\n      tag_26\n      jump\t// in\n    tag_56:\n        /* \"#utility.yul\":2419:2505   */\n      swap1\n      pop\n        /* \"#utility.yul\":2199:2512   */\n      swap3\n      swap2\n      pop\n      pop\n      jump\t// out\n\n    auxdata: 0xa2646970667358221220b4460c08e64d139fd2edda049df89d621598edbb154b426156bd8e353ddb252064736f6c63430008100033\n}\n",
				"bytecode": {
					"linkReferences": {},
					"object": "608060405234801561001057600080fd5b50610235806100206000396000f3fe608060405234801561001057600080fd5b50600436106100365760003560e01c80630fbae26c1461003b57806344fd4fa014610057575b600080fd5b61005560048036038101906100509190610120565b610075565b005b61005f6100b8565b60405161006c91906101dd565b60405180910390f35b806000806101000a81548173ffffffffffffffffffffffffffffffffffffffff021916908373ffffffffffffffffffffffffffffffffffffffff16021790555050565b606090565b600080fd5b600073ffffffffffffffffffffffffffffffffffffffff82169050919050565b60006100ed826100c2565b9050919050565b6100fd816100e2565b811461010857600080fd5b50565b60008135905061011a816100f4565b92915050565b600060208284031215610136576101356100bd565b5b60006101448482850161010b565b91505092915050565b600081519050919050565b600082825260208201905092915050565b60005b8381101561018757808201518184015260208101905061016c565b60008484015250505050565b6000601f19601f8301169050919050565b60006101af8261014d565b6101b98185610158565b93506101c9818560208601610169565b6101d281610193565b840191505092915050565b600060208201905081810360008301526101f781846101a4565b90509291505056fea2646970667358221220b4460c08e64d139fd2edda049df89d621598edbb154b426156bd8e353ddb252064736f6c63430008100033",
					"opcodes": "PUSH1 0x80 PUSH1 0x40 MSTORE CALLVALUE DUP1 ISZERO PUSH2 0x10 JUMPI PUSH1 0x0 DUP1 REVERT JUMPDEST POP PUSH2 0x235 DUP1 PUSH2 0x20 PUSH1 0x0 CODECOPY PUSH1 0x0 RETURN INVALID PUSH1 0x80 PUSH1 0x40 MSTORE CALLVALUE DUP1 ISZERO PUSH2 0x10 JUMPI PUSH1 0x0 DUP1 REVERT JUMPDEST POP PUSH1 0x4 CALLDATASIZE LT PUSH2 0x36 JUMPI PUSH1 0x0 CALLDATALOAD PUSH1 0xE0 SHR DUP1 PUSH4 0xFBAE26C EQ PUSH2 0x3B JUMPI DUP1 PUSH4 0x44FD4FA0 EQ PUSH2 0x57 JUMPI JUMPDEST PUSH1 0x0 DUP1 REVERT JUMPDEST PUSH2 0x55 PUSH1 0x4 DUP1 CALLDATASIZE SUB DUP2 ADD SWAP1 PUSH2 0x50 SWAP2 SWAP1 PUSH2 0x120 JUMP JUMPDEST PUSH2 0x75 JUMP JUMPDEST STOP JUMPDEST PUSH2 0x5F PUSH2 0xB8 JUMP JUMPDEST PUSH1 0x40 MLOAD PUSH2 0x6C SWAP2 SWAP1 PUSH2 0x1DD JUMP JUMPDEST PUSH1 0x40 MLOAD DUP1 SWAP2 SUB SWAP1 RETURN JUMPDEST DUP1 PUSH1 0x0 DUP1 PUSH2 0x100 EXP DUP2 SLOAD DUP2 PUSH20 0xFFFFFFFFFFFFFFFFFFFFFFFFFFFFFFFFFFFFFFFF MUL NOT AND SWAP1 DUP4 PUSH20 0xFFFFFFFFFFFFFFFFFFFFFFFFFFFFFFFFFFFFFFFF AND MUL OR SWAP1 SSTORE POP POP JUMP JUMPDEST PUSH1 0x60 SWAP1 JUMP JUMPDEST PUSH1 0x0 DUP1 REVERT JUMPDEST PUSH1 0x0 PUSH20 0xFFFFFFFFFFFFFFFFFFFFFFFFFFFFFFFFFFFFFFFF DUP3 AND SWAP1 POP SWAP2 SWAP1 POP JUMP JUMPDEST PUSH1 0x0 PUSH2 0xED DUP3 PUSH2 0xC2 JUMP JUMPDEST SWAP1 POP SWAP2 SWAP1 POP JUMP JUMPDEST PUSH2 0xFD DUP2 PUSH2 0xE2 JUMP JUMPDEST DUP2 EQ PUSH2 0x108 JUMPI PUSH1 0x0 DUP1 REVERT JUMPDEST POP JUMP JUMPDEST PUSH1 0x0 DUP2 CALLDATALOAD SWAP1 POP PUSH2 0x11A DUP2 PUSH2 0xF4 JUMP JUMPDEST SWAP3 SWAP2 POP POP JUMP JUMPDEST PUSH1 0x0 PUSH1 0x20 DUP3 DUP5 SUB SLT ISZERO PUSH2 0x136 JUMPI PUSH2 0x135 PUSH2 0xBD JUMP JUMPDEST JUMPDEST PUSH1 0x0 PUSH2 0x144 DUP5 DUP3 DUP6 ADD PUSH2 0x10B JUMP JUMPDEST SWAP2 POP POP SWAP3 SWAP2 POP POP JUMP JUMPDEST PUSH1 0x0 DUP2 MLOAD SWAP1 POP SWAP2 SWAP1 POP JUMP JUMPDEST PUSH1 0x0 DUP3 DUP3 MSTORE PUSH1 0x20 DUP3 ADD SWAP1 POP SWAP3 SWAP2 POP POP JUMP JUMPDEST PUSH1 0x0 JUMPDEST DUP4 DUP2 LT ISZERO PUSH2 0x187 JUMPI DUP1 DUP3 ADD MLOAD DUP2 DUP5 ADD MSTORE PUSH1 0x20 DUP2 ADD SWAP1 POP PUSH2 0x16C JUMP JUMPDEST PUSH1 0x0 DUP5 DUP5 ADD MSTORE POP POP POP POP JUMP JUMPDEST PUSH1 0x0 PUSH1 0x1F NOT PUSH1 0x1F DUP4 ADD AND SWAP1 POP SWAP2 SWAP1 POP JUMP JUMPDEST PUSH1 0x0 PUSH2 0x1AF DUP3 PUSH2 0x14D JUMP JUMPDEST PUSH2 0x1B9 DUP2 DUP6 PUSH2 0x158 JUMP JUMPDEST SWAP4 POP PUSH2 0x1C9 DUP2 DUP6 PUSH1 0x20 DUP7 ADD PUSH2 0x169 JUMP JUMPDEST PUSH2 0x1D2 DUP2 PUSH2 0x193 JUMP JUMPDEST DUP5 ADD SWAP2 POP POP SWAP3 SWAP2 POP POP JUMP JUMPDEST PUSH1 0x0 PUSH1 0x20 DUP3 ADD SWAP1 POP DUP2 DUP2 SUB PUSH1 0x0 DUP4 ADD MSTORE PUSH2 0x1F7 DUP2 DUP5 PUSH2 0x1A4 JUMP JUMPDEST SWAP1 POP SWAP3 SWAP2 POP POP JUMP INVALID LOG2 PUSH5 0x6970667358 0x22 SLT KECCAK256 0xB4 CHAINID 0xC ADDMOD 0xE6 0x4D SGT SWAP16 0xD2 0xED 0xDA DIV SWAP14 0xF8 SWAP14 PUSH3 0x1598ED 0xBB ISZERO 0x4B TIMESTAMP PUSH2 0x56BD DUP15 CALLDATALOAD RETURNDATASIZE 0xDB 0x25 KECCAK256 PUSH5 0x736F6C6343 STOP ADDMOD LT STOP CALLER "
				},
				"gasEstimates": {
					"creation": {
						"codeDepositCost": "113000",
						"executionCost": "159",
						"totalCost": "113159"
					},
					"external": {
						"callB()": "infinite",
						"setaddB(address)": "24700"
					}
				},
				"methodIdentifiers": {
					"callB()": "44fd4fa0",
					"setaddB(address)": "0fbae26c"
				}
			},
			"storageLayout": {
				"storage": [
					{
						"astId": 3,
						"contract": "project_0x00/mycontract4.sol:mycontract4",
						"label": "addrB",
						"offset": 0,
						"slot": "0",
						"type": "t_address"
					}
				],
				"types": {
					"t_address": {
						"encoding": "inplace",
						"label": "address",
						"numberOfBytes": "20"
					}
				}
			},
			"userdoc": {
				"kind": "user",
				"methods": {},
				"version": 1
			}
		}
	}
}