{
	"project_0x00/mycontract2.sol": {
		"mycontract2": {
			"abi": [
				{
					"inputs": [
						{
							"internalType": "string",
							"name": "dname",
							"type": "string"
						}
					],
					"name": "one",
					"outputs": [],
					"stateMutability": "view",
					"type": "function"
				}
			],
			"devdoc": {
				"kind": "dev",
				"methods": {},
				"version": 1
			},
			"evm": {
				"assembly": "    /* \"project_0x00/mycontract2.sol\":61:790  contract mycontract2{... */\n  mstore(0x40, 0x80)\n  callvalue\n  dup1\n  iszero\n  tag_1\n  jumpi\n  0x00\n  dup1\n  revert\ntag_1:\n  pop\n  dataSize(sub_0)\n  dup1\n  dataOffset(sub_0)\n  0x00\n  codecopy\n  0x00\n  return\nstop\n\nsub_0: assembly {\n        /* \"project_0x00/mycontract2.sol\":61:790  contract mycontract2{... */\n      mstore(0x40, 0x80)\n      callvalue\n      dup1\n      iszero\n      tag_1\n      jumpi\n      0x00\n      dup1\n      revert\n    tag_1:\n      pop\n      jumpi(tag_2, lt(calldatasize, 0x04))\n      shr(0xe0, calldataload(0x00))\n      dup1\n      0xf5a1c593\n      eq\n      tag_3\n      jumpi\n    tag_2:\n      0x00\n      dup1\n      revert\n        /* \"project_0x00/mycontract2.sol\":364:787  function one(string calldata dname) external view{... */\n    tag_3:\n      tag_4\n      0x04\n      dup1\n      calldatasize\n      sub\n      dup2\n      add\n      swap1\n      tag_5\n      swap2\n      swap1\n      tag_6\n      jump\t// in\n    tag_5:\n      tag_7\n      jump\t// in\n    tag_4:\n      stop\n    tag_7:\n        /* \"project_0x00/mycontract2.sol\":458:474  User storage ptr */\n      0x00\n        /* \"project_0x00/mycontract2.sol\":477:484  Richard */\n      0x01\n        /* \"project_0x00/mycontract2.sol\":485:486  0 */\n      0x00\n        /* \"project_0x00/mycontract2.sol\":477:487  Richard[0] */\n      dup2\n      sload\n      dup2\n      lt\n      tag_9\n      jumpi\n      tag_10\n      tag_11\n      jump\t// in\n    tag_10:\n    tag_9:\n      swap1\n      0x00\n      mstore\n      keccak256(0x00, 0x20)\n      swap1\n      0x03\n      mul\n      add\n        /* \"project_0x00/mycontract2.sol\":458:487  User storage ptr = Richard[0] */\n      swap1\n      pop\n        /* \"project_0x00/mycontract2.sol\":573:590  User memory user1 */\n      0x00\n        /* \"project_0x00/mycontract2.sol\":593:619  User(msg.sender, 0, dname) */\n      mload(0x40)\n      dup1\n      0x60\n      add\n      0x40\n      mstore\n      dup1\n        /* \"project_0x00/mycontract2.sol\":598:608  msg.sender */\n      caller\n        /* \"project_0x00/mycontract2.sol\":593:619  User(msg.sender, 0, dname) */\n      0xffffffffffffffffffffffffffffffffffffffff\n      and\n      dup2\n      mstore\n      0x20\n      add\n        /* \"project_0x00/mycontract2.sol\":610:611  0 */\n      0x00\n        /* \"project_0x00/mycontract2.sol\":593:619  User(msg.sender, 0, dname) */\n      dup2\n      mstore\n      0x20\n      add\n        /* \"project_0x00/mycontract2.sol\":613:618  dname */\n      dup6\n      dup6\n        /* \"project_0x00/mycontract2.sol\":593:619  User(msg.sender, 0, dname) */\n      dup1\n      dup1\n      0x1f\n      add\n      0x20\n      dup1\n      swap2\n      div\n      mul\n      0x20\n      add\n      mload(0x40)\n      swap1\n      dup2\n      add\n      0x40\n      mstore\n      dup1\n      swap4\n      swap3\n      swap2\n      swap1\n      dup2\n      dup2\n      mstore\n      0x20\n      add\n      dup4\n      dup4\n      dup1\n      dup3\n      dup5\n      calldatacopy\n      0x00\n      dup2\n      dup5\n      add\n      mstore\n      not(0x1f)\n      0x1f\n      dup3\n      add\n      and\n      swap1\n      pop\n      dup1\n      dup4\n      add\n      swap3\n      pop\n      pop\n      pop\n      pop\n      pop\n      pop\n      pop\n      dup2\n      mstore\n      pop\n        /* \"project_0x00/mycontract2.sol\":573:619  User memory user1 = User(msg.sender, 0, dname) */\n      swap1\n      pop\n        /* \"project_0x00/mycontract2.sol\":630:647  User memory user2 */\n      0x00\n        /* \"project_0x00/mycontract2.sol\":650:676  User(msg.sender, 0, dname) */\n      mload(0x40)\n      dup1\n      0x60\n      add\n      0x40\n      mstore\n      dup1\n        /* \"project_0x00/mycontract2.sol\":655:665  msg.sender */\n      caller\n        /* \"project_0x00/mycontract2.sol\":650:676  User(msg.sender, 0, dname) */\n      0xffffffffffffffffffffffffffffffffffffffff\n      and\n      dup2\n      mstore\n      0x20\n      add\n        /* \"project_0x00/mycontract2.sol\":667:668  0 */\n      0x00\n        /* \"project_0x00/mycontract2.sol\":650:676  User(msg.sender, 0, dname) */\n      dup2\n      mstore\n      0x20\n      add\n        /* \"project_0x00/mycontract2.sol\":670:675  dname */\n      dup7\n      dup7\n        /* \"project_0x00/mycontract2.sol\":650:676  User(msg.sender, 0, dname) */\n      dup1\n      dup1\n      0x1f\n      add\n      0x20\n      dup1\n      swap2\n      div\n      mul\n      0x20\n      add\n      mload(0x40)\n      swap1\n      dup2\n      add\n      0x40\n      mstore\n      dup1\n      swap4\n      swap3\n      swap2\n      swap1\n      dup2\n      dup2\n      mstore\n      0x20\n      add\n      dup4\n      dup4\n      dup1\n      dup3\n      dup5\n      calldatacopy\n      0x00\n      dup2\n      dup5\n      add\n      mstore\n      not(0x1f)\n      0x1f\n      dup3\n      add\n      and\n      swap1\n      pop\n      dup1\n      dup4\n      add\n      swap3\n      pop\n      pop\n      pop\n      pop\n      pop\n      pop\n      pop\n      dup2\n      mstore\n      pop\n        /* \"project_0x00/mycontract2.sol\":630:676  User memory user2 = User(msg.sender, 0, dname) */\n      swap1\n      pop\n        /* \"project_0x00/mycontract2.sol\":713:730  User memory user3 */\n      0x00\n        /* \"project_0x00/mycontract2.sol\":733:779  User({name: dname, value: 0, adr: msg.sender}) */\n      mload(0x40)\n      dup1\n      0x60\n      add\n      0x40\n      mstore\n      dup1\n        /* \"project_0x00/mycontract2.sol\":767:777  msg.sender */\n      caller\n        /* \"project_0x00/mycontract2.sol\":733:779  User({name: dname, value: 0, adr: msg.sender}) */\n      0xffffffffffffffffffffffffffffffffffffffff\n      and\n      dup2\n      mstore\n      0x20\n      add\n        /* \"project_0x00/mycontract2.sol\":759:760  0 */\n      0x00\n        /* \"project_0x00/mycontract2.sol\":733:779  User({name: dname, value: 0, adr: msg.sender}) */\n      dup2\n      mstore\n      0x20\n      add\n        /* \"project_0x00/mycontract2.sol\":745:750  dname */\n      dup8\n      dup8\n        /* \"project_0x00/mycontract2.sol\":733:779  User({name: dname, value: 0, adr: msg.sender}) */\n      dup1\n      dup1\n      0x1f\n      add\n      0x20\n      dup1\n      swap2\n      div\n      mul\n      0x20\n      add\n      mload(0x40)\n      swap1\n      dup2\n      add\n      0x40\n      mstore\n      dup1\n      swap4\n      swap3\n      swap2\n      swap1\n      dup2\n      dup2\n      mstore\n      0x20\n      add\n      dup4\n      dup4\n      dup1\n      dup3\n      dup5\n      calldatacopy\n      0x00\n      dup2\n      dup5\n      add\n      mstore\n      not(0x1f)\n      0x1f\n      dup3\n      add\n      and\n      swap1\n      pop\n      dup1\n      dup4\n      add\n      swap3\n      pop\n      pop\n      pop\n      pop\n      pop\n      pop\n      pop\n      dup2\n      mstore\n      pop\n        /* \"project_0x00/mycontract2.sol\":713:779  User memory user3 = User({name: dname, value: 0, adr: msg.sender}) */\n      swap1\n      pop\n        /* \"project_0x00/mycontract2.sol\":413:787  {... */\n      pop\n      pop\n      pop\n      pop\n        /* \"project_0x00/mycontract2.sol\":364:787  function one(string calldata dname) external view{... */\n      pop\n      pop\n      jump\t// out\n        /* \"#utility.yul\":88:205   */\n    tag_14:\n        /* \"#utility.yul\":197:198   */\n      0x00\n        /* \"#utility.yul\":194:195   */\n      dup1\n        /* \"#utility.yul\":187:199   */\n      revert\n        /* \"#utility.yul\":211:328   */\n    tag_15:\n        /* \"#utility.yul\":320:321   */\n      0x00\n        /* \"#utility.yul\":317:318   */\n      dup1\n        /* \"#utility.yul\":310:322   */\n      revert\n        /* \"#utility.yul\":334:451   */\n    tag_16:\n        /* \"#utility.yul\":443:444   */\n      0x00\n        /* \"#utility.yul\":440:441   */\n      dup1\n        /* \"#utility.yul\":433:445   */\n      revert\n        /* \"#utility.yul\":457:574   */\n    tag_17:\n        /* \"#utility.yul\":566:567   */\n      0x00\n        /* \"#utility.yul\":563:564   */\n      dup1\n        /* \"#utility.yul\":556:568   */\n      revert\n        /* \"#utility.yul\":580:697   */\n    tag_18:\n        /* \"#utility.yul\":689:690   */\n      0x00\n        /* \"#utility.yul\":686:687   */\n      dup1\n        /* \"#utility.yul\":679:691   */\n      revert\n        /* \"#utility.yul\":717:1270   */\n    tag_19:\n        /* \"#utility.yul\":775:783   */\n      0x00\n        /* \"#utility.yul\":785:791   */\n      dup1\n        /* \"#utility.yul\":835:838   */\n      dup4\n        /* \"#utility.yul\":828:832   */\n      0x1f\n        /* \"#utility.yul\":820:826   */\n      dup5\n        /* \"#utility.yul\":816:833   */\n      add\n        /* \"#utility.yul\":812:839   */\n      slt\n        /* \"#utility.yul\":802:924   */\n      tag_28\n      jumpi\n        /* \"#utility.yul\":843:922   */\n      tag_29\n      tag_16\n      jump\t// in\n    tag_29:\n        /* \"#utility.yul\":802:924   */\n    tag_28:\n        /* \"#utility.yul\":956:962   */\n      dup3\n        /* \"#utility.yul\":943:963   */\n      calldataload\n        /* \"#utility.yul\":933:963   */\n      swap1\n      pop\n        /* \"#utility.yul\":986:1004   */\n      0xffffffffffffffff\n        /* \"#utility.yul\":978:984   */\n      dup2\n        /* \"#utility.yul\":975:1005   */\n      gt\n        /* \"#utility.yul\":972:1089   */\n      iszero\n      tag_30\n      jumpi\n        /* \"#utility.yul\":1008:1087   */\n      tag_31\n      tag_17\n      jump\t// in\n    tag_31:\n        /* \"#utility.yul\":972:1089   */\n    tag_30:\n        /* \"#utility.yul\":1122:1126   */\n      0x20\n        /* \"#utility.yul\":1114:1120   */\n      dup4\n        /* \"#utility.yul\":1110:1127   */\n      add\n        /* \"#utility.yul\":1098:1127   */\n      swap2\n      pop\n        /* \"#utility.yul\":1176:1179   */\n      dup4\n        /* \"#utility.yul\":1168:1172   */\n      0x01\n        /* \"#utility.yul\":1160:1166   */\n      dup3\n        /* \"#utility.yul\":1156:1173   */\n      mul\n        /* \"#utility.yul\":1146:1154   */\n      dup4\n        /* \"#utility.yul\":1142:1174   */\n      add\n        /* \"#utility.yul\":1139:1180   */\n      gt\n        /* \"#utility.yul\":1136:1264   */\n      iszero\n      tag_32\n      jumpi\n        /* \"#utility.yul\":1183:1262   */\n      tag_33\n      tag_18\n      jump\t// in\n    tag_33:\n        /* \"#utility.yul\":1136:1264   */\n    tag_32:\n        /* \"#utility.yul\":717:1270   */\n      swap3\n      pop\n      swap3\n      swap1\n      pop\n      jump\t// out\n        /* \"#utility.yul\":1276:1805   */\n    tag_6:\n        /* \"#utility.yul\":1347:1353   */\n      0x00\n        /* \"#utility.yul\":1355:1361   */\n      dup1\n        /* \"#utility.yul\":1404:1406   */\n      0x20\n        /* \"#utility.yul\":1392:1401   */\n      dup4\n        /* \"#utility.yul\":1383:1390   */\n      dup6\n        /* \"#utility.yul\":1379:1402   */\n      sub\n        /* \"#utility.yul\":1375:1407   */\n      slt\n        /* \"#utility.yul\":1372:1491   */\n      iszero\n      tag_35\n      jumpi\n        /* \"#utility.yul\":1410:1489   */\n      tag_36\n      tag_14\n      jump\t// in\n    tag_36:\n        /* \"#utility.yul\":1372:1491   */\n    tag_35:\n        /* \"#utility.yul\":1558:1559   */\n      0x00\n        /* \"#utility.yul\":1547:1556   */\n      dup4\n        /* \"#utility.yul\":1543:1560   */\n      add\n        /* \"#utility.yul\":1530:1561   */\n      calldataload\n        /* \"#utility.yul\":1588:1606   */\n      0xffffffffffffffff\n        /* \"#utility.yul\":1580:1586   */\n      dup2\n        /* \"#utility.yul\":1577:1607   */\n      gt\n        /* \"#utility.yul\":1574:1691   */\n      iszero\n      tag_37\n      jumpi\n        /* \"#utility.yul\":1610:1689   */\n      tag_38\n      tag_15\n      jump\t// in\n    tag_38:\n        /* \"#utility.yul\":1574:1691   */\n    tag_37:\n        /* \"#utility.yul\":1723:1788   */\n      tag_39\n        /* \"#utility.yul\":1780:1787   */\n      dup6\n        /* \"#utility.yul\":1771:1777   */\n      dup3\n        /* \"#utility.yul\":1760:1769   */\n      dup7\n        /* \"#utility.yul\":1756:1778   */\n      add\n        /* \"#utility.yul\":1723:1788   */\n      tag_19\n      jump\t// in\n    tag_39:\n        /* \"#utility.yul\":1705:1788   */\n      swap3\n      pop\n      swap3\n      pop\n        /* \"#utility.yul\":1501:1798   */\n      pop\n        /* \"#utility.yul\":1276:1805   */\n      swap3\n      pop\n      swap3\n      swap1\n      pop\n      jump\t// out\n        /* \"#utility.yul\":1811:1991   */\n    tag_11:\n        /* \"#utility.yul\":1859:1936   */\n      0x4e487b7100000000000000000000000000000000000000000000000000000000\n        /* \"#utility.yul\":1856:1857   */\n      0x00\n        /* \"#utility.yul\":1849:1937   */\n      mstore\n        /* \"#utility.yul\":1956:1960   */\n      0x32\n        /* \"#utility.yul\":1953:1954   */\n      0x04\n        /* \"#utility.yul\":1946:1961   */\n      mstore\n        /* \"#utility.yul\":1980:1984   */\n      0x24\n        /* \"#utility.yul\":1977:1978   */\n      0x00\n        /* \"#utility.yul\":1970:1985   */\n      revert\n\n    auxdata: 0xa2646970667358221220adbec4445c85862251c5244666b49ccf9618630706ae9d53c80fd2958ea2b38d64736f6c63430008100033\n}\n",
				"bytecode": {
					"linkReferences": {},
					"object": "608060405234801561001057600080fd5b5061030a806100206000396000f3fe608060405234801561001057600080fd5b506004361061002b5760003560e01c8063f5a1c59314610030575b600080fd5b61004a60048036038101906100459190610258565b61004c565b005b60006001600081548110610063576100626102a5565b5b90600052602060002090600302019050600060405180606001604052803373ffffffffffffffffffffffffffffffffffffffff1681526020016000815260200185858080601f016020809104026020016040519081016040528093929190818152602001838380828437600081840152601f19601f820116905080830192505050505050508152509050600060405180606001604052803373ffffffffffffffffffffffffffffffffffffffff1681526020016000815260200186868080601f016020809104026020016040519081016040528093929190818152602001838380828437600081840152601f19601f820116905080830192505050505050508152509050600060405180606001604052803373ffffffffffffffffffffffffffffffffffffffff1681526020016000815260200187878080601f016020809104026020016040519081016040528093929190818152602001838380828437600081840152601f19601f820116905080830192505050505050508152509050505050505050565b600080fd5b600080fd5b600080fd5b600080fd5b600080fd5b60008083601f840112610218576102176101f3565b5b8235905067ffffffffffffffff811115610235576102346101f8565b5b602083019150836001820283011115610251576102506101fd565b5b9250929050565b6000806020838503121561026f5761026e6101e9565b5b600083013567ffffffffffffffff81111561028d5761028c6101ee565b5b61029985828601610202565b92509250509250929050565b7f4e487b7100000000000000000000000000000000000000000000000000000000600052603260045260246000fdfea2646970667358221220adbec4445c85862251c5244666b49ccf9618630706ae9d53c80fd2958ea2b38d64736f6c63430008100033",
					"opcodes": "PUSH1 0x80 PUSH1 0x40 MSTORE CALLVALUE DUP1 ISZERO PUSH2 0x10 JUMPI PUSH1 0x0 DUP1 REVERT JUMPDEST POP PUSH2 0x30A DUP1 PUSH2 0x20 PUSH1 0x0 CODECOPY PUSH1 0x0 RETURN INVALID PUSH1 0x80 PUSH1 0x40 MSTORE CALLVALUE DUP1 ISZERO PUSH2 0x10 JUMPI PUSH1 0x0 DUP1 REVERT JUMPDEST POP PUSH1 0x4 CALLDATASIZE LT PUSH2 0x2B JUMPI PUSH1 0x0 CALLDATALOAD PUSH1 0xE0 SHR DUP1 PUSH4 0xF5A1C593 EQ PUSH2 0x30 JUMPI JUMPDEST PUSH1 0x0 DUP1 REVERT JUMPDEST PUSH2 0x4A PUSH1 0x4 DUP1 CALLDATASIZE SUB DUP2 ADD SWAP1 PUSH2 0x45 SWAP2 SWAP1 PUSH2 0x258 JUMP JUMPDEST PUSH2 0x4C JUMP JUMPDEST STOP JUMPDEST PUSH1 0x0 PUSH1 0x1 PUSH1 0x0 DUP2 SLOAD DUP2 LT PUSH2 0x63 JUMPI PUSH2 0x62 PUSH2 0x2A5 JUMP JUMPDEST JUMPDEST SWAP1 PUSH1 0x0 MSTORE PUSH1 0x20 PUSH1 0x0 KECCAK256 SWAP1 PUSH1 0x3 MUL ADD SWAP1 POP PUSH1 0x0 PUSH1 0x40 MLOAD DUP1 PUSH1 0x60 ADD PUSH1 0x40 MSTORE DUP1 CALLER PUSH20 0xFFFFFFFFFFFFFFFFFFFFFFFFFFFFFFFFFFFFFFFF AND DUP2 MSTORE PUSH1 0x20 ADD PUSH1 0x0 DUP2 MSTORE PUSH1 0x20 ADD DUP6 DUP6 DUP1 DUP1 PUSH1 0x1F ADD PUSH1 0x20 DUP1 SWAP2 DIV MUL PUSH1 0x20 ADD PUSH1 0x40 MLOAD SWAP1 DUP2 ADD PUSH1 0x40 MSTORE DUP1 SWAP4 SWAP3 SWAP2 SWAP1 DUP2 DUP2 MSTORE PUSH1 0x20 ADD DUP4 DUP4 DUP1 DUP3 DUP5 CALLDATACOPY PUSH1 0x0 DUP2 DUP5 ADD MSTORE PUSH1 0x1F NOT PUSH1 0x1F DUP3 ADD AND SWAP1 POP DUP1 DUP4 ADD SWAP3 POP POP POP POP POP POP POP DUP2 MSTORE POP SWAP1 POP PUSH1 0x0 PUSH1 0x40 MLOAD DUP1 PUSH1 0x60 ADD PUSH1 0x40 MSTORE DUP1 CALLER PUSH20 0xFFFFFFFFFFFFFFFFFFFFFFFFFFFFFFFFFFFFFFFF AND DUP2 MSTORE PUSH1 0x20 ADD PUSH1 0x0 DUP2 MSTORE PUSH1 0x20 ADD DUP7 DUP7 DUP1 DUP1 PUSH1 0x1F ADD PUSH1 0x20 DUP1 SWAP2 DIV MUL PUSH1 0x20 ADD PUSH1 0x40 MLOAD SWAP1 DUP2 ADD PUSH1 0x40 MSTORE DUP1 SWAP4 SWAP3 SWAP2 SWAP1 DUP2 DUP2 MSTORE PUSH1 0x20 ADD DUP4 DUP4 DUP1 DUP3 DUP5 CALLDATACOPY PUSH1 0x0 DUP2 DUP5 ADD MSTORE PUSH1 0x1F NOT PUSH1 0x1F DUP3 ADD AND SWAP1 POP DUP1 DUP4 ADD SWAP3 POP POP POP POP POP POP POP DUP2 MSTORE POP SWAP1 POP PUSH1 0x0 PUSH1 0x40 MLOAD DUP1 PUSH1 0x60 ADD PUSH1 0x40 MSTORE DUP1 CALLER PUSH20 0xFFFFFFFFFFFFFFFFFFFFFFFFFFFFFFFFFFFFFFFF AND DUP2 MSTORE PUSH1 0x20 ADD PUSH1 0x0 DUP2 MSTORE PUSH1 0x20 ADD DUP8 DUP8 DUP1 DUP1 PUSH1 0x1F ADD PUSH1 0x20 DUP1 SWAP2 DIV MUL PUSH1 0x20 ADD PUSH1 0x40 MLOAD SWAP1 DUP2 ADD PUSH1 0x40 MSTORE DUP1 SWAP4 SWAP3 SWAP2 SWAP1 DUP2 DUP2 MSTORE PUSH1 0x20 ADD DUP4 DUP4 DUP1 DUP3 DUP5 CALLDATACOPY PUSH1 0x0 DUP2 DUP5 ADD MSTORE PUSH1 0x1F NOT PUSH1 0x1F DUP3 ADD AND SWAP1 POP DUP1 DUP4 ADD SWAP3 POP POP POP POP POP POP POP DUP2 MSTORE POP SWAP1 POP POP POP POP POP POP POP JUMP JUMPDEST PUSH1 0x0 DUP1 REVERT JUMPDEST PUSH1 0x0 DUP1 REVERT JUMPDEST PUSH1 0x0 DUP1 REVERT JUMPDEST PUSH1 0x0 DUP1 REVERT JUMPDEST PUSH1 0x0 DUP1 REVERT JUMPDEST PUSH1 0x0 DUP1 DUP4 PUSH1 0x1F DUP5 ADD SLT PUSH2 0x218 JUMPI PUSH2 0x217 PUSH2 0x1F3 JUMP JUMPDEST JUMPDEST DUP3 CALLDATALOAD SWAP1 POP PUSH8 0xFFFFFFFFFFFFFFFF DUP2 GT ISZERO PUSH2 0x235 JUMPI PUSH2 0x234 PUSH2 0x1F8 JUMP JUMPDEST JUMPDEST PUSH1 0x20 DUP4 ADD SWAP2 POP DUP4 PUSH1 0x1 DUP3 MUL DUP4 ADD GT ISZERO PUSH2 0x251 JUMPI PUSH2 0x250 PUSH2 0x1FD JUMP JUMPDEST JUMPDEST SWAP3 POP SWAP3 SWAP1 POP JUMP JUMPDEST PUSH1 0x0 DUP1 PUSH1 0x20 DUP4 DUP6 SUB SLT ISZERO PUSH2 0x26F JUMPI PUSH2 0x26E PUSH2 0x1E9 JUMP JUMPDEST JUMPDEST PUSH1 0x0 DUP4 ADD CALLDATALOAD PUSH8 0xFFFFFFFFFFFFFFFF DUP2 GT ISZERO PUSH2 0x28D JUMPI PUSH2 0x28C PUSH2 0x1EE JUMP JUMPDEST JUMPDEST PUSH2 0x299 DUP6 DUP3 DUP7 ADD PUSH2 0x202 JUMP JUMPDEST SWAP3 POP SWAP3 POP POP SWAP3 POP SWAP3 SWAP1 POP JUMP JUMPDEST PUSH32 0x4E487B7100000000000000000000000000000000000000000000000000000000 PUSH1 0x0 MSTORE PUSH1 0x32 PUSH1 0x4 MSTORE PUSH1 0x24 PUSH1 0x0 REVERT INVALID LOG2 PUSH5 0x6970667358 0x22 SLT KECCAK256 0xAD 0xBE 0xC4 DIFFICULTY 0x5C DUP6 DUP7 0x22 MLOAD 0xC5 0x24 CHAINID PUSH7 0xB49CCF96186307 MOD 0xAE SWAP14 MSTORE8 0xC8 0xF 0xD2 SWAP6 DUP15 LOG2 0xB3 DUP14 PUSH5 0x736F6C6343 STOP ADDMOD LT STOP CALLER "
				},
				"gasEstimates": {
					"creation": {
						"codeDepositCost": "155600",
						"executionCost": "202",
						"totalCost": "155802"
					},
					"external": {
						"one(string)": "infinite"
					}
				},
				"methodIdentifiers": {
					"one(string)": "f5a1c593"
				}
			},
			"storageLayout": {
				"storage": [
					{
						"astId": 12,
						"contract": "project_0x00/mycontract2.sol:mycontract2",
						"label": "Uarr",
						"offset": 0,
						"slot": "0",
						"type": "t_array(t_struct(User)8_storage)dyn_storage"
					},
					{
						"astId": 16,
						"contract": "project_0x00/mycontract2.sol:mycontract2",
						"label": "Richard",
						"offset": 0,
						"slot": "1",
						"type": "t_array(t_struct(User)8_storage)dyn_storage"
					},
					{
						"astId": 18,
						"contract": "project_0x00/mycontract2.sol:mycontract2",
						"label": "richie",
						"offset": 0,
						"slot": "2",
						"type": "t_uint256"
					}
				],
				"types": {
					"t_address": {
						"encoding": "inplace",
						"label": "address",
						"numberOfBytes": "20"
					},
					"t_array(t_struct(User)8_storage)dyn_storage": {
						"base": "t_struct(User)8_storage",
						"encoding": "dynamic_array",
						"label": "struct mycontract2.User[]",
						"numberOfBytes": "32"
					},
					"t_string_storage": {
						"encoding": "bytes",
						"label": "string",
						"numberOfBytes": "32"
					},
					"t_struct(User)8_storage": {
						"encoding": "inplace",
						"label": "struct mycontract2.User",
						"members": [
							{
								"astId": 3,
								"contract": "project_0x00/mycontract2.sol:mycontract2",
								"label": "adr",
								"offset": 0,
								"slot": "0",
								"type": "t_address"
							},
							{
								"astId": 5,
								"contract": "project_0x00/mycontract2.sol:mycontract2",
								"label": "value",
								"offset": 0,
								"slot": "1",
								"type": "t_uint256"
							},
							{
								"astId": 7,
								"contract": "project_0x00/mycontract2.sol:mycontract2",
								"label": "name",
								"offset": 0,
								"slot": "2",
								"type": "t_string_storage"
							}
						],
						"numberOfBytes": "96"
					},
					"t_uint256": {
						"encoding": "inplace",
						"label": "uint256",
						"numberOfBytes": "32"
					}
				}
			},
			"userdoc": {
				"kind": "user",
				"methods": {},
				"version": 1
			}
		}
	}
}