{
	"project_0x00/mycontract5.sol": {
		"mycontract5": {
			"abi": [
				{
					"inputs": [],
					"name": "display",
					"outputs": [
						{
							"internalType": "uint256",
							"name": "",
							"type": "uint256"
						}
					],
					"stateMutability": "view",
					"type": "function"
				},
				{
					"inputs": [],
					"name": "favno",
					"outputs": [
						{
							"internalType": "uint256",
							"name": "",
							"type": "uint256"
						}
					],
					"stateMutability": "view",
					"type": "function"
				},
				{
					"inputs": [],
					"name": "people",
					"outputs": [
						{
							"internalType": "uint256",
							"name": "amount",
							"type": "uint256"
						},
						{
							"internalType": "string",
							"name": "name",
							"type": "string"
						},
						{
							"internalType": "address",
							"name": "adr",
							"type": "address"
						}
					],
					"stateMutability": "view",
					"type": "function"
				},
				{
					"inputs": [
						{
							"internalType": "uint256",
							"name": "_fav",
							"type": "uint256"
						}
					],
					"name": "store",
					"outputs": [],
					"stateMutability": "nonpayable",
					"type": "function"
				}
			],
			"devdoc": {
				"kind": "dev",
				"methods": {},
				"version": 1
			},
			"evm": {
				"assembly": "    /* \"project_0x00/mycontract5.sol\":61:391  contract mycontract5{... */\n  mstore(0x40, 0x80)\n  callvalue\n  dup1\n  iszero\n  tag_1\n  jumpi\n  0x00\n  dup1\n  revert\ntag_1:\n  pop\n  dataSize(sub_0)\n  dup1\n  dataOffset(sub_0)\n  0x00\n  codecopy\n  0x00\n  return\nstop\n\nsub_0: assembly {\n        /* \"project_0x00/mycontract5.sol\":61:391  contract mycontract5{... */\n      mstore(0x40, 0x80)\n      callvalue\n      dup1\n      iszero\n      tag_1\n      jumpi\n      0x00\n      dup1\n      revert\n    tag_1:\n      pop\n      jumpi(tag_2, lt(calldatasize, 0x04))\n      shr(0xe0, calldataload(0x00))\n      dup1\n      0x0c1b7c1e\n      eq\n      tag_3\n      jumpi\n      dup1\n      0x6057361d\n      eq\n      tag_4\n      jumpi\n      dup1\n      0x783f6af5\n      eq\n      tag_5\n      jumpi\n      dup1\n      0xd5f907ae\n      eq\n      tag_6\n      jumpi\n    tag_2:\n      0x00\n      dup1\n      revert\n        /* \"project_0x00/mycontract5.sol\":310:388  function display() public view returns(uint256){... */\n    tag_3:\n      tag_7\n      tag_8\n      jump\t// in\n    tag_7:\n      mload(0x40)\n      tag_9\n      swap2\n      swap1\n      tag_10\n      jump\t// in\n    tag_9:\n      mload(0x40)\n      dup1\n      swap2\n      sub\n      swap1\n      return\n        /* \"project_0x00/mycontract5.sol\":239:302  function store(uint _fav) public{... */\n    tag_4:\n      tag_11\n      0x04\n      dup1\n      calldatasize\n      sub\n      dup2\n      add\n      swap1\n      tag_12\n      swap2\n      swap1\n      tag_13\n      jump\t// in\n    tag_12:\n      tag_14\n      jump\t// in\n    tag_11:\n      stop\n        /* \"project_0x00/mycontract5.sol\":211:230  Peeps public people */\n    tag_5:\n      tag_15\n      tag_16\n      jump\t// in\n    tag_15:\n      mload(0x40)\n      tag_17\n      swap4\n      swap3\n      swap2\n      swap1\n      tag_18\n      jump\t// in\n    tag_17:\n      mload(0x40)\n      dup1\n      swap2\n      sub\n      swap1\n      return\n        /* \"project_0x00/mycontract5.sol\":90:110  uint256 public favno */\n    tag_6:\n      tag_19\n      tag_20\n      jump\t// in\n    tag_19:\n      mload(0x40)\n      tag_21\n      swap2\n      swap1\n      tag_10\n      jump\t// in\n    tag_21:\n      mload(0x40)\n      dup1\n      swap2\n      sub\n      swap1\n      return\n        /* \"project_0x00/mycontract5.sol\":310:388  function display() public view returns(uint256){... */\n    tag_8:\n        /* \"project_0x00/mycontract5.sol\":349:356  uint256 */\n      0x00\n        /* \"project_0x00/mycontract5.sol\":375:380  favno */\n      dup1\n      sload\n        /* \"project_0x00/mycontract5.sol\":368:380  return favno */\n      swap1\n      pop\n        /* \"project_0x00/mycontract5.sol\":310:388  function display() public view returns(uint256){... */\n      swap1\n      jump\t// out\n        /* \"project_0x00/mycontract5.sol\":239:302  function store(uint _fav) public{... */\n    tag_14:\n        /* \"project_0x00/mycontract5.sol\":290:294  _fav */\n      dup1\n        /* \"project_0x00/mycontract5.sol\":282:287  favno */\n      0x00\n        /* \"project_0x00/mycontract5.sol\":282:294  favno = _fav */\n      dup2\n      swap1\n      sstore\n      pop\n        /* \"project_0x00/mycontract5.sol\":239:302  function store(uint _fav) public{... */\n      pop\n      jump\t// out\n        /* \"project_0x00/mycontract5.sol\":211:230  Peeps public people */\n    tag_16:\n      0x01\n      dup1\n      0x00\n      add\n      sload\n      swap1\n      dup1\n      0x01\n      add\n      dup1\n      sload\n      tag_24\n      swap1\n      tag_25\n      jump\t// in\n    tag_24:\n      dup1\n      0x1f\n      add\n      0x20\n      dup1\n      swap2\n      div\n      mul\n      0x20\n      add\n      mload(0x40)\n      swap1\n      dup2\n      add\n      0x40\n      mstore\n      dup1\n      swap3\n      swap2\n      swap1\n      dup2\n      dup2\n      mstore\n      0x20\n      add\n      dup3\n      dup1\n      sload\n      tag_26\n      swap1\n      tag_25\n      jump\t// in\n    tag_26:\n      dup1\n      iszero\n      tag_27\n      jumpi\n      dup1\n      0x1f\n      lt\n      tag_28\n      jumpi\n      0x0100\n      dup1\n      dup4\n      sload\n      div\n      mul\n      dup4\n      mstore\n      swap2\n      0x20\n      add\n      swap2\n      jump(tag_27)\n    tag_28:\n      dup3\n      add\n      swap2\n      swap1\n      0x00\n      mstore\n      keccak256(0x00, 0x20)\n      swap1\n    tag_29:\n      dup2\n      sload\n      dup2\n      mstore\n      swap1\n      0x01\n      add\n      swap1\n      0x20\n      add\n      dup1\n      dup4\n      gt\n      tag_29\n      jumpi\n      dup3\n      swap1\n      sub\n      0x1f\n      and\n      dup3\n      add\n      swap2\n    tag_27:\n      pop\n      pop\n      pop\n      pop\n      pop\n      swap1\n      dup1\n      0x02\n      add\n      0x00\n      swap1\n      sload\n      swap1\n      0x0100\n      exp\n      swap1\n      div\n      0xffffffffffffffffffffffffffffffffffffffff\n      and\n      swap1\n      pop\n      dup4\n      jump\t// out\n        /* \"project_0x00/mycontract5.sol\":90:110  uint256 public favno */\n    tag_20:\n      sload(0x00)\n      dup2\n      jump\t// out\n        /* \"#utility.yul\":7:84   */\n    tag_30:\n        /* \"#utility.yul\":44:51   */\n      0x00\n        /* \"#utility.yul\":73:78   */\n      dup2\n        /* \"#utility.yul\":62:78   */\n      swap1\n      pop\n        /* \"#utility.yul\":7:84   */\n      swap2\n      swap1\n      pop\n      jump\t// out\n        /* \"#utility.yul\":90:208   */\n    tag_31:\n        /* \"#utility.yul\":177:201   */\n      tag_49\n        /* \"#utility.yul\":195:200   */\n      dup2\n        /* \"#utility.yul\":177:201   */\n      tag_30\n      jump\t// in\n    tag_49:\n        /* \"#utility.yul\":172:175   */\n      dup3\n        /* \"#utility.yul\":165:202   */\n      mstore\n        /* \"#utility.yul\":90:208   */\n      pop\n      pop\n      jump\t// out\n        /* \"#utility.yul\":214:436   */\n    tag_10:\n        /* \"#utility.yul\":307:311   */\n      0x00\n        /* \"#utility.yul\":345:347   */\n      0x20\n        /* \"#utility.yul\":334:343   */\n      dup3\n        /* \"#utility.yul\":330:348   */\n      add\n        /* \"#utility.yul\":322:348   */\n      swap1\n      pop\n        /* \"#utility.yul\":358:429   */\n      tag_51\n        /* \"#utility.yul\":426:427   */\n      0x00\n        /* \"#utility.yul\":415:424   */\n      dup4\n        /* \"#utility.yul\":411:428   */\n      add\n        /* \"#utility.yul\":402:408   */\n      dup5\n        /* \"#utility.yul\":358:429   */\n      tag_31\n      jump\t// in\n    tag_51:\n        /* \"#utility.yul\":214:436   */\n      swap3\n      swap2\n      pop\n      pop\n      jump\t// out\n        /* \"#utility.yul\":523:640   */\n    tag_33:\n        /* \"#utility.yul\":632:633   */\n      0x00\n        /* \"#utility.yul\":629:630   */\n      dup1\n        /* \"#utility.yul\":622:634   */\n      revert\n        /* \"#utility.yul\":769:891   */\n    tag_35:\n        /* \"#utility.yul\":842:866   */\n      tag_56\n        /* \"#utility.yul\":860:865   */\n      dup2\n        /* \"#utility.yul\":842:866   */\n      tag_30\n      jump\t// in\n    tag_56:\n        /* \"#utility.yul\":835:840   */\n      dup2\n        /* \"#utility.yul\":832:867   */\n      eq\n        /* \"#utility.yul\":822:885   */\n      tag_57\n      jumpi\n        /* \"#utility.yul\":881:882   */\n      0x00\n        /* \"#utility.yul\":878:879   */\n      dup1\n        /* \"#utility.yul\":871:883   */\n      revert\n        /* \"#utility.yul\":822:885   */\n    tag_57:\n        /* \"#utility.yul\":769:891   */\n      pop\n      jump\t// out\n        /* \"#utility.yul\":897:1036   */\n    tag_36:\n        /* \"#utility.yul\":943:948   */\n      0x00\n        /* \"#utility.yul\":981:987   */\n      dup2\n        /* \"#utility.yul\":968:988   */\n      calldataload\n        /* \"#utility.yul\":959:988   */\n      swap1\n      pop\n        /* \"#utility.yul\":997:1030   */\n      tag_59\n        /* \"#utility.yul\":1024:1029   */\n      dup2\n        /* \"#utility.yul\":997:1030   */\n      tag_35\n      jump\t// in\n    tag_59:\n        /* \"#utility.yul\":897:1036   */\n      swap3\n      swap2\n      pop\n      pop\n      jump\t// out\n        /* \"#utility.yul\":1042:1371   */\n    tag_13:\n        /* \"#utility.yul\":1101:1107   */\n      0x00\n        /* \"#utility.yul\":1150:1152   */\n      0x20\n        /* \"#utility.yul\":1138:1147   */\n      dup3\n        /* \"#utility.yul\":1129:1136   */\n      dup5\n        /* \"#utility.yul\":1125:1148   */\n      sub\n        /* \"#utility.yul\":1121:1153   */\n      slt\n        /* \"#utility.yul\":1118:1237   */\n      iszero\n      tag_61\n      jumpi\n        /* \"#utility.yul\":1156:1235   */\n      tag_62\n      tag_33\n      jump\t// in\n    tag_62:\n        /* \"#utility.yul\":1118:1237   */\n    tag_61:\n        /* \"#utility.yul\":1276:1277   */\n      0x00\n        /* \"#utility.yul\":1301:1354   */\n      tag_63\n        /* \"#utility.yul\":1346:1353   */\n      dup5\n        /* \"#utility.yul\":1337:1343   */\n      dup3\n        /* \"#utility.yul\":1326:1335   */\n      dup6\n        /* \"#utility.yul\":1322:1344   */\n      add\n        /* \"#utility.yul\":1301:1354   */\n      tag_36\n      jump\t// in\n    tag_63:\n        /* \"#utility.yul\":1291:1354   */\n      swap2\n      pop\n        /* \"#utility.yul\":1247:1364   */\n      pop\n        /* \"#utility.yul\":1042:1371   */\n      swap3\n      swap2\n      pop\n      pop\n      jump\t// out\n        /* \"#utility.yul\":1377:1476   */\n    tag_37:\n        /* \"#utility.yul\":1429:1435   */\n      0x00\n        /* \"#utility.yul\":1463:1468   */\n      dup2\n        /* \"#utility.yul\":1457:1469   */\n      mload\n        /* \"#utility.yul\":1447:1469   */\n      swap1\n      pop\n        /* \"#utility.yul\":1377:1476   */\n      swap2\n      swap1\n      pop\n      jump\t// out\n        /* \"#utility.yul\":1482:1651   */\n    tag_38:\n        /* \"#utility.yul\":1566:1577   */\n      0x00\n        /* \"#utility.yul\":1600:1606   */\n      dup3\n        /* \"#utility.yul\":1595:1598   */\n      dup3\n        /* \"#utility.yul\":1588:1607   */\n      mstore\n        /* \"#utility.yul\":1640:1644   */\n      0x20\n        /* \"#utility.yul\":1635:1638   */\n      dup3\n        /* \"#utility.yul\":1631:1645   */\n      add\n        /* \"#utility.yul\":1616:1645   */\n      swap1\n      pop\n        /* \"#utility.yul\":1482:1651   */\n      swap3\n      swap2\n      pop\n      pop\n      jump\t// out\n        /* \"#utility.yul\":1657:1903   */\n    tag_39:\n        /* \"#utility.yul\":1738:1739   */\n      0x00\n        /* \"#utility.yul\":1748:1861   */\n    tag_67:\n        /* \"#utility.yul\":1762:1768   */\n      dup4\n        /* \"#utility.yul\":1759:1760   */\n      dup2\n        /* \"#utility.yul\":1756:1769   */\n      lt\n        /* \"#utility.yul\":1748:1861   */\n      iszero\n      tag_69\n      jumpi\n        /* \"#utility.yul\":1847:1848   */\n      dup1\n        /* \"#utility.yul\":1842:1845   */\n      dup3\n        /* \"#utility.yul\":1838:1849   */\n      add\n        /* \"#utility.yul\":1832:1850   */\n      mload\n        /* \"#utility.yul\":1828:1829   */\n      dup2\n        /* \"#utility.yul\":1823:1826   */\n      dup5\n        /* \"#utility.yul\":1819:1830   */\n      add\n        /* \"#utility.yul\":1812:1851   */\n      mstore\n        /* \"#utility.yul\":1784:1786   */\n      0x20\n        /* \"#utility.yul\":1781:1782   */\n      dup2\n        /* \"#utility.yul\":1777:1787   */\n      add\n        /* \"#utility.yul\":1772:1787   */\n      swap1\n      pop\n        /* \"#utility.yul\":1748:1861   */\n      jump(tag_67)\n    tag_69:\n        /* \"#utility.yul\":1895:1896   */\n      0x00\n        /* \"#utility.yul\":1886:1892   */\n      dup5\n        /* \"#utility.yul\":1881:1884   */\n      dup5\n        /* \"#utility.yul\":1877:1893   */\n      add\n        /* \"#utility.yul\":1870:1897   */\n      mstore\n        /* \"#utility.yul\":1719:1903   */\n      pop\n        /* \"#utility.yul\":1657:1903   */\n      pop\n      pop\n      pop\n      jump\t// out\n        /* \"#utility.yul\":1909:2011   */\n    tag_40:\n        /* \"#utility.yul\":1950:1956   */\n      0x00\n        /* \"#utility.yul\":2001:2003   */\n      0x1f\n        /* \"#utility.yul\":1997:2004   */\n      not\n        /* \"#utility.yul\":1992:1994   */\n      0x1f\n        /* \"#utility.yul\":1985:1990   */\n      dup4\n        /* \"#utility.yul\":1981:1995   */\n      add\n        /* \"#utility.yul\":1977:2005   */\n      and\n        /* \"#utility.yul\":1967:2005   */\n      swap1\n      pop\n        /* \"#utility.yul\":1909:2011   */\n      swap2\n      swap1\n      pop\n      jump\t// out\n        /* \"#utility.yul\":2017:2394   */\n    tag_41:\n        /* \"#utility.yul\":2105:2108   */\n      0x00\n        /* \"#utility.yul\":2133:2172   */\n      tag_72\n        /* \"#utility.yul\":2166:2171   */\n      dup3\n        /* \"#utility.yul\":2133:2172   */\n      tag_37\n      jump\t// in\n    tag_72:\n        /* \"#utility.yul\":2188:2259   */\n      tag_73\n        /* \"#utility.yul\":2252:2258   */\n      dup2\n        /* \"#utility.yul\":2247:2250   */\n      dup6\n        /* \"#utility.yul\":2188:2259   */\n      tag_38\n      jump\t// in\n    tag_73:\n        /* \"#utility.yul\":2181:2259   */\n      swap4\n      pop\n        /* \"#utility.yul\":2268:2333   */\n      tag_74\n        /* \"#utility.yul\":2326:2332   */\n      dup2\n        /* \"#utility.yul\":2321:2324   */\n      dup6\n        /* \"#utility.yul\":2314:2318   */\n      0x20\n        /* \"#utility.yul\":2307:2312   */\n      dup7\n        /* \"#utility.yul\":2303:2319   */\n      add\n        /* \"#utility.yul\":2268:2333   */\n      tag_39\n      jump\t// in\n    tag_74:\n        /* \"#utility.yul\":2358:2387   */\n      tag_75\n        /* \"#utility.yul\":2380:2386   */\n      dup2\n        /* \"#utility.yul\":2358:2387   */\n      tag_40\n      jump\t// in\n    tag_75:\n        /* \"#utility.yul\":2353:2356   */\n      dup5\n        /* \"#utility.yul\":2349:2388   */\n      add\n        /* \"#utility.yul\":2342:2388   */\n      swap2\n      pop\n        /* \"#utility.yul\":2109:2394   */\n      pop\n        /* \"#utility.yul\":2017:2394   */\n      swap3\n      swap2\n      pop\n      pop\n      jump\t// out\n        /* \"#utility.yul\":2400:2526   */\n    tag_42:\n        /* \"#utility.yul\":2437:2444   */\n      0x00\n        /* \"#utility.yul\":2477:2519   */\n      0xffffffffffffffffffffffffffffffffffffffff\n        /* \"#utility.yul\":2470:2475   */\n      dup3\n        /* \"#utility.yul\":2466:2520   */\n      and\n        /* \"#utility.yul\":2455:2520   */\n      swap1\n      pop\n        /* \"#utility.yul\":2400:2526   */\n      swap2\n      swap1\n      pop\n      jump\t// out\n        /* \"#utility.yul\":2532:2628   */\n    tag_43:\n        /* \"#utility.yul\":2569:2576   */\n      0x00\n        /* \"#utility.yul\":2598:2622   */\n      tag_78\n        /* \"#utility.yul\":2616:2621   */\n      dup3\n        /* \"#utility.yul\":2598:2622   */\n      tag_42\n      jump\t// in\n    tag_78:\n        /* \"#utility.yul\":2587:2622   */\n      swap1\n      pop\n        /* \"#utility.yul\":2532:2628   */\n      swap2\n      swap1\n      pop\n      jump\t// out\n        /* \"#utility.yul\":2634:2752   */\n    tag_44:\n        /* \"#utility.yul\":2721:2745   */\n      tag_80\n        /* \"#utility.yul\":2739:2744   */\n      dup2\n        /* \"#utility.yul\":2721:2745   */\n      tag_43\n      jump\t// in\n    tag_80:\n        /* \"#utility.yul\":2716:2719   */\n      dup3\n        /* \"#utility.yul\":2709:2746   */\n      mstore\n        /* \"#utility.yul\":2634:2752   */\n      pop\n      pop\n      jump\t// out\n        /* \"#utility.yul\":2758:3291   */\n    tag_18:\n        /* \"#utility.yul\":2927:2931   */\n      0x00\n        /* \"#utility.yul\":2965:2967   */\n      0x60\n        /* \"#utility.yul\":2954:2963   */\n      dup3\n        /* \"#utility.yul\":2950:2968   */\n      add\n        /* \"#utility.yul\":2942:2968   */\n      swap1\n      pop\n        /* \"#utility.yul\":2978:3049   */\n      tag_82\n        /* \"#utility.yul\":3046:3047   */\n      0x00\n        /* \"#utility.yul\":3035:3044   */\n      dup4\n        /* \"#utility.yul\":3031:3048   */\n      add\n        /* \"#utility.yul\":3022:3028   */\n      dup7\n        /* \"#utility.yul\":2978:3049   */\n      tag_31\n      jump\t// in\n    tag_82:\n        /* \"#utility.yul\":3096:3105   */\n      dup2\n        /* \"#utility.yul\":3090:3094   */\n      dup2\n        /* \"#utility.yul\":3086:3106   */\n      sub\n        /* \"#utility.yul\":3081:3083   */\n      0x20\n        /* \"#utility.yul\":3070:3079   */\n      dup4\n        /* \"#utility.yul\":3066:3084   */\n      add\n        /* \"#utility.yul\":3059:3107   */\n      mstore\n        /* \"#utility.yul\":3124:3202   */\n      tag_83\n        /* \"#utility.yul\":3197:3201   */\n      dup2\n        /* \"#utility.yul\":3188:3194   */\n      dup6\n        /* \"#utility.yul\":3124:3202   */\n      tag_41\n      jump\t// in\n    tag_83:\n        /* \"#utility.yul\":3116:3202   */\n      swap1\n      pop\n        /* \"#utility.yul\":3212:3284   */\n      tag_84\n        /* \"#utility.yul\":3280:3282   */\n      0x40\n        /* \"#utility.yul\":3269:3278   */\n      dup4\n        /* \"#utility.yul\":3265:3283   */\n      add\n        /* \"#utility.yul\":3256:3262   */\n      dup5\n        /* \"#utility.yul\":3212:3284   */\n      tag_44\n      jump\t// in\n    tag_84:\n        /* \"#utility.yul\":2758:3291   */\n      swap5\n      swap4\n      pop\n      pop\n      pop\n      pop\n      jump\t// out\n        /* \"#utility.yul\":3297:3477   */\n    tag_45:\n        /* \"#utility.yul\":3345:3422   */\n      0x4e487b7100000000000000000000000000000000000000000000000000000000\n        /* \"#utility.yul\":3342:3343   */\n      0x00\n        /* \"#utility.yul\":3335:3423   */\n      mstore\n        /* \"#utility.yul\":3442:3446   */\n      0x22\n        /* \"#utility.yul\":3439:3440   */\n      0x04\n        /* \"#utility.yul\":3432:3447   */\n      mstore\n        /* \"#utility.yul\":3466:3470   */\n      0x24\n        /* \"#utility.yul\":3463:3464   */\n      0x00\n        /* \"#utility.yul\":3456:3471   */\n      revert\n        /* \"#utility.yul\":3483:3803   */\n    tag_25:\n        /* \"#utility.yul\":3527:3533   */\n      0x00\n        /* \"#utility.yul\":3564:3565   */\n      0x02\n        /* \"#utility.yul\":3558:3562   */\n      dup3\n        /* \"#utility.yul\":3554:3566   */\n      div\n        /* \"#utility.yul\":3544:3566   */\n      swap1\n      pop\n        /* \"#utility.yul\":3611:3612   */\n      0x01\n        /* \"#utility.yul\":3605:3609   */\n      dup3\n        /* \"#utility.yul\":3601:3613   */\n      and\n        /* \"#utility.yul\":3632:3650   */\n      dup1\n        /* \"#utility.yul\":3622:3703   */\n      tag_87\n      jumpi\n        /* \"#utility.yul\":3688:3692   */\n      0x7f\n        /* \"#utility.yul\":3680:3686   */\n      dup3\n        /* \"#utility.yul\":3676:3693   */\n      and\n        /* \"#utility.yul\":3666:3693   */\n      swap2\n      pop\n        /* \"#utility.yul\":3622:3703   */\n    tag_87:\n        /* \"#utility.yul\":3750:3752   */\n      0x20\n        /* \"#utility.yul\":3742:3748   */\n      dup3\n        /* \"#utility.yul\":3739:3753   */\n      lt\n        /* \"#utility.yul\":3719:3737   */\n      dup2\n        /* \"#utility.yul\":3716:3754   */\n      sub\n        /* \"#utility.yul\":3713:3797   */\n      tag_88\n      jumpi\n        /* \"#utility.yul\":3769:3787   */\n      tag_89\n      tag_45\n      jump\t// in\n    tag_89:\n        /* \"#utility.yul\":3713:3797   */\n    tag_88:\n        /* \"#utility.yul\":3534:3803   */\n      pop\n        /* \"#utility.yul\":3483:3803   */\n      swap2\n      swap1\n      pop\n      jump\t// out\n\n    auxdata: 0xa264697066735822122048974ed5c90cec9518c7467bcc93673d82e328e07338f321999c2d452be8258964736f6c63430008100033\n}\n",
				"bytecode": {
					"linkReferences": {},
					"object": "608060405234801561001057600080fd5b506103d9806100206000396000f3fe608060405234801561001057600080fd5b506004361061004c5760003560e01c80630c1b7c1e146100515780636057361d1461006f578063783f6af51461008b578063d5f907ae146100ab575b600080fd5b6100596100c9565b60405161006691906101bb565b60405180910390f35b61008960048036038101906100849190610207565b6100d2565b005b6100936100dc565b6040516100a293929190610305565b60405180910390f35b6100b361019c565b6040516100c091906101bb565b60405180910390f35b60008054905090565b8060008190555050565b60018060000154908060010180546100f390610372565b80601f016020809104026020016040519081016040528092919081815260200182805461011f90610372565b801561016c5780601f106101415761010080835404028352916020019161016c565b820191906000526020600020905b81548152906001019060200180831161014f57829003601f168201915b5050505050908060020160009054906101000a900473ffffffffffffffffffffffffffffffffffffffff16905083565b60005481565b6000819050919050565b6101b5816101a2565b82525050565b60006020820190506101d060008301846101ac565b92915050565b600080fd5b6101e4816101a2565b81146101ef57600080fd5b50565b600081359050610201816101db565b92915050565b60006020828403121561021d5761021c6101d6565b5b600061022b848285016101f2565b91505092915050565b600081519050919050565b600082825260208201905092915050565b60005b8381101561026e578082015181840152602081019050610253565b60008484015250505050565b6000601f19601f8301169050919050565b600061029682610234565b6102a0818561023f565b93506102b0818560208601610250565b6102b98161027a565b840191505092915050565b600073ffffffffffffffffffffffffffffffffffffffff82169050919050565b60006102ef826102c4565b9050919050565b6102ff816102e4565b82525050565b600060608201905061031a60008301866101ac565b818103602083015261032c818561028b565b905061033b60408301846102f6565b949350505050565b7f4e487b7100000000000000000000000000000000000000000000000000000000600052602260045260246000fd5b6000600282049050600182168061038a57607f821691505b60208210810361039d5761039c610343565b5b5091905056fea264697066735822122048974ed5c90cec9518c7467bcc93673d82e328e07338f321999c2d452be8258964736f6c63430008100033",
					"opcodes": "PUSH1 0x80 PUSH1 0x40 MSTORE CALLVALUE DUP1 ISZERO PUSH2 0x10 JUMPI PUSH1 0x0 DUP1 REVERT JUMPDEST POP PUSH2 0x3D9 DUP1 PUSH2 0x20 PUSH1 0x0 CODECOPY PUSH1 0x0 RETURN INVALID PUSH1 0x80 PUSH1 0x40 MSTORE CALLVALUE DUP1 ISZERO PUSH2 0x10 JUMPI PUSH1 0x0 DUP1 REVERT JUMPDEST POP PUSH1 0x4 CALLDATASIZE LT PUSH2 0x4C JUMPI PUSH1 0x0 CALLDATALOAD PUSH1 0xE0 SHR DUP1 PUSH4 0xC1B7C1E EQ PUSH2 0x51 JUMPI DUP1 PUSH4 0x6057361D EQ PUSH2 0x6F JUMPI DUP1 PUSH4 0x783F6AF5 EQ PUSH2 0x8B JUMPI DUP1 PUSH4 0xD5F907AE EQ PUSH2 0xAB JUMPI JUMPDEST PUSH1 0x0 DUP1 REVERT JUMPDEST PUSH2 0x59 PUSH2 0xC9 JUMP JUMPDEST PUSH1 0x40 MLOAD PUSH2 0x66 SWAP2 SWAP1 PUSH2 0x1BB JUMP JUMPDEST PUSH1 0x40 MLOAD DUP1 SWAP2 SUB SWAP1 RETURN JUMPDEST PUSH2 0x89 PUSH1 0x4 DUP1 CALLDATASIZE SUB DUP2 ADD SWAP1 PUSH2 0x84 SWAP2 SWAP1 PUSH2 0x207 JUMP JUMPDEST PUSH2 0xD2 JUMP JUMPDEST STOP JUMPDEST PUSH2 0x93 PUSH2 0xDC JUMP JUMPDEST PUSH1 0x40 MLOAD PUSH2 0xA2 SWAP4 SWAP3 SWAP2 SWAP1 PUSH2 0x305 JUMP JUMPDEST PUSH1 0x40 MLOAD DUP1 SWAP2 SUB SWAP1 RETURN JUMPDEST PUSH2 0xB3 PUSH2 0x19C JUMP JUMPDEST PUSH1 0x40 MLOAD PUSH2 0xC0 SWAP2 SWAP1 PUSH2 0x1BB JUMP JUMPDEST PUSH1 0x40 MLOAD DUP1 SWAP2 SUB SWAP1 RETURN JUMPDEST PUSH1 0x0 DUP1 SLOAD SWAP1 POP SWAP1 JUMP JUMPDEST DUP1 PUSH1 0x0 DUP2 SWAP1 SSTORE POP POP JUMP JUMPDEST PUSH1 0x1 DUP1 PUSH1 0x0 ADD SLOAD SWAP1 DUP1 PUSH1 0x1 ADD DUP1 SLOAD PUSH2 0xF3 SWAP1 PUSH2 0x372 JUMP JUMPDEST DUP1 PUSH1 0x1F ADD PUSH1 0x20 DUP1 SWAP2 DIV MUL PUSH1 0x20 ADD PUSH1 0x40 MLOAD SWAP1 DUP2 ADD PUSH1 0x40 MSTORE DUP1 SWAP3 SWAP2 SWAP1 DUP2 DUP2 MSTORE PUSH1 0x20 ADD DUP3 DUP1 SLOAD PUSH2 0x11F SWAP1 PUSH2 0x372 JUMP JUMPDEST DUP1 ISZERO PUSH2 0x16C JUMPI DUP1 PUSH1 0x1F LT PUSH2 0x141 JUMPI PUSH2 0x100 DUP1 DUP4 SLOAD DIV MUL DUP4 MSTORE SWAP2 PUSH1 0x20 ADD SWAP2 PUSH2 0x16C JUMP JUMPDEST DUP3 ADD SWAP2 SWAP1 PUSH1 0x0 MSTORE PUSH1 0x20 PUSH1 0x0 KECCAK256 SWAP1 JUMPDEST DUP2 SLOAD DUP2 MSTORE SWAP1 PUSH1 0x1 ADD SWAP1 PUSH1 0x20 ADD DUP1 DUP4 GT PUSH2 0x14F JUMPI DUP3 SWAP1 SUB PUSH1 0x1F AND DUP3 ADD SWAP2 JUMPDEST POP POP POP POP POP SWAP1 DUP1 PUSH1 0x2 ADD PUSH1 0x0 SWAP1 SLOAD SWAP1 PUSH2 0x100 EXP SWAP1 DIV PUSH20 0xFFFFFFFFFFFFFFFFFFFFFFFFFFFFFFFFFFFFFFFF AND SWAP1 POP DUP4 JUMP JUMPDEST PUSH1 0x0 SLOAD DUP2 JUMP JUMPDEST PUSH1 0x0 DUP2 SWAP1 POP SWAP2 SWAP1 POP JUMP JUMPDEST PUSH2 0x1B5 DUP2 PUSH2 0x1A2 JUMP JUMPDEST DUP3 MSTORE POP POP JUMP JUMPDEST PUSH1 0x0 PUSH1 0x20 DUP3 ADD SWAP1 POP PUSH2 0x1D0 PUSH1 0x0 DUP4 ADD DUP5 PUSH2 0x1AC JUMP JUMPDEST SWAP3 SWAP2 POP POP JUMP JUMPDEST PUSH1 0x0 DUP1 REVERT JUMPDEST PUSH2 0x1E4 DUP2 PUSH2 0x1A2 JUMP JUMPDEST DUP2 EQ PUSH2 0x1EF JUMPI PUSH1 0x0 DUP1 REVERT JUMPDEST POP JUMP JUMPDEST PUSH1 0x0 DUP2 CALLDATALOAD SWAP1 POP PUSH2 0x201 DUP2 PUSH2 0x1DB JUMP JUMPDEST SWAP3 SWAP2 POP POP JUMP JUMPDEST PUSH1 0x0 PUSH1 0x20 DUP3 DUP5 SUB SLT ISZERO PUSH2 0x21D JUMPI PUSH2 0x21C PUSH2 0x1D6 JUMP JUMPDEST JUMPDEST PUSH1 0x0 PUSH2 0x22B DUP5 DUP3 DUP6 ADD PUSH2 0x1F2 JUMP JUMPDEST SWAP2 POP POP SWAP3 SWAP2 POP POP JUMP JUMPDEST PUSH1 0x0 DUP2 MLOAD SWAP1 POP SWAP2 SWAP1 POP JUMP JUMPDEST PUSH1 0x0 DUP3 DUP3 MSTORE PUSH1 0x20 DUP3 ADD SWAP1 POP SWAP3 SWAP2 POP POP JUMP JUMPDEST PUSH1 0x0 JUMPDEST DUP4 DUP2 LT ISZERO PUSH2 0x26E JUMPI DUP1 DUP3 ADD MLOAD DUP2 DUP5 ADD MSTORE PUSH1 0x20 DUP2 ADD SWAP1 POP PUSH2 0x253 JUMP JUMPDEST PUSH1 0x0 DUP5 DUP5 ADD MSTORE POP POP POP POP JUMP JUMPDEST PUSH1 0x0 PUSH1 0x1F NOT PUSH1 0x1F DUP4 ADD AND SWAP1 POP SWAP2 SWAP1 POP JUMP JUMPDEST PUSH1 0x0 PUSH2 0x296 DUP3 PUSH2 0x234 JUMP JUMPDEST PUSH2 0x2A0 DUP2 DUP6 PUSH2 0x23F JUMP JUMPDEST SWAP4 POP PUSH2 0x2B0 DUP2 DUP6 PUSH1 0x20 DUP7 ADD PUSH2 0x250 JUMP JUMPDEST PUSH2 0x2B9 DUP2 PUSH2 0x27A JUMP JUMPDEST DUP5 ADD SWAP2 POP POP SWAP3 SWAP2 POP POP JUMP JUMPDEST PUSH1 0x0 PUSH20 0xFFFFFFFFFFFFFFFFFFFFFFFFFFFFFFFFFFFFFFFF DUP3 AND SWAP1 POP SWAP2 SWAP1 POP JUMP JUMPDEST PUSH1 0x0 PUSH2 0x2EF DUP3 PUSH2 0x2C4 JUMP JUMPDEST SWAP1 POP SWAP2 SWAP1 POP JUMP JUMPDEST PUSH2 0x2FF DUP2 PUSH2 0x2E4 JUMP JUMPDEST DUP3 MSTORE POP POP JUMP JUMPDEST PUSH1 0x0 PUSH1 0x60 DUP3 ADD SWAP1 POP PUSH2 0x31A PUSH1 0x0 DUP4 ADD DUP7 PUSH2 0x1AC JUMP JUMPDEST DUP2 DUP2 SUB PUSH1 0x20 DUP4 ADD MSTORE PUSH2 0x32C DUP2 DUP6 PUSH2 0x28B JUMP JUMPDEST SWAP1 POP PUSH2 0x33B PUSH1 0x40 DUP4 ADD DUP5 PUSH2 0x2F6 JUMP JUMPDEST SWAP5 SWAP4 POP POP POP POP JUMP JUMPDEST PUSH32 0x4E487B7100000000000000000000000000000000000000000000000000000000 PUSH1 0x0 MSTORE PUSH1 0x22 PUSH1 0x4 MSTORE PUSH1 0x24 PUSH1 0x0 REVERT JUMPDEST PUSH1 0x0 PUSH1 0x2 DUP3 DIV SWAP1 POP PUSH1 0x1 DUP3 AND DUP1 PUSH2 0x38A JUMPI PUSH1 0x7F DUP3 AND SWAP2 POP JUMPDEST PUSH1 0x20 DUP3 LT DUP2 SUB PUSH2 0x39D JUMPI PUSH2 0x39C PUSH2 0x343 JUMP JUMPDEST JUMPDEST POP SWAP2 SWAP1 POP JUMP INVALID LOG2 PUSH5 0x6970667358 0x22 SLT KECCAK256 BASEFEE SWAP8 0x4E 0xD5 0xC9 0xC 0xEC SWAP6 XOR 0xC7 CHAINID PUSH28 0xCC93673D82E328E07338F321999C2D452BE8258964736F6C63430008 LT STOP CALLER "
				},
				"gasEstimates": {
					"creation": {
						"codeDepositCost": "197000",
						"executionCost": "238",
						"totalCost": "197238"
					},
					"external": {
						"display()": "2415",
						"favno()": "2473",
						"people()": "infinite",
						"store(uint256)": "22520"
					}
				},
				"methodIdentifiers": {
					"display()": "0c1b7c1e",
					"favno()": "d5f907ae",
					"people()": "783f6af5",
					"store(uint256)": "6057361d"
				}
			},
			"storageLayout": {
				"storage": [
					{
						"astId": 3,
						"contract": "project_0x00/mycontract5.sol:mycontract5",
						"label": "favno",
						"offset": 0,
						"slot": "0",
						"type": "t_uint256"
					},
					{
						"astId": 13,
						"contract": "project_0x00/mycontract5.sol:mycontract5",
						"label": "people",
						"offset": 0,
						"slot": "1",
						"type": "t_struct(Peeps)10_storage"
					}
				],
				"types": {
					"t_address": {
						"encoding": "inplace",
						"label": "address",
						"numberOfBytes": "20"
					},
					"t_string_storage": {
						"encoding": "bytes",
						"label": "string",
						"numberOfBytes": "32"
					},
					"t_struct(Peeps)10_storage": {
						"encoding": "inplace",
						"label": "struct mycontract5.Peeps",
						"members": [
							{
								"astId": 5,
								"contract": "project_0x00/mycontract5.sol:mycontract5",
								"label": "amount",
								"offset": 0,
								"slot": "0",
								"type": "t_uint256"
							},
							{
								"astId": 7,
								"contract": "project_0x00/mycontract5.sol:mycontract5",
								"label": "name",
								"offset": 0,
								"slot": "1",
								"type": "t_string_storage"
							},
							{
								"astId": 9,
								"contract": "project_0x00/mycontract5.sol:mycontract5",
								"label": "adr",
								"offset": 0,
								"slot": "2",
								"type": "t_address"
							}
						],
						"numberOfBytes": "96"
					},
					"t_uint256": {
						"encoding": "inplace",
						"label": "uint256",
						"numberOfBytes": "32"
					}
				}
			},
			"userdoc": {
				"kind": "user",
				"methods": {},
				"version": 1
			}
		}
	}
}